{"abi":[{"type":"constructor","inputs":[{"name":"regAddr","type":"address","internalType":"address"}],"stateMutability":"nonpayable"},{"type":"function","name":"DECIMALS","inputs":[],"outputs":[{"name":"","type":"uint8","internalType":"uint8"}],"stateMutability":"view"},{"type":"function","name":"DEFAULT_ADMIN_ROLE","inputs":[],"outputs":[{"name":"","type":"bytes32","internalType":"bytes32"}],"stateMutability":"view"},{"type":"function","name":"R","inputs":[],"outputs":[{"name":"","type":"address","internalType":"contract IGameRegistry"}],"stateMutability":"view"},{"type":"function","name":"Y","inputs":[],"outputs":[{"name":"","type":"address","internalType":"contract IGameToken"}],"stateMutability":"view"},{"type":"function","name":"balanceOf","inputs":[{"name":"","type":"address","internalType":"address"}],"outputs":[{"name":"","type":"uint256","internalType":"uint256"}],"stateMutability":"view"},{"type":"function","name":"decimals","inputs":[],"outputs":[{"name":"","type":"uint8","internalType":"uint8"}],"stateMutability":"pure"},{"type":"function","name":"depositGameToken","inputs":[{"name":"amount","type":"uint256","internalType":"uint256"}],"outputs":[],"stateMutability":"nonpayable"},{"type":"function","name":"getRoleAdmin","inputs":[{"name":"role","type":"bytes32","internalType":"bytes32"}],"outputs":[{"name":"","type":"bytes32","internalType":"bytes32"}],"stateMutability":"view"},{"type":"function","name":"grantRole","inputs":[{"name":"role","type":"bytes32","internalType":"bytes32"},{"name":"account","type":"address","internalType":"address"}],"outputs":[],"stateMutability":"nonpayable"},{"type":"function","name":"hasRole","inputs":[{"name":"role","type":"bytes32","internalType":"bytes32"},{"name":"account","type":"address","internalType":"address"}],"outputs":[{"name":"","type":"bool","internalType":"bool"}],"stateMutability":"view"},{"type":"function","name":"name","inputs":[],"outputs":[{"name":"","type":"string","internalType":"string"}],"stateMutability":"view"},{"type":"function","name":"renounceRole","inputs":[{"name":"role","type":"bytes32","internalType":"bytes32"},{"name":"callerConfirmation","type":"address","internalType":"address"}],"outputs":[],"stateMutability":"nonpayable"},{"type":"function","name":"revokeRole","inputs":[{"name":"role","type":"bytes32","internalType":"bytes32"},{"name":"account","type":"address","internalType":"address"}],"outputs":[],"stateMutability":"nonpayable"},{"type":"function","name":"stake","inputs":[{"name":"amount","type":"uint256","internalType":"uint256"}],"outputs":[{"name":"shares","type":"uint256","internalType":"uint256"}],"stateMutability":"nonpayable"},{"type":"function","name":"supportsInterface","inputs":[{"name":"interfaceId","type":"bytes4","internalType":"bytes4"}],"outputs":[{"name":"","type":"bool","internalType":"bool"}],"stateMutability":"view"},{"type":"function","name":"symbol","inputs":[],"outputs":[{"name":"","type":"string","internalType":"string"}],"stateMutability":"view"},{"type":"function","name":"tokenBalance","inputs":[],"outputs":[{"name":"","type":"uint256","internalType":"uint256"}],"stateMutability":"view"},{"type":"function","name":"totalGameToken","inputs":[],"outputs":[{"name":"","type":"uint256","internalType":"uint256"}],"stateMutability":"view"},{"type":"function","name":"totalSupply","inputs":[],"outputs":[{"name":"","type":"uint256","internalType":"uint256"}],"stateMutability":"view"},{"type":"function","name":"unstake","inputs":[{"name":"shares","type":"uint256","internalType":"uint256"}],"outputs":[{"name":"amount","type":"uint256","internalType":"uint256"}],"stateMutability":"nonpayable"},{"type":"event","name":"FeeDeposited","inputs":[{"name":"depositor","type":"address","indexed":true,"internalType":"address"},{"name":"amount","type":"uint256","indexed":false,"internalType":"uint256"}],"anonymous":false},{"type":"event","name":"RoleAdminChanged","inputs":[{"name":"role","type":"bytes32","indexed":true,"internalType":"bytes32"},{"name":"previousAdminRole","type":"bytes32","indexed":true,"internalType":"bytes32"},{"name":"newAdminRole","type":"bytes32","indexed":true,"internalType":"bytes32"}],"anonymous":false},{"type":"event","name":"RoleGranted","inputs":[{"name":"role","type":"bytes32","indexed":true,"internalType":"bytes32"},{"name":"account","type":"address","indexed":true,"internalType":"address"},{"name":"sender","type":"address","indexed":true,"internalType":"address"}],"anonymous":false},{"type":"event","name":"RoleRevoked","inputs":[{"name":"role","type":"bytes32","indexed":true,"internalType":"bytes32"},{"name":"account","type":"address","indexed":true,"internalType":"address"},{"name":"sender","type":"address","indexed":true,"internalType":"address"}],"anonymous":false},{"type":"error","name":"AccessControlBadConfirmation","inputs":[]},{"type":"error","name":"AccessControlUnauthorizedAccount","inputs":[{"name":"account","type":"address","internalType":"address"},{"name":"neededRole","type":"bytes32","internalType":"bytes32"}]}],"bytecode":{"object":"0x60c06040523461004f57610019610014610114565b6103c6565b610021610054565b6116146106248239608051816108aa015260a0518181816107fb01528181610f76015261128c015261161490f35b61005a565b60405190565b5f80fd5b601f801991011690565b634e487b7160e01b5f52604160045260245ffd5b906100869061005e565b810190811060018060401b0382111761009e57604052565b610068565b906100b66100af610054565b928361007c565b565b5f80fd5b60018060a01b031690565b6100d0906100bc565b90565b6100dc816100c7565b036100e357565b5f80fd5b905051906100f4826100d3565b565b9060208282031261010f5761010c915f016100e7565b90565b6100b8565b610132611c3880380380610127816100a3565b9283398101906100f6565b90565b634e487b7160e01b5f52602260045260245ffd5b9060016002830492168015610169575b602083101461016457565b610135565b91607f1691610159565b5f5260205f2090565b601f602091010490565b1b90565b919060086101a591029161019f5f1984610186565b92610186565b9181191691161790565b90565b90565b6101c96101c46101ce926101af565b6101b2565b6101af565b90565b90565b91906101ea6101e56101f2936101b5565b6101d1565b90835461018a565b9055565b5f90565b61020c916102066101f6565b916101d4565b565b5b81811061021a575050565b806102275f6001936101fa565b0161020f565b9190601f811161023d575b505050565b61024961026e93610173565b9060206102558461017c565b83019310610276575b6102679061017c565b019061020e565b5f8080610238565b91506102678192905061025e565b61029960066102938354610149565b8361022d565b600c7f7852656164790000000000000000000000000000000000000000000000000000019055565b6102ca90610284565b565b6102e160046102db8354610149565b8361022d565b60087f7852445900000000000000000000000000000000000000000000000000000000019055565b610312906102cc565b565b61032861032361032d926100bc565b6101b2565b6100bc565b90565b61033990610314565b90565b61034590610330565b90565b61035190610314565b90565b61035d90610348565b90565b60e01b90565b5f0190565b610373610054565b3d5f823e3d90fd5b61038490610314565b90565b6103909061037b565b90565b90565b90565b5f1b90565b6103b26103ad6103b792610393565b610399565b610396565b90565b6103c35f61039e565b90565b60206103f46103eb61040a936103dc60016102c1565b6103e66002610309565b61033c565b80608052610354565b63c3dfdae690610402610054565b938492610360565b8252818061041a60048201610366565b03915afa801561047b57610435915f9161044d575b50610387565b60a05261044a6104436103ba565b3390610512565b50565b61046e915060203d8111610474575b610466818361007c565b8101906100f6565b5f61042f565b503d61045c565b61036b565b5f90565b151590565b61049290610396565b90565b9061049f90610489565b5f5260205260405f2090565b6104b490610348565b90565b906104c1906104ab565b5f5260205260405f2090565b906104d960ff91610399565b9181191691161790565b6104ec90610484565b90565b90565b9061050761050261050e926104e3565b6104ef565b82546104cd565b9055565b61051a610480565b5061052f6105298284906105e9565b15610484565b5f146105b75761055660016105515f610549818690610495565b0185906104b7565b6104f2565b9061055f610616565b9061059c6105966105907f2f8788117e7eff1d82e926ec794901d17c78024a50270940304540a733656f0d95610489565b926104ab565b926104ab565b926105a5610054565b806105af81610366565b0390a4600190565b50505f90565b5f1c90565b60ff1690565b6105d46105d9916105bd565b6105c2565b90565b6105e690546105c8565b90565b61060f915f61060461060a936105fd610480565b5082610495565b016104b7565b6105dc565b90565b5f90565b61061e610612565b50339056fe60806040526004361015610013575b610b54565b61001d5f3561015c565b806301ffc9a714610157578063024c02481461015257806306fdde031461014d57806318160ddd14610148578063248a9ca314610143578063299dc09f1461013e5780632e0f2625146101395780632e17de78146101345780632f2ff15d1461012f578063313ce5671461012a57806336568abe1461012557806345b3fe42146101205780634980e1be1461011b57806370a082311461011657806391d148541461011157806395d89b411461010c5780639e1a4d1914610107578063a217fddf14610102578063a694fc3a146100fd5763d547741f0361000e57610b20565b610aeb565b610ab6565b610a46565b610a02565b6109bd565b610988565b6108fa565b610873565b6107c5565b610790565b61075c565b6106c0565b61068b565b6105f6565b61057b565b6104e0565b61046f565b61024d565b6101e4565b60e01c90565b60405190565b5f80fd5b5f80fd5b63ffffffff60e01b1690565b61018581610170565b0361018c57565b5f80fd5b9050359061019d8261017c565b565b906020828203126101b8576101b5915f01610190565b90565b61016c565b151590565b6101cb906101bd565b9052565b91906101e2905f602085019401906101c2565b565b34610214576102106101ff6101fa36600461019f565b610b5c565b610207610162565b918291826101cf565b0390f35b610168565b5f91031261022357565b61016c565b90565b61023490610228565b9052565b919061024b905f6020850194019061022b565b565b3461027d5761025d366004610219565b610279610268610bc6565b610270610162565b91829182610238565b0390f35b610168565b634e487b7160e01b5f525f60045260245ffd5b634e487b7160e01b5f52602260045260245ffd5b90600160028304921680156102c9575b60208310146102c457565b610295565b91607f16916102b9565b60209181520190565b5f5260205f2090565b905f92918054906102ff6102f8836102a9565b80946102d3565b916001811690815f14610356575060011461031a575b505050565b61032791929394506102dc565b915f925b81841061033e57505001905f8080610315565b6001816020929593955484860152019101929061032b565b92949550505060ff19168252151560200201905f8080610315565b9061037b916102e5565b90565b601f801991011690565b634e487b7160e01b5f52604160045260245ffd5b906103a69061037e565b810190811067ffffffffffffffff8211176103c057604052565b610388565b906103e56103de926103d5610162565b93848092610371565b038361039c565b565b905f106103fa576103f7906103c5565b90565b610282565b61040b60015f906103e7565b90565b5190565b60209181520190565b90825f9392825e0152565b61044561044e6020936104539361043c8161040e565b93848093610412565b9586910161041b565b61037e565b0190565b61046c9160208201915f818403910152610426565b90565b3461049f5761047f366004610219565b61049b61048a6103ff565b610492610162565b91829182610457565b0390f35b610168565b1c90565b90565b6104bb9060086104c093026104a4565b6104a8565b90565b906104ce91546104ab565b90565b6104dd60045f906104c3565b90565b34610510576104f0366004610219565b61050c6104fb6104d1565b610503610162565b91829182610238565b0390f35b610168565b90565b61052181610515565b0361052857565b5f80fd5b9050359061053982610518565b565b9060208282031261055457610551915f0161052c565b90565b61016c565b61056290610515565b9052565b9190610579905f60208501940190610559565b565b346105ab576105a761059661059136600461053b565b610c26565b61059e610162565b91829182610566565b0390f35b610168565b6105b981610228565b036105c057565b5f80fd5b905035906105d1826105b0565b565b906020828203126105ec576105e9915f016105c4565b90565b61016c565b5f0190565b346106245761060e6106093660046105d3565b610cd5565b610616610162565b80610620816105f1565b0390f35b610168565b90565b60ff1690565b90565b61064961064461064e92610629565b610632565b61062c565b90565b61065b6012610635565b90565b610666610651565b90565b6106729061062c565b9052565b9190610689905f60208501940190610669565b565b346106bb5761069b366004610219565b6106b76106a661065e565b6106ae610162565b91829182610676565b0390f35b610168565b346106f0576106ec6106db6106d63660046105d3565b610ebe565b6106e3610162565b91829182610238565b0390f35b610168565b60018060a01b031690565b610709906106f5565b90565b61071581610700565b0361071c57565b5f80fd5b9050359061072d8261070c565b565b9190604083820312610757578061074b610754925f860161052c565b93602001610720565b90565b61016c565b3461078b5761077561076f36600461072f565b90611076565b61077d610162565b80610787816105f1565b0390f35b610168565b346107c0576107a0366004610219565b6107bc6107ab611086565b6107b3610162565b91829182610676565b0390f35b610168565b346107f4576107de6107d836600461072f565b9061109a565b6107e6610162565b806107f0816105f1565b0390f35b610168565b7f000000000000000000000000000000000000000000000000000000000000000090565b61083161082c610836926106f5565b610632565b6106f5565b90565b6108429061081d565b90565b61084e90610839565b90565b61085a90610845565b9052565b9190610871905f60208501940190610851565b565b346108a357610883366004610219565b61089f61088e6107f9565b610896610162565b9182918261085e565b0390f35b610168565b7f000000000000000000000000000000000000000000000000000000000000000090565b6108d590610839565b90565b6108e1906108cc565b9052565b91906108f8905f602085019401906108d8565b565b3461092a5761090a366004610219565b6109266109156108a8565b61091d610162565b918291826108e5565b0390f35b610168565b9060208282031261094857610945915f01610720565b90565b61016c565b61095690610839565b90565b906109639061094d565b5f5260205260405f2090565b610985906109806003915f92610959565b6104c3565b90565b346109b8576109b46109a361099e36600461092f565b61096f565b6109ab610162565b91829182610238565b0390f35b610168565b346109ee576109ea6109d96109d336600461072f565b9061111f565b6109e1610162565b918291826101cf565b0390f35b610168565b6109ff60025f906103e7565b90565b34610a3257610a12366004610219565b610a2e610a1d6109f3565b610a25610162565b91829182610457565b0390f35b610168565b610a4360055f906104c3565b90565b34610a7657610a56366004610219565b610a72610a61610a37565b610a69610162565b91829182610238565b0390f35b610168565b90565b5f1b90565b610a97610a92610a9c92610a7b565b610a7e565b610515565b90565b610aa85f610a83565b90565b610ab3610a9f565b90565b34610ae657610ac6366004610219565b610ae2610ad1610aab565b610ad9610162565b91829182610566565b0390f35b610168565b34610b1b57610b17610b06610b013660046105d3565b6111ca565b610b0e610162565b91829182610238565b0390f35b610168565b34610b4f57610b39610b3336600461072f565b90611398565b610b41610162565b80610b4b816105f1565b0390f35b610168565b5f80fd5b5f90565b610b64610b58565b5080610b7f610b79637965db0b60e01b610170565b91610170565b14908115610b8c575b5090565b610b9691506113a4565b5f610b88565b5f90565b5f1c90565b610bb1610bb691610ba0565b6104a8565b90565b610bc39054610ba5565b90565b610bce610b9c565b50610bd96005610bb9565b90565b5f90565b610be990610515565b90565b90610bf690610be0565b5f5260205260405f2090565b90565b610c11610c1691610ba0565b610c02565b90565b610c239054610c05565b90565b6001610c3e610c4492610c37610bdc565b505f610bec565b01610c19565b90565b634e487b7160e01b5f52601160045260245ffd5b610c6a610c7091939293610228565b92610228565b8201809211610c7b57565b610c47565b90610c8c5f1991610a7e565b9181191691161790565b610caa610ca5610caf92610228565b610632565b610228565b90565b90565b90610cca610cc5610cd192610c96565b610cb2565b8254610c80565b9055565b610cf2610ceb82610ce66005610bb9565b610c5b565b6005610cb5565b33610d32610d207f630c125b5b9a3b15925e9e1a35a6032d751b7b3377cca746663d5c45094e91d19261094d565b92610d29610162565b91829182610238565b0390a2565b610d4b610d46610d5092610a7b565b610632565b610228565b90565b5f7f7368617265730000000000000000000000000000000000000000000000000000910152565b610d876006602092610412565b610d9081610d53565b0190565b610da99060208101905f818303910152610d7a565b90565b15610db357565b610dbb610162565b62461bcd60e51b815280610dd160048201610d94565b0390fd5b610de4610dea91939293610228565b92610228565b91610df6838202610228565b928184041490151715610e0557565b610c47565b634e487b7160e01b5f52601260045260245ffd5b610e2a610e3091610228565b91610228565b908115610e3b570490565b610e0a565b610e4f610e5591939293610228565b92610228565b8203918211610e6057565b610c47565b5f80fd5b60e01b90565b5f910312610e7957565b61016c565b610e8790610700565b9052565b916020610eac929493610ea560408201965f830190610e7e565b019061022b565b565b610eb6610162565b3d5f823e3d90fd5b90610ec7610b9c565b5081610edb610ed55f610d37565b91610228565b1180611019575b610eeb90610dac565b610f54610f4d610f15610f05610eff610bc6565b86610dd5565b610f0f6004610bb9565b90610e1e565b93610f3e81610f38610f2960033390610959565b91610f3383610bb9565b610e40565b90610cb5565b610f486004610bb9565b610e40565b6004610cb5565b610f71610f6a83610f656005610bb9565b610e40565b6005610cb5565b610f9a7f0000000000000000000000000000000000000000000000000000000000000000610845565b6340c10f19338492803b1561101457610fc65f8094610fd1610fba610162565b97889687958694610e69565b845260048401610e8b565b03925af1801561100f57610fe3575b50565b611002905f3d8111611008575b610ffa818361039c565b810190610e6f565b5f610fe0565b503d610ff0565b610eae565b610e65565b50610eeb8261104361103d61103861103360033390610959565b610bb9565b610228565b91610228565b11159050610ee2565b906110679161106261105d82610c26565b6113ca565b611069565b565b9061107391611423565b50565b906110809161104c565b565b5f90565b61108e611082565b50611097610651565b90565b90806110b56110af6110aa6114d2565b610700565b91610700565b036110c6576110c3916114df565b50565b5f63334bd91960e11b8152806110de600482016105f1565b0390fd5b906110ec9061094d565b5f5260205260405f2090565b60ff1690565b61110a61110f91610ba0565b6110f8565b90565b61111c90546110fe565b90565b611145915f61113a61114093611133610b58565b5082610bec565b016110e2565b611112565b90565b5f7f616d740000000000000000000000000000000000000000000000000000000000910152565b61117c6003602092610412565b61118581611148565b0190565b61119e9060208101905f81830391015261116f565b90565b156111a857565b6111b0610162565b62461bcd60e51b8152806111c660048201611189565b0390fd5b906111d3610b9c565b506111f0826111ea6111e45f610d37565b91610228565b116111a1565b6111f8610bc6565b6112026004610bb9565b61121461120e5f610d37565b91610228565b148015611354575b5f146113315750815b61124d8361124761123860033390610959565b9161124283610bb9565b610c5b565b90610cb5565b61126a6112638461125e6004610bb9565b610c5b565b6004610cb5565b6112876112808261127b6005610bb9565b610c5b565b6005610cb5565b6112b07f0000000000000000000000000000000000000000000000000000000000000000610845565b90639dc29fac90339092803b1561132c576112de5f80946112e96112d2610162565b97889687958694610e69565b845260048401610e8b565b03925af18015611327576112fb575b50565b61131a905f3d8111611320575b611312818361039c565b810190610e6f565b5f6112f8565b503d611308565b610eae565b610e65565b61134e90611349846113436004610bb9565b90610dd5565b610e1e565b91611225565b50806113686113625f610d37565b91610228565b1461121c565b906113899161138461137f82610c26565b6113ca565b61138b565b565b90611395916114df565b50565b906113a29161136e565b565b6113ac610b58565b506113c66113c06301ffc9a760e01b610170565b91610170565b1490565b6113dc906113d66114d2565b906115a3565b565b906113ea60ff91610a7e565b9181191691161790565b6113fd906101bd565b90565b90565b9061141861141361141f926113f4565b611400565b82546113de565b9055565b61142b610b58565b5061144061143a82849061111f565b156101bd565b5f146114c85761146760016114625f61145a818690610bec565b0185906110e2565b611403565b906114706114d2565b906114ad6114a76114a17f2f8788117e7eff1d82e926ec794901d17c78024a50270940304540a733656f0d95610be0565b9261094d565b9261094d565b926114b6610162565b806114c0816105f1565b0390a4600190565b50505f90565b5f90565b6114da6114ce565b503390565b6114e7610b58565b506114f381839061111f565b5f1461157a576115195f6115145f61150c818690610bec565b0185906110e2565b611403565b906115226114d2565b9061155f6115596115537ff6391f5c32d9c69d2a47ea670b442974b53935d1edc7fd64eb21e047a839171b95610be0565b9261094d565b9261094d565b92611568610162565b80611572816105f1565b0390a4600190565b50505f90565b9160206115a192949361159a60408201965f830190610e7e565b0190610559565b565b906115b86115b283839061111f565b156101bd565b6115c0575050565b6115da5f92839263e2517d3f60e01b845260048401611580565b0390fdfea2646970667358221220cc596982565921d75b997615e87b57c9d52df637ea4b7194a97b010134e6e6dc64736f6c634300081e0033","linkReferences":{}},"methodIdentifiers":{"DECIMALS()":"2e0f2625","DEFAULT_ADMIN_ROLE()":"a217fddf","R()":"4980e1be","Y()":"45b3fe42","balanceOf(address)":"70a08231","decimals()":"313ce567","depositGameToken(uint256)":"299dc09f","getRoleAdmin(bytes32)":"248a9ca3","grantRole(bytes32,address)":"2f2ff15d","hasRole(bytes32,address)":"91d14854","name()":"06fdde03","renounceRole(bytes32,address)":"36568abe","revokeRole(bytes32,address)":"d547741f","stake(uint256)":"a694fc3a","supportsInterface(bytes4)":"01ffc9a7","symbol()":"95d89b41","tokenBalance()":"9e1a4d19","totalGameToken()":"024c0248","totalSupply()":"18160ddd","unstake(uint256)":"2e17de78"},"id":63}