{"abi":[{"type":"constructor","inputs":[{"name":"regAddr","type":"address","internalType":"address"}],"stateMutability":"nonpayable"},{"type":"function","name":"DEFAULT_ADMIN_ROLE","inputs":[],"outputs":[{"name":"","type":"bytes32","internalType":"bytes32"}],"stateMutability":"view"},{"type":"function","name":"ITEMS","inputs":[],"outputs":[{"name":"","type":"address","internalType":"contract IGameItems"}],"stateMutability":"view"},{"type":"function","name":"R","inputs":[],"outputs":[{"name":"","type":"address","internalType":"contract IGameRegistry"}],"stateMutability":"view"},{"type":"function","name":"claimDailyChest","inputs":[],"outputs":[],"stateMutability":"nonpayable"},{"type":"function","name":"getRoleAdmin","inputs":[{"name":"role","type":"bytes32","internalType":"bytes32"}],"outputs":[{"name":"","type":"bytes32","internalType":"bytes32"}],"stateMutability":"view"},{"type":"function","name":"grantRole","inputs":[{"name":"role","type":"bytes32","internalType":"bytes32"},{"name":"account","type":"address","internalType":"address"}],"outputs":[],"stateMutability":"nonpayable"},{"type":"function","name":"hasRole","inputs":[{"name":"role","type":"bytes32","internalType":"bytes32"},{"name":"account","type":"address","internalType":"address"}],"outputs":[{"name":"","type":"bool","internalType":"bool"}],"stateMutability":"view"},{"type":"function","name":"openChest","inputs":[{"name":"chestId","type":"uint256","internalType":"uint256"}],"outputs":[],"stateMutability":"nonpayable"},{"type":"function","name":"randomNumberCallback","inputs":[{"name":"requestId","type":"uint256","internalType":"uint256"},{"name":"randomNumber","type":"uint256","internalType":"uint256"}],"outputs":[],"stateMutability":"nonpayable"},{"type":"function","name":"renounceRole","inputs":[{"name":"role","type":"bytes32","internalType":"bytes32"},{"name":"callerConfirmation","type":"address","internalType":"address"}],"outputs":[],"stateMutability":"nonpayable"},{"type":"function","name":"revokeRole","inputs":[{"name":"role","type":"bytes32","internalType":"bytes32"},{"name":"account","type":"address","internalType":"address"}],"outputs":[],"stateMutability":"nonpayable"},{"type":"function","name":"setVrngSystem","inputs":[{"name":"vrngSystem","type":"address","internalType":"address"}],"outputs":[],"stateMutability":"nonpayable"},{"type":"function","name":"supportsInterface","inputs":[{"name":"interfaceId","type":"bytes4","internalType":"bytes4"}],"outputs":[{"name":"","type":"bool","internalType":"bool"}],"stateMutability":"view"},{"type":"function","name":"vrng","inputs":[],"outputs":[{"name":"","type":"address","internalType":"contract IVRNGSystem"}],"stateMutability":"view"},{"type":"event","name":"RandomNumberFulfilled","inputs":[{"name":"requestId","type":"uint256","indexed":true,"internalType":"uint256"},{"name":"normalizedRandomNumber","type":"uint256","indexed":false,"internalType":"uint256"}],"anonymous":false},{"type":"event","name":"RandomNumberRequested","inputs":[{"name":"requestId","type":"uint256","indexed":true,"internalType":"uint256"}],"anonymous":false},{"type":"event","name":"RoleAdminChanged","inputs":[{"name":"role","type":"bytes32","indexed":true,"internalType":"bytes32"},{"name":"previousAdminRole","type":"bytes32","indexed":true,"internalType":"bytes32"},{"name":"newAdminRole","type":"bytes32","indexed":true,"internalType":"bytes32"}],"anonymous":false},{"type":"event","name":"RoleGranted","inputs":[{"name":"role","type":"bytes32","indexed":true,"internalType":"bytes32"},{"name":"account","type":"address","indexed":true,"internalType":"address"},{"name":"sender","type":"address","indexed":true,"internalType":"address"}],"anonymous":false},{"type":"event","name":"RoleRevoked","inputs":[{"name":"role","type":"bytes32","indexed":true,"internalType":"bytes32"},{"name":"account","type":"address","indexed":true,"internalType":"address"},{"name":"sender","type":"address","indexed":true,"internalType":"address"}],"anonymous":false},{"type":"error","name":"AccessControlBadConfirmation","inputs":[]},{"type":"error","name":"AccessControlUnauthorizedAccount","inputs":[{"name":"account","type":"address","internalType":"address"},{"name":"neededRole","type":"bytes32","internalType":"bytes32"}]},{"type":"error","name":"VRNGConsumer__InvalidFulfillment","inputs":[]},{"type":"error","name":"VRNGConsumer__InvalidRequestId","inputs":[]},{"type":"error","name":"VRNGConsumer__NotInitialized","inputs":[]},{"type":"error","name":"VRNGConsumer__OnlyVRNGSystem","inputs":[]}],"bytecode":{"object":"0x610100604052346100775761001a61001561013c565b61022b565b61002261007c565b61241e611b08823960805181611894015260a051816104b3015260c05181818161038a0152818161124401526113be015260e0518181816106a801528181610da8015281816113430152612085015261241e90f35b610082565b60405190565b5f80fd5b601f801991011690565b634e487b7160e01b5f52604160045260245ffd5b906100ae90610086565b810190811060018060401b038211176100c657604052565b610090565b906100de6100d761007c565b92836100a4565b565b5f80fd5b60018060a01b031690565b6100f8906100e4565b90565b610104816100ef565b0361010b57565b5f80fd5b9050519061011c826100fb565b565b9060208282031261013757610134915f0161010f565b90565b6100e0565b61015a613f268038038061014f816100cb565b92833981019061011e565b90565b90565b61017461016f610179926100e4565b61015d565b6100e4565b90565b61018590610160565b90565b6101919061017c565b90565b61019d906100ef565b90565b6101aa9051610194565b90565b6101b690610160565b90565b6101c2906101ad565b90565b60e01b90565b5f0190565b6101d861007c565b3d5f823e3d90fd5b6101e990610160565b90565b6101f5906101e0565b90565b90565b90565b5f1b90565b61021761021261021c926101f8565b6101fe565b6101fb565b90565b6102285f610203565b90565b61023c906102376102ea565b610188565b60c05261026c602061025661025160c06101a0565b6101b9565b63d50760939061026461007c565b9384926101c5565b8252818061027c600482016101cb565b03915afa80156102e557610297915f916102b7575b506101ec565b60e0526102ac6102a561021f565b3390610479565b506102b5610ee6565b565b6102d8915060203d81116102de575b6102d081836100a4565b81019061011e565b5f610291565b503d6102c6565b6101d0565b6102f26102f4565b565b6102fc6102fe565b565b610306610308565b565b610310610312565b565b61031a61031c565b565b610326600161035d565b565b634e487b7160e01b5f52602160045260245ffd5b6003111561034657565b610328565b906103558261033c565b565b90565b90565b8061037061036a5f61034b565b9161034b565b145f146103885750610382600161035a565b6080525b565b8061039c610396600161034b565b9161034b565b145f146103b757506103ae600261035a565b6080525b610386565b6103ca6103c4600261034b565b9161034b565b146103d5575b6103b2565b6103df6003610357565b6080526103d0565b5f90565b151590565b6103f9906101fb565b90565b90610406906103f0565b5f5260205260405f2090565b61041b906101ad565b90565b9061042890610412565b5f5260205260405f2090565b9061044060ff916101fe565b9181191691161790565b610453906103eb565b90565b90565b9061046e6104696104759261044a565b610456565b8254610434565b9055565b6104816103e7565b50610496610490828490611243565b156103eb565b5f1461051e576104bd60016104b85f6104b08186906103fc565b01859061041e565b610459565b906104c6611270565b906105036104fd6104f77f2f8788117e7eff1d82e926ec794901d17c78024a50270940304540a733656f0d956103f0565b92610412565b92610412565b9261050c61007c565b80610516816101cb565b0390a4600190565b50505f90565b90565b90565b61053e61053961054392610524565b61015d565b610527565b90565b610553600560f81b61052a565b90565b90565b61056d61056861057292610556565b61015d565b610527565b90565b61057d610546565b6105876001610559565b1790565b90565b6105a261059d6105a79261058b565b61015d565b610527565b90565b6105b7600160f81b61058e565b90565b6105c26105aa565b6105cc6001610559565b1790565b90565b6105e76105e26105ec926105d0565b61015d565b610527565b90565b6105fc600160f91b6105d3565b90565b6106076105ef565b6106116001610559565b1790565b90565b63ffffffff1690565b61063561063061063a92610615565b61015d565b610618565b90565b90565b61065461064f6106599261063d565b61015d565b610618565b90565b90565b61067361066e6106789261065c565b61015d565b610618565b90565b61068560406100cb565b90565b52565b52565b90565b6106a56106a06106aa9261068e565b61015d565b610527565b90565b6106ba600560f91b610691565b90565b6106c56106ad565b6106cf6001610559565b1790565b6106e76106e26106ec92610527565b61015d565b610527565b90565b906106f9906106d3565b5f5260205260405f2090565b5190565b5490565b600190818003010490565b5f5260205f2090565b1b90565b9190600861074091029161073a5f1984610721565b92610721565b9181191691161790565b90565b919061076361075e61076b936106d3565b61074a565b908354610725565b9055565b5f90565b6107859161077f61076f565b9161074d565b565b5b818110610793575050565b806107a05f600193610773565b01610788565b1c90565b906107bd905f19906020036008026107a6565b8154169055565b90918281106107d3575b505050565b6107f16107eb6107e56107fc9561070d565b9261070d565b92610718565b918201910190610787565b5f80806107ce565b9068010000000000000000811161082d578161082261082b93610709565b908281556107c4565b565b610090565b5190565b6108409051610527565b90565b60200190565b61085282610832565b9160018060401b0383116108b35761087e6108786001926108738686610804565b610843565b92610718565b9204915f5b8381106108905750505050565b60019060206108a66108a186610836565b61074a565b9401938184015501610883565b610090565b906108c291610849565b565b5190565b5490565b60089060018203010490565b5f5260205f2090565b5b8181106108ed575050565b806108fa5f600193610773565b016108e2565b919091828210610910575b505050565b60046008610920610948956108cc565b61093261092c866108cc565b946108d8565b93840193019306025f8111610950575b506108e1565b5f808061090b565b61095d90600183036107aa565b5f610942565b9068010000000000000000811161098c578161098161098a936108c8565b90828155610900565b565b610090565b5190565b61099f9051610618565b90565b60200190565b919060086109c69102916109c063ffffffff84610721565b92610721565b9181191691161790565b90565b906109dd81610991565b9060018060401b038211610ac057610a01610a07916109fc8486610963565b6109a2565b926108d8565b60088204915f5b838110610a7757506008830290035f8111610a2a575b50505050565b925f935f5b818110610a445750505001555f808080610a24565b9091946020610a6b600192610a60610a5b8a610995565b6109d0565b9085600402906109a8565b96019101919091610a2f565b5f5f5b60088110610a915750906001918185015501610a0e565b95906020610ab7600192610aac610aa786610995565b6109d0565b908a600402906109a8565b92019601610a7a565b610090565b90610acf916109d3565b565b90610afc60206001610b0294610af45f8201610aee5f8801610705565b906108b8565b0192016108c4565b90610ac5565b565b90610b0e91610ad1565b565b90565b610b27610b22610b2c92610b10565b61015d565b610527565b90565b610b3c600b60f81b610b13565b90565b610b47610b2f565b610b516001610559565b1790565b90565b610b6c610b67610b7192610b55565b61015d565b610527565b90565b610b7c610b2f565b610b866002610b58565b1790565b90565b610ba1610b9c610ba692610b8a565b61015d565b610527565b90565b610bb6600360f81b610b8d565b90565b610bc1610ba9565b610bcb6001610559565b1790565b90565b610be6610be1610beb92610bcf565b61015d565b610618565b90565b90565b610c05610c00610c0a92610bee565b61015d565b610618565b90565b90565b610c24610c1f610c2992610c0d565b61015d565b610618565b90565b90565b610c43610c3e610c4892610c2c565b61015d565b610618565b90565b610c536106ad565b610c5d6002610b58565b1790565b90565b610c78610c73610c7d92610c61565b61015d565b610527565b90565b610c8d600360f91b610c64565b90565b610c98610c80565b610ca26001610559565b1790565b90565b610cbd610cb8610cc292610ca6565b61015d565b610527565b90565b610ccd610b2f565b610cd76003610ca9565b1790565b90565b610cf2610ced610cf792610cdb565b61015d565b610618565b90565b90565b610d11610d0c610d1692610cfa565b61015d565b610618565b90565b90565b610d30610d2b610d3592610d19565b61015d565b610618565b90565b90565b610d4f610d4a610d5492610d38565b61015d565b610618565b90565b90565b610d6e610d69610d7392610d57565b61015d565b610618565b90565b610d7e6106ad565b610d886003610ca9565b1790565b90565b610da3610d9e610da892610d8c565b61015d565b610527565b90565b610db8600760f81b610d8f565b90565b610dc3610dab565b610dcd6001610559565b1790565b90565b610de8610de3610ded92610dd1565b61015d565b610527565b90565b610dfd600160fa1b610dd4565b90565b610e08610df0565b610e126001610559565b1790565b90565b610e2d610e28610e3292610e16565b61015d565b610618565b90565b90565b610e4c610e47610e5192610e35565b61015d565b610618565b90565b90565b610e6b610e66610e7092610e54565b61015d565b610618565b90565b90565b610e8a610e85610e8f92610e73565b61015d565b610618565b90565b90565b610ea9610ea4610eae92610e92565b61015d565b610618565b90565b90565b610ec8610ec3610ecd92610eb1565b61015d565b610527565b90565b610ed86106ad565b610ee26004610eb4565b1790565b610f72610f0a610ef4610575565b610efc6105ba565b610f046105ff565b9161133e565b610f5a610f3d620dbba062017ed090610f37610f31610f2b6107d093610621565b93610640565b9161065f565b91611443565b610f51610f4861067b565b935f8501610688565b6020830161068b565b610f6d6001610f676106bd565b906106ef565b610b04565b61103d610fb0610f80610575565b610f88610b3f565b610f90610b74565b610f986105ba565b90610fa16105ff565b92610faa610bb9565b946114f5565b61102561100862082208614e2090614e2062061a806161a891611002610ffc610ff6610ff0610fea610fe46107d099610bd2565b99610bf1565b94610bf1565b94610c10565b94610c2f565b9461065f565b946115c1565b61101c61101361067b565b935f8501610688565b6020830161068b565b6110386001611032610c4b565b906106ef565b610b04565b61111e61108361104b610c90565b611053610b3f565b61105b610b74565b611063610cc5565b61106b6105ba565b916110746105ff565b9361107d610bb9565b956116ac565b6111066110e96207a120619c4090619c40611388620493e09062017318926110e36110dd6110d76110d16110cb6110c56110bf614e209b610cde565b9b610cfd565b95610cfd565b95610d1c565b95610d3b565b95610d5a565b95610bf1565b956117ab565b6110fd6110f461067b565b935f8501610688565b6020830161068b565b6111196001611113610d76565b906106ef565b610b04565b61121561116d61112c610dbb565b611134610b3f565b61113c610b74565b611144610cc5565b61114c6105ba565b906111556105ff565b9261115e610bb9565b94611167610e00565b966118c9565b6111fd6111e06207a12061ea609062013880614e20620182b8620249f091619c40936111da6111d46111ce6111c86111c26111bc6111b66111b06103e89d610cde565b9d610e19565b96610e38565b96610bf1565b96610e57565b96610e76565b96610cfd565b96610e95565b966119e8565b6111f46111eb61067b565b935f8501610688565b6020830161068b565b611210600161120a610ed0565b906106ef565b610b04565b565b5f1c90565b60ff1690565b61122e61123391611217565b61121c565b90565b6112409054611222565b90565b611269915f61125e611264936112576103e7565b50826103fc565b0161041e565b611236565b90565b5f90565b61127861126c565b503390565b606090565b60018060401b0381116112985760208091020190565b610090565b906112af6112aa83611282565b6100cb565b918252565b369037565b906112de6112c68361129d565b926020806112d48693611282565b92019103906112b4565b565b634e487b7160e01b5f52603260045260245ffd5b906112fe82610832565b81101561130f576020809102010190565b6112e0565b61132861132361132d926101f8565b61015d565b610527565b90565b9061133a90610527565b9052565b92916113976113b09261134f61127d565b5061137e6113656113606003610ca9565b6112b9565b96611379886113735f611314565b906112f4565b611330565b6113928661138c6001610559565b906112f4565b611330565b6113ab846113a56002610b58565b906112f4565b611330565b565b606090565b60018060401b0381116113cd5760208091020190565b610090565b906113e46113df836113b7565b6100cb565b918252565b369037565b906114136113fb836113d2565b9260208061140986936113b7565b92019103906113e9565b565b9061141f82610991565b811015611430576020809102010190565b6112e0565b9061143f90610618565b9052565b929161149c6114b5926114546113b2565b5061148361146a6114656003610ca9565b6113ee565b9661147e886114785f611314565b90611415565b611435565b611497866114916001610559565b90611415565b611435565b6114b0846114aa6002610b58565b90611415565b611435565b565b90565b6114ce6114c96114d3926114b7565b61015d565b610527565b90565b90565b6114ed6114e86114f2926114d6565b61015d565b610527565b90565b61153d9695936115746115a69461155b6115bf989561154261158d9661151961127d565b5061152c61152760066114ba565b6112b9565b9d8e6115375f611314565b906112f4565b611330565b6115568c6115506001610559565b906112f4565b611330565b61156f8a6115696002610b58565b906112f4565b611330565b611588886115826003610ca9565b906112f4565b611330565b6115a18661159b6004610eb4565b906112f4565b611330565b6115ba846115b460056114d9565b906112f4565b611330565b565b6116099695936116406116729461162761168b989561160e611659966115e56113b2565b506115f86115f360066114ba565b6113ee565b9d8e6116035f611314565b90611415565b611435565b6116228c61161c6001610559565b90611415565b611435565b61163b8a6116356002610b58565b90611415565b611435565b6116548861164e6003610ca9565b90611415565b611435565b61166d866116676004610eb4565b90611415565b611435565b6116868461168060056114d9565b90611415565b611435565b565b90565b6116a461169f6116a99261168d565b61015d565b610527565b90565b969594939291906116bb61127d565b5060076116c790611690565b6116d0906112b9565b97885f6116dc90611314565b6116e5916112f4565b906116ef91611330565b8760016116fb90610559565b611704916112f4565b9061170e91611330565b86600261171a90610b58565b611723916112f4565b9061172d91611330565b85600361173990610ca9565b611742916112f4565b9061174c91611330565b84600461175890610eb4565b611761916112f4565b9061176b91611330565b836005611777906114d9565b611780916112f4565b9061178a91611330565b826006611796906114ba565b61179f916112f4565b906117a991611330565b565b969594939291906117ba6113b2565b5060076117c690611690565b6117cf906113ee565b97885f6117db90611314565b6117e491611415565b906117ee91611435565b8760016117fa90610559565b61180391611415565b9061180d91611435565b86600261181990610b58565b61182291611415565b9061182c91611435565b85600361183890610ca9565b61184191611415565b9061184b91611435565b84600461185790610eb4565b61186091611415565b9061186a91611435565b836005611876906114d9565b61187f91611415565b9061188991611435565b826006611895906114ba565b61189e91611415565b906118a891611435565b565b90565b6118c16118bc6118c6926118aa565b61015d565b610527565b90565b97969594939291906118d961127d565b5060086118e5906118ad565b6118ee906112b9565b98895f6118fa90611314565b611903916112f4565b9061190d91611330565b88600161191990610559565b611922916112f4565b9061192c91611330565b87600261193890610b58565b611941916112f4565b9061194b91611330565b86600361195790610ca9565b611960916112f4565b9061196a91611330565b85600461197690610eb4565b61197f916112f4565b9061198991611330565b846005611995906114d9565b61199e916112f4565b906119a891611330565b8360066119b4906114ba565b6119bd916112f4565b906119c791611330565b8260076119d390611690565b6119dc916112f4565b906119e691611330565b565b97969594939291906119f86113b2565b506008611a04906118ad565b611a0d906113ee565b98895f611a1990611314565b611a2291611415565b90611a2c91611435565b886001611a3890610559565b611a4191611415565b90611a4b91611435565b876002611a5790610b58565b611a6091611415565b90611a6a91611435565b866003611a7690610ca9565b611a7f91611415565b90611a8991611435565b856004611a9590610eb4565b611a9e91611415565b90611aa891611435565b846005611ab4906114d9565b611abd91611415565b90611ac791611435565b836006611ad3906114ba565b611adc91611415565b90611ae691611435565b826007611af290611690565b611afb91611415565b90611b0591611435565b56fe60806040526004361015610013575b61072d565b61001d5f356100fc565b806301ffc9a7146100f7578063248a9ca3146100f25780632f107f03146100ed5780632f2ff15d146100e857806336568abe146100e35780634980e1be146100de5780636075eb7d146100d957806362138414146100d45780637373d198146100cf5780638f561acc146100ca57806391d14854146100c5578063a217fddf146100c0578063d547741f146100bb5763e2bf56f30361000e576106f8565b610672565b61063d565b6105cc565b610598565b610538565b610503565b61047e565b610405565b610345565b610311565b6102b1565b61021f565b610184565b60e01c90565b60405190565b5f80fd5b5f80fd5b63ffffffff60e01b1690565b61012581610110565b0361012c57565b5f80fd5b9050359061013d8261011c565b565b9060208282031261015857610155915f01610130565b90565b61010c565b151590565b61016b9061015d565b9052565b9190610182905f60208501940190610162565b565b346101b4576101b061019f61019a36600461013f565b610973565b6101a7610102565b9182918261016f565b0390f35b610108565b90565b6101c5816101b9565b036101cc57565b5f80fd5b905035906101dd826101bc565b565b906020828203126101f8576101f5915f016101d0565b90565b61010c565b610206906101b9565b9052565b919061021d905f602085019401906101fd565b565b3461024f5761024b61023a6102353660046101df565b6109fd565b610242610102565b9182918261020a565b0390f35b610108565b60018060a01b031690565b61026890610254565b90565b6102748161025f565b0361027b57565b5f80fd5b9050359061028c8261026b565b565b906020828203126102a7576102a4915f0161027f565b90565b61010c565b5f0190565b346102df576102c96102c436600461028e565b610a44565b6102d1610102565b806102db816102ac565b0390f35b610108565b919060408382031261030c5780610300610309925f86016101d0565b9360200161027f565b90565b61010c565b346103405761032a6103243660046102e4565b90610a79565b610332610102565b8061033c816102ac565b0390f35b610108565b346103745761035e6103583660046102e4565b90610a85565b610366610102565b80610370816102ac565b0390f35b610108565b5f91031261038357565b61010c565b7f000000000000000000000000000000000000000000000000000000000000000090565b90565b6103c36103be6103c892610254565b6103ac565b610254565b90565b6103d4906103af565b90565b6103e0906103cb565b90565b6103ec906103d7565b9052565b9190610403905f602085019401906103e3565b565b3461043557610415366004610379565b610431610420610388565b610428610102565b918291826103f0565b0390f35b610108565b90565b6104468161043a565b0361044d57565b5f80fd5b9050359061045e8261043d565b565b9060208282031261047957610476915f01610451565b90565b61010c565b346104ac57610496610491366004610460565b610d72565b61049e610102565b806104a8816102ac565b0390f35b610108565b7f000000000000000000000000000000000000000000000000000000000000000090565b6104de906103cb565b90565b6104ea906104d5565b9052565b9190610501905f602085019401906104e1565b565b3461053357610513366004610379565b61052f61051e6104b1565b610526610102565b918291826104ee565b0390f35b610108565b3461056657610548366004610379565b61055061123a565b610558610102565b80610562816102ac565b0390f35b610108565b91906040838203126105935780610587610590925f8601610451565b93602001610451565b90565b61010c565b346105c7576105b16105ab36600461056b565b90611814565b6105b9610102565b806105c3816102ac565b0390f35b610108565b346105fd576105f96105e86105e23660046102e4565b9061197b565b6105f0610102565b9182918261016f565b0390f35b610108565b90565b5f1b90565b61061e61061961062392610602565b610605565b6101b9565b90565b61062f5f61060a565b90565b61063a610626565b90565b3461066d5761064d366004610379565b610669610658610632565b610660610102565b9182918261020a565b0390f35b610108565b346106a15761068b6106853660046102e4565b906119ce565b610693610102565b8061069d816102ac565b0390f35b610108565b7f000000000000000000000000000000000000000000000000000000000000000090565b6106d3906103cb565b90565b6106df906106ca565b9052565b91906106f6905f602085019401906106d6565b565b3461072857610708366004610379565b6107246107136106a6565b61071b610102565b918291826106e3565b0390f35b610108565b5f80fd5b5f90565b90565b61074c61074761075192610735565b6103ac565b61043a565b90565b634e487b7160e01b5f52601260045260245ffd5b61077461077a9161043a565b9161043a565b908115610785570690565b610754565b90610795910361043a565b90565b90565b6107a76107ac916101b9565b610798565b9052565b90565b6107bf6107c49161043a565b6107b0565b9052565b6020816107da6107e29383969561079b565b0180926107b3565b0190565b601f801991011690565b634e487b7160e01b5f52604160045260245ffd5b9061080e906107e6565b810190811067ffffffffffffffff82111761082857604052565b6107f0565b60200190565b5190565b5f1c90565b61085061084b6108559261043a565b6103ac565b61043a565b90565b61086461086991610837565b61083c565b90565b6108c261089b6108da9361087e610731565b50610895439161088f610100610738565b90610768565b9061078a565b406108b36108a7610102565b938492602084016107c8565b60208201810382520382610804565b6108d46108ce82610833565b9161082d565b20610858565b90565b6020816108ef6108f7938396956107b3565b0180926107b3565b0190565b6109316109499261090a610731565b50610922610916610102565b938492602084016108dd565b60208201810382520382610804565b61094361093d82610833565b9161082d565b20610858565b90565b90610957910161043a565b90565b61096c91610966610731565b5061094c565b90565b5f90565b61097b61096f565b5080610996610990637965db0b60e01b610110565b91610110565b149081156109a3575b5090565b6109ad91506119da565b5f61099f565b5f90565b6109c0906101b9565b90565b906109cd906109b7565b5f5260205260405f2090565b90565b6109e86109ed91610837565b6109d9565b90565b6109fa90546109dc565b90565b6001610a15610a1b92610a0e6109b3565b505f6109c3565b016109f0565b90565b610a3790610a32610a2d610626565b611a00565b610a39565b565b610a4290611a5b565b565b610a4d90610a1e565b565b90610a6a91610a65610a60826109fd565b611a00565b610a6c565b565b90610a7691611aa9565b50565b90610a8391610a4f565b565b9080610aa0610a9a610a95611b58565b61025f565b9161025f565b03610ab157610aae91611b65565b50565b5f63334bd91960e11b815280610ac9600482016102ac565b0390fd5b90610ad79061083c565b5f5260205260405f2090565b5490565b610afb610af6610b0092610602565b6103ac565b61043a565b90565b60209181520190565b5f7f756e6b6e6f776e20636865737400000000000000000000000000000000000000910152565b610b40600d602092610b03565b610b4981610b0c565b0190565b610b629060208101905f818303910152610b33565b90565b15610b6c57565b610b74610102565b62461bcd60e51b815280610b8a60048201610b4d565b0390fd5b5f80fd5b60e01b90565b5f910312610ba257565b61010c565b610bb09061025f565b9052565b610bbd9061043a565b9052565b90565b610bd8610bd3610bdd92610bc1565b6103ac565b61043a565b90565b610be990610bc4565b9052565b604090610c16610c1d9496959396610c0c60608401985f850190610ba7565b6020830190610bb4565b0190610be0565b565b610c27610102565b3d5f823e3d90fd5b90610c42610c3b610102565b9283610804565b565b610c4e6040610c2f565b90565b90610c5b9061025f565b9052565b90610c699061043a565b9052565b90610c779061083c565b5f5260205260405f2090565b634e487b7160e01b5f525f60045260245ffd5b610ca0905161025f565b90565b90610cb460018060a01b0391610605565b9181191691161790565b610cc7906103cb565b90565b90565b90610ce2610cdd610ce992610cbe565b610cca565b8254610ca3565b9055565b610cf7905161043a565b90565b90610d065f1991610605565b9181191691161790565b90565b90610d28610d23610d2f9261083c565b610d10565b8254610cfa565b9055565b90610d5e60206001610d6494610d565f8201610d505f8801610c96565b90610ccd565b019201610ced565b90610d13565b565b90610d7091610d33565b565b610da3610d8b5f610d8560018590610acd565b01610ae3565b610d9d610d975f610ae7565b9161043a565b11610b65565b610dcc7f00000000000000000000000000000000000000000000000000000000000000006106ca565b9063f5298aca338293600192813b15610e89575f610dfd91610e088296610df1610102565b998a9788968795610b92565b855260048501610bed565b03925af1918215610e8457610e5692610e58575b50610e51610e28611c06565b610e4a3393610e41610e38610c44565b955f8701610c51565b60208501610c5f565b6002610c6d565b610d66565b565b610e77905f3d8111610e7d575b610e6f8183610804565b810190610b98565b5f610e1c565b503d610e65565b610c1f565b610b8e565b90505190610e9b8261026b565b565b90602082820312610eb657610eb3915f01610e8e565b90565b61010c565b610ec4906103af565b90565b610ed090610ebb565b90565b610edc906103cb565b90565b610ee88161015d565b03610eef57565b5f80fd5b90505190610f0082610edf565b565b61ffff1690565b610f1281610f02565b03610f1957565b5f80fd5b90505190610f2a82610f09565b565b67ffffffffffffffff1690565b610f4281610f2c565b03610f4957565b5f80fd5b90505190610f5a82610f39565b565b608081830312610f9d57610f72825f8301610ef3565b92610f9a610f838460208501610f1d565b93610f918160408601610f4d565b93606001610f4d565b90565b61010c565b9190610fb5905f60208501940190610ba7565b565b610fcb610fc6610fd092610f2c565b6103ac565b61043a565b90565b5f7f636f6f6c646f776e000000000000000000000000000000000000000000000000910152565b6110076008602092610b03565b61101081610fd3565b0190565b6110299060208101905f818303910152610ffa565b90565b1561103357565b61103b610102565b62461bcd60e51b81528061105160048201611014565b0390fd5b90565b61106c61106761107192611055565b6103ac565b610f02565b90565b90565b61108b61108661109092611074565b6103ac565b610f02565b90565b90565b6110aa6110a56110af92611093565b6103ac565b610f02565b90565b90565b6110c96110c46110ce926110b2565b6103ac565b61043a565b90565b6110de600560f91b6110b5565b90565b6110e96110d1565b6110f36001610bc4565b1790565b90565b61110e611109611113926110f7565b6103ac565b61043a565b90565b61111e6110d1565b61112860026110fa565b1790565b90565b61114361113e6111489261112c565b6103ac565b61043a565b90565b6111536110d1565b61115d600361112f565b1790565b90565b61117861117361117d92611161565b6103ac565b61043a565b90565b6111886110d1565b6111926004611164565b1790565b90565b6111ad6111a86111b292611196565b6103ac565b61043a565b90565b634e487b7160e01b5f52601160045260245ffd5b6111d86111de9193929361043a565b9261043a565b82018092116111e957565b6111b5565b6112026111fd6112079261043a565b6103ac565b610f2c565b90565b61121390610f2c565b9052565b91602061123892949361123160408201965f830190610ba7565b019061120a565b565b61127e60206112687f00000000000000000000000000000000000000000000000000000000000000006103d7565b63d4c0021290611276610102565b938492610b92565b8252818061128e600482016102ac565b03915afa9081156115fa576112b86112b36112e2936080935f916115cc575b50610ec7565b610ed3565b632f8eb9cb906112d733926112cb610102565b95869485938493610b92565b835260048301610fa2565b03915afa80156115c7575f808093915091611591575b50611318909161131161130b4292610fb7565b9161043a565b101561102c565b8061132c611326600f611058565b91610f02565b10155f14611530575061133d611180565b5b6113677f00000000000000000000000000000000000000000000000000000000000000006106ca565b9063156e29f690339092600192813b1561152b575f611399916113a4829661138d610102565b98899788968795610b92565b855260048501610bed565b03925af18015611526576114fa575b506113f860206113e27f00000000000000000000000000000000000000000000000000000000000000006103d7565b63d4c00212906113f0610102565b938492610b92565b82528180611408600482016102ac565b03915afa9081156114f55761142d91611428915f916114c7575b50610ec7565b610ed3565b63860171c33361144f61144a4261144460f0611199565b906111c9565b6111ee565b92803b156114c2576114745f809461147f611468610102565b97889687958694610b92565b845260048401611217565b03925af180156114bd57611491575b50565b6114b0905f3d81116114b6575b6114a88183610804565b810190610b98565b5f61148e565b503d61149e565b610c1f565b610b8e565b6114e8915060203d81116114ee575b6114e08183610804565b810190610e9d565b5f611422565b503d6114d6565b610c1f565b611519905f3d811161151f575b6115118183610804565b810190610b98565b5f6113b3565b503d611507565b610c1f565b610b8e565b8061154461153e600a611077565b91610f02565b10155f1461155b575061155561114b565b5b61133e565b61156e6115686005611096565b91610f02565b10155f146115845761157e611116565b5b611556565b61158c6110e1565b61157f565b61131892506115b7915060803d81116115c0575b6115af8183610804565b810190610f5c565b509250906112f8565b503d6115a5565b610c1f565b6115ed915060203d81116115f3575b6115e58183610804565b810190610e9d565b5f6112ad565b503d6115db565b610c1f565b60018060a01b031690565b61161661161b91610837565b6115ff565b90565b611628905461160a565b90565b1561163257565b5f630cd1c96b60e01b81528061164a600482016102ac565b0390fd5b906116589061083c565b5f5260205260405f2090565b60ff1690565b61167661167b91610837565b611664565b90565b611688905461166a565b90565b634e487b7160e01b5f52602160045260245ffd5b600311156116a957565b61168b565b906116b88261169f565b565b906116c4906116ae565b9052565b90565b6116d76116dc91610837565b6116c8565b90565b6116e990546116cb565b90565b6116f66040610c2f565b90565b90611730611727600161170a6116ec565b946117216117195f830161167e565b5f88016116ba565b016116df565b60208401610c5f565b565b61173b906116f9565b90565b61174890516116ae565b90565b1561175257565b5f63069c328d60e01b81528061176a600482016102ac565b0390fd5b6117786040610c2f565b90565b9061178760ff91610605565b9181191691161790565b61179a906116ae565b90565b90565b906117b56117b06117bc92611791565b61179d565b825461177b565b9055565b906117eb602060016117f1946117e35f82016117dd5f880161173e565b906117a0565b019201610ced565b90610d13565b565b906117fd916117c0565b565b9190611812905f60208501940190610bb4565b565b9061193c916118f26118bb611827611c23565b936118563361185061184a6118456118405f8b0161161e565b6104d5565b61025f565b9161025f565b1461162b565b6118926118795f61187361186e60018a01899061164e565b611732565b0161173e565b61188c61188660016116ae565b916116ae565b1461174b565b7f00000000000000000000000000000000000000000000000000000000000000009084916123a1565b926118ed60016002926118e5876118dc6118d361176e565b965f88016116ba565b60208601610c5f565b01849061164e565b6117f3565b8082906119346119227f8d0b85217819203ea5eebe89818986fc8f6db4913ede059bade4b8569caebbc99261083c565b9261192b610102565b918291826117ff565b0390a2611f6b565b565b9061194890610cbe565b5f5260205260405f2090565b60ff1690565b61196661196b91610837565b611954565b90565b611978905461195a565b90565b6119a1915f61199661199c9361198f61096f565b50826109c3565b0161193e565b61196e565b90565b906119bf916119ba6119b5826109fd565b611a00565b6119c1565b565b906119cb91611b65565b50565b906119d8916119a4565b565b6119e261096f565b506119fc6119f66301ffc9a760e01b610110565b91610110565b1490565b611a1290611a0c611b58565b90612189565b565b611a1d906103af565b90565b611a2990611a14565b90565b611a3590611a14565b90565b90565b90611a50611a4b611a5792611a2c565b611a38565b8254610ca3565b9055565b611a78905f611a71611a6b611c23565b92611a20565b9101611a3b565b565b611a839061015d565b90565b90565b90611a9e611a99611aa592611a7a565b611a86565b825461177b565b9055565b611ab161096f565b50611ac6611ac082849061197b565b1561015d565b5f14611b4e57611aed6001611ae85f611ae08186906109c3565b01859061193e565b611a89565b90611af6611b58565b90611b33611b2d611b277f2f8788117e7eff1d82e926ec794901d17c78024a50270940304540a733656f0d956109b7565b92610cbe565b92610cbe565b92611b3c610102565b80611b46816102ac565b0390a4600190565b50505f90565b5f90565b611b60611b54565b503390565b611b6d61096f565b50611b7981839061197b565b5f14611c0057611b9f5f611b9a5f611b928186906109c3565b01859061193e565b611a89565b90611ba8611b58565b90611be5611bdf611bd97ff6391f5c32d9c69d2a47ea670b442974b53935d1edc7fd64eb21e047a839171b956109b7565b92610cbe565b92610cbe565b92611bee610102565b80611bf8816102ac565b0390a4600190565b50505f90565b611c0e610731565b50611c20611c1b5f610ae7565b612217565b90565b7ffc4de942100e62e9eb61034c75124e3689e7605ae081e19c59907d5c442ea70090565b60018060a01b031690565b611c5e611c6391610837565b611c47565b90565b611c709054611c52565b90565b611c7d6040610c2f565b90565b90611cb7611cae6001611c91611c73565b94611ca8611ca05f8301611c66565b5f8801610c51565b016116df565b60208401610c5f565b565b611cc290611c80565b90565b611cd9611cd4611cde92610602565b6103ac565b610254565b90565b611cea90611cc5565b90565b5f7f496e76616c696420726571756573740000000000000000000000000000000000910152565b611d21600f602092610b03565b611d2a81611ced565b0190565b611d439060208101905f818303910152611d14565b90565b15611d4d57565b611d55610102565b62461bcd60e51b815280611d6b60048201611d2e565b0390fd5b90565b90565b611d89611d84611d8e92611d72565b6103ac565b61043a565b90565b63ffffffff1690565b611dae611da9611db392610602565b6103ac565b611d91565b90565b6001611dc2910161043a565b90565b5490565b634e487b7160e01b5f52603260045260245ffd5b5f5260205f2090565b919091611df281611dc5565b831015611e10576008611e06600492611ddd565b8185040193060290565b611dc9565b1c90565b63ffffffff1690565b611e32906008611e379302611e15565b611e19565b90565b90611e459154611e22565b90565b611e54611e5a91611d91565b91611d91565b019063ffffffff8211611e6957565b6111b5565b611e82611e7d611e8792611d91565b6103ac565b61043a565b90565b5f5260205f2090565b611e9c81610ae3565b821015611eb657611eae600191611e8a565b910201905f90565b611dc9565b611ecb906008611ed09302611e15565b6116c8565b90565b90611ede9154611ebb565b90565b1b90565b91906008611f00910291611efa5f1984611ee1565b92611ee1565b9181191691161790565b9190611f20611f1b611f289361083c565b610d10565b908354611ee5565b9055565b611f3e91611f38610731565b91611f0a565b565b5f6001611f5292828082015501611f2c565b565b905f03611f6657611f6490611f40565b565b610c83565b611f7f611f7a60028390610c6d565b611cb9565b91611faf611f8e5f8501610c96565b611fa8611fa2611f9d5f611ce1565b61025f565b9161025f565b1415611d46565b611fe4611fd1611fcc6001611fc660208801610ced565b90610acd565b611d6f565b91611fde620f4240611d75565b90610768565b92611fee5f611d9a565b93611ff85f610ae7565b946120025f610ae7565b905b8161202261201c61201760018901611dc5565b61043a565b9161043a565b101561215a576120499061204361203d600188018590611de6565b90611e3a565b90611e48565b908261205d61205784611e6e565b9161043a565b106120715761206b90611db6565b90612004565b92939495505050915b6120c86120c26120a97f00000000000000000000000000000000000000000000000000000000000000006106ca565b945f6120bb8163156e29f69701610c96565b9401611e93565b90611ed3565b92600192813b15612155575f6120f1916120fc82966120e5610102565b98899788968795610b92565b855260048501610bed565b03925af1801561215057612122925f9261211d92612124575b506002610c6d565b611f54565b565b61214390843d8111612149575b61213b8183610804565b810190610b98565b5f612115565b503d612131565b610c1f565b610b8e565b5050509092919261207a565b91602061218792949361218060408201965f830190610ba7565b01906101fd565b565b9061219e61219883839061197b565b1561015d565b6121a6575050565b6121c05f92839263e2517d3f60e01b845260048401612166565b0390fd5b905051906121d18261043d565b565b906020828203126121ec576121e9915f016121c4565b90565b61010c565b90565b156121fb57565b5f63526d8be560e11b815280612213600482016102ac565b0390fd5b61221f610731565b50612228611c23565b9061223c6122375f840161161e565b6104d5565b61225661225061224b5f611ce1565b61025f565b9161025f565b1461237157602061229c9161227461226f5f860161161e565b6104d5565b6122915f63e3914472612285610102565b96879586948593610b92565b8352600483016117ff565b03925af190811561236c576122c560016122fa936122ca935f9161233e575b509401849061164e565b6121f1565b6122f06122d85f830161167e565b6122ea6122e45f6116ae565b916116ae565b146121f4565b5f600191016117a0565b806123257f5a82a565b8cc97bc62f2041e057e918f6b3b7b4185104d7d4a52ed5c711e72329161083c565b9061232e610102565b80612338816102ac565b0390a290565b61235f915060203d8111612365575b6123578183610804565b8101906121d3565b5f6122bb565b503d61234d565b610c1f565b5f63d73bfe6760e01b815280612389600482016102ac565b0390fd5b634e487b7160e01b5f52605160045260245ffd5b919091806003146123d857806002146123c85760010361238d576123c49161095a565b905b565b506123d2916108fb565b906123c6565b506123e29161086c565b906123c656fea26469706673582212209ef3832a16804c1721a95d8761b68d979e2ac2dffff103723f7227e75bb083dd64736f6c634300081e0033","linkReferences":{}},"methodIdentifiers":{"DEFAULT_ADMIN_ROLE()":"a217fddf","ITEMS()":"e2bf56f3","R()":"4980e1be","claimDailyChest()":"7373d198","getRoleAdmin(bytes32)":"248a9ca3","grantRole(bytes32,address)":"2f2ff15d","hasRole(bytes32,address)":"91d14854","openChest(uint256)":"6075eb7d","randomNumberCallback(uint256,uint256)":"8f561acc","renounceRole(bytes32,address)":"36568abe","revokeRole(bytes32,address)":"d547741f","setVrngSystem(address)":"2f107f03","supportsInterface(bytes4)":"01ffc9a7","vrng()":"62138414"},"id":64}