{"abi":[{"type":"constructor","inputs":[{"name":"regAddr","type":"address","internalType":"address"}],"stateMutability":"nonpayable"},{"type":"function","name":"DEFAULT_ADMIN_ROLE","inputs":[],"outputs":[{"name":"","type":"bytes32","internalType":"bytes32"}],"stateMutability":"view"},{"type":"function","name":"GAME_TOKEN","inputs":[],"outputs":[{"name":"","type":"address","internalType":"contract IGameToken"}],"stateMutability":"view"},{"type":"function","name":"ITEMS","inputs":[],"outputs":[{"name":"","type":"address","internalType":"contract IGameItems"}],"stateMutability":"view"},{"type":"function","name":"R","inputs":[],"outputs":[{"name":"","type":"address","internalType":"contract IGameRegistry"}],"stateMutability":"view"},{"type":"function","name":"count","inputs":[{"name":"","type":"address","internalType":"address"}],"outputs":[{"name":"","type":"uint8","internalType":"uint8"}],"stateMutability":"view"},{"type":"function","name":"crops","inputs":[{"name":"","type":"address","internalType":"address"},{"name":"","type":"uint8","internalType":"uint8"}],"outputs":[{"name":"seedId","type":"uint256","internalType":"uint256"},{"name":"endTime","type":"uint64","internalType":"uint64"}],"stateMutability":"view"},{"type":"function","name":"getGrowthTime","inputs":[{"name":"seedId","type":"uint256","internalType":"uint256"}],"outputs":[{"name":"","type":"uint32","internalType":"uint32"}],"stateMutability":"view"},{"type":"function","name":"getMaxPlots","inputs":[{"name":"user","type":"address","internalType":"address"}],"outputs":[{"name":"","type":"uint8","internalType":"uint8"}],"stateMutability":"view"},{"type":"function","name":"getRoleAdmin","inputs":[{"name":"role","type":"bytes32","internalType":"bytes32"}],"outputs":[{"name":"","type":"bytes32","internalType":"bytes32"}],"stateMutability":"view"},{"type":"function","name":"getUserCrops","inputs":[{"name":"user","type":"address","internalType":"address"}],"outputs":[{"name":"","type":"tuple[]","internalType":"struct Farming.Crop[]","components":[{"name":"seedId","type":"uint256","internalType":"uint256"},{"name":"endTime","type":"uint64","internalType":"uint64"}]}],"stateMutability":"view"},{"type":"function","name":"grantRole","inputs":[{"name":"role","type":"bytes32","internalType":"bytes32"},{"name":"account","type":"address","internalType":"address"}],"outputs":[],"stateMutability":"nonpayable"},{"type":"function","name":"harvest","inputs":[{"name":"slot","type":"uint8","internalType":"uint8"}],"outputs":[],"stateMutability":"nonpayable"},{"type":"function","name":"harvestAll","inputs":[],"outputs":[],"stateMutability":"nonpayable"},{"type":"function","name":"harvestMany","inputs":[{"name":"slots","type":"uint8[]","internalType":"uint8[]"}],"outputs":[],"stateMutability":"nonpayable"},{"type":"function","name":"hasRole","inputs":[{"name":"role","type":"bytes32","internalType":"bytes32"},{"name":"account","type":"address","internalType":"address"}],"outputs":[{"name":"","type":"bool","internalType":"bool"}],"stateMutability":"view"},{"type":"function","name":"plant","inputs":[{"name":"seedId","type":"uint256","internalType":"uint256"},{"name":"plotNumber","type":"uint8","internalType":"uint8"}],"outputs":[],"stateMutability":"nonpayable"},{"type":"function","name":"plantBatch","inputs":[{"name":"seedIds","type":"uint256[]","internalType":"uint256[]"},{"name":"plotNumbers","type":"uint8[]","internalType":"uint8[]"}],"outputs":[],"stateMutability":"nonpayable"},{"type":"function","name":"renounceRole","inputs":[{"name":"role","type":"bytes32","internalType":"bytes32"},{"name":"callerConfirmation","type":"address","internalType":"address"}],"outputs":[],"stateMutability":"nonpayable"},{"type":"function","name":"revokeRole","inputs":[{"name":"role","type":"bytes32","internalType":"bytes32"},{"name":"account","type":"address","internalType":"address"}],"outputs":[],"stateMutability":"nonpayable"},{"type":"function","name":"sage","inputs":[],"outputs":[{"name":"","type":"address","internalType":"contract ISage"}],"stateMutability":"view"},{"type":"function","name":"setSage","inputs":[{"name":"sageAddr","type":"address","internalType":"address"}],"outputs":[],"stateMutability":"nonpayable"},{"type":"function","name":"supportsInterface","inputs":[{"name":"interfaceId","type":"bytes4","internalType":"bytes4"}],"outputs":[{"name":"","type":"bool","internalType":"bool"}],"stateMutability":"view"},{"type":"function","name":"tCommon","inputs":[],"outputs":[{"name":"","type":"uint32","internalType":"uint32"}],"stateMutability":"view"},{"type":"function","name":"tEpic","inputs":[],"outputs":[{"name":"","type":"uint32","internalType":"uint32"}],"stateMutability":"view"},{"type":"function","name":"tLegendary","inputs":[],"outputs":[{"name":"","type":"uint32","internalType":"uint32"}],"stateMutability":"view"},{"type":"function","name":"tRare","inputs":[],"outputs":[{"name":"","type":"uint32","internalType":"uint32"}],"stateMutability":"view"},{"type":"function","name":"tUncommon","inputs":[],"outputs":[{"name":"","type":"uint32","internalType":"uint32"}],"stateMutability":"view"},{"type":"event","name":"RoleAdminChanged","inputs":[{"name":"role","type":"bytes32","indexed":true,"internalType":"bytes32"},{"name":"previousAdminRole","type":"bytes32","indexed":true,"internalType":"bytes32"},{"name":"newAdminRole","type":"bytes32","indexed":true,"internalType":"bytes32"}],"anonymous":false},{"type":"event","name":"RoleGranted","inputs":[{"name":"role","type":"bytes32","indexed":true,"internalType":"bytes32"},{"name":"account","type":"address","indexed":true,"internalType":"address"},{"name":"sender","type":"address","indexed":true,"internalType":"address"}],"anonymous":false},{"type":"event","name":"RoleRevoked","inputs":[{"name":"role","type":"bytes32","indexed":true,"internalType":"bytes32"},{"name":"account","type":"address","indexed":true,"internalType":"address"},{"name":"sender","type":"address","indexed":true,"internalType":"address"}],"anonymous":false},{"type":"error","name":"AccessControlBadConfirmation","inputs":[]},{"type":"error","name":"AccessControlUnauthorizedAccount","inputs":[{"name":"account","type":"address","internalType":"address"},{"name":"neededRole","type":"bytes32","internalType":"bytes32"}]}],"bytecode":{"object":"0x60e06040523461009057610019610014610155565b61043a565b610021610095565b6143cb61074982396080518181816109a8015281816116e5015281816118e301528181612209015281816125e20152612736015260a051818181610ee301528181611bc10152818161239e0152612862015260c051818181610ab3015281816118350152611a1301526143cb90f35b61009b565b60405190565b5f80fd5b601f801991011690565b634e487b7160e01b5f52604160045260245ffd5b906100c79061009f565b810190811060018060401b038211176100df57604052565b6100a9565b906100f76100f0610095565b92836100bd565b565b5f80fd5b60018060a01b031690565b610111906100fd565b90565b61011d81610108565b0361012457565b5f80fd5b9050519061013582610114565b565b906020828203126101505761014d915f01610128565b90565b6100f9565b610173614b1480380380610168816100e4565b928339810190610137565b90565b5f1b90565b9061018a63ffffffff91610176565b9181191691161790565b90565b63ffffffff1690565b90565b6101b76101b26101bc92610194565b6101a0565b610197565b90565b90565b906101d76101d26101de926101a3565b6101bf565b825461017b565b9055565b60201b90565b906101fb67ffffffff00000000916101e2565b9181191691161790565b90565b61021c61021761022192610205565b6101a0565b610197565b90565b9061023961023461024092610208565b6101bf565b82546101e8565b9055565b60401b90565b906102616bffffffff000000000000000091610244565b9181191691161790565b90565b61028261027d6102879261026b565b6101a0565b610197565b90565b9061029f61029a6102a69261026e565b6101bf565b825461024a565b9055565b60601b90565b906102cb6fffffffff000000000000000000000000916102aa565b9181191691161790565b90565b6102ec6102e76102f1926102d5565b6101a0565b610197565b90565b90610309610304610310926102d8565b6101bf565b82546102b0565b9055565b60801b90565b9061032c63ffffffff60801b91610314565b9181191691161790565b90565b61034d61034861035292610336565b6101a0565b610197565b90565b9061036a61036561037192610339565b6101bf565b825461031a565b9055565b61038961038461038e926100fd565b6101a0565b6100fd565b90565b61039a90610375565b90565b6103a690610391565b90565b6103b290610375565b90565b6103be906103a9565b90565b60e01b90565b5f0190565b6103d4610095565b3d5f823e3d90fd5b6103e590610375565b90565b6103f1906103dc565b90565b6103fd90610375565b90565b610409906103f4565b90565b90565b90565b61042661042161042b9261040c565b610176565b61040f565b90565b6104375f610412565b90565b6104829061044a607860046101c2565b61045660b46004610224565b61046361012c600461028a565b6104706101a460046102f4565b61047d6102586004610355565b61039d565b806080526104aa6020610494836103b5565b63d5076093906104a2610095565b9384926103c1565b825281806104ba600482016103c7565b03915afa80156105a0576104fd926104df6104e7926020945f91610573575b506103e8565b60a0526103b5565b63c3dfdae6906104f5610095565b9384926103c1565b8252818061050d600482016103c7565b03915afa801561056e57610528915f91610540575b50610400565b60c05261053d61053661042e565b3390610637565b50565b610561915060203d8111610567575b61055981836100bd565b810190610137565b5f610522565b503d61054f565b6103cc565b6105939150853d8111610599575b61058b81836100bd565b810190610137565b5f6104d9565b503d610581565b6103cc565b5f90565b151590565b6105b79061040f565b90565b906105c4906105ae565b5f5260205260405f2090565b6105d9906103a9565b90565b906105e6906105d0565b5f5260205260405f2090565b906105fe60ff91610176565b9181191691161790565b610611906105a9565b90565b90565b9061062c61062761063392610608565b610614565b82546105f2565b9055565b61063f6105a5565b5061065461064e82849061070e565b156105a9565b5f146106dc5761067b60016106765f61066e8186906105ba565b0185906105dc565b610617565b9061068461073b565b906106c16106bb6106b57f2f8788117e7eff1d82e926ec794901d17c78024a50270940304540a733656f0d956105ae565b926105d0565b926105d0565b926106ca610095565b806106d4816103c7565b0390a4600190565b50505f90565b5f1c90565b60ff1690565b6106f96106fe916106e2565b6106e7565b90565b61070b90546106ed565b90565b610734915f61072961072f936107226105a5565b50826105ba565b016105dc565b610701565b90565b5f90565b610743610737565b50339056fe60806040526004361015610013575b610fd2565b61001d5f356101cc565b806301ffc9a7146101c757806305d85eda146101c25780630bd49c58146101bd57806315146d13146101b8578063248a9ca3146101b35780632f2ff15d146101ae57806331170891146101a9578063353400c9146101a457806336568abe1461019f5780633c968b7a1461019a5780633cb73e14146101955780634980e1be1461019057806367fed5201461018b5780637690292f1461018657806386563528146101815780638c4d2b9e1461017c5780638ed955b91461017757806391d14854146101725780639e3c36f71461016d578063a217fddf14610168578063a70c79af14610163578063b2bf72371461015e578063c27c0b8714610159578063ce3ed3e914610154578063d547741f1461014f578063e2bf56f31461014a5763f40219bc0361000e57610f9e565b610f33565b610ead565b610e78565b610e25565b610d22565b610ced565b610ca8565b610c38565b610bf2565b610bbf565b610b8a565b610b46565b610b03565b610a7d565b6109f8565b610971565b6108d2565b61089e565b610867565b6106e8565b6105cb565b610569565b6104d0565b610455565b6103a3565b610258565b60e01c90565b60405190565b5f80fd5b5f80fd5b5f80fd5b63ffffffff60e01b1690565b6101f9816101e4565b0361020057565b5f80fd5b90503590610211826101f0565b565b9060208282031261022c57610229915f01610204565b90565b6101dc565b151590565b61023f90610231565b9052565b9190610256905f60208501940190610236565b565b346102885761028461027361026e366004610213565b610fda565b61027b6101d2565b91829182610243565b0390f35b6101d8565b60018060a01b031690565b6102a19061028d565b90565b6102ad81610298565b036102b457565b5f80fd5b905035906102c5826102a4565b565b906020828203126102e0576102dd915f016102b8565b90565b6101dc565b90565b6102fc6102f76103019261028d565b6102e5565b61028d565b90565b61030d906102e8565b90565b61031990610304565b90565b9061032690610310565b5f5260205260405f2090565b1c90565b60ff1690565b61034c9060086103519302610332565b610336565b90565b9061035f915461033c565b90565b610378906103736003915f9261031c565b610354565b90565b60ff1690565b61038a9061037b565b9052565b91906103a1905f60208501940190610381565b565b346103d3576103cf6103be6103b93660046102c7565b610362565b6103c66101d2565b9182918261038e565b0390f35b6101d8565b5f9103126103e257565b6101dc565b60018060a01b031690565b6104029060086104079302610332565b6103e7565b90565b9061041591546103f2565b90565b61042460015f9061040a565b90565b61043090610304565b90565b61043c90610427565b9052565b9190610453905f60208501940190610433565b565b34610485576104653660046103d8565b610481610470610418565b6104786101d2565b91829182610440565b0390f35b6101d8565b6104938161037b565b0361049a57565b5f80fd5b905035906104ab8261048a565b565b906020828203126104c6576104c3915f0161049e565b90565b6101dc565b5f0190565b346104fe576104e86104e33660046104ad565b61164b565b6104f06101d2565b806104fa816104cb565b0390f35b6101d8565b90565b61050f81610503565b0361051657565b5f80fd5b9050359061052782610506565b565b906020828203126105425761053f915f0161051a565b90565b6101dc565b61055090610503565b9052565b9190610567905f60208501940190610547565b565b346105995761059561058461057f366004610529565b611d49565b61058c6101d2565b91829182610554565b0390f35b6101d8565b91906040838203126105c657806105ba6105c3925f860161051a565b936020016102b8565b90565b6101dc565b346105fa576105e46105de36600461059e565b90611d94565b6105ec6101d2565b806105f6816104cb565b0390f35b6101d8565b5f80fd5b5f80fd5b5f80fd5b909182601f830112156106455781359167ffffffffffffffff831161064057602001926020830284011161063b57565b610607565b610603565b6105ff565b909182601f830112156106845781359167ffffffffffffffff831161067f57602001926020830284011161067a57565b610607565b610603565b6105ff565b90916040828403126106e3575f82013567ffffffffffffffff81116106de57836106b491840161060b565b929093602082013567ffffffffffffffff81116106d9576106d5920161064a565b9091565b6101e0565b6101e0565b6101dc565b3461071a576107046106fb366004610689565b929190916121cb565b61070c6101d2565b80610716816104cb565b0390f35b6101d8565b9190604083820312610747578061073b610744925f86016102b8565b9360200161049e565b90565b6101dc565b9061075690610310565b5f5260205260405f2090565b61077661077161077b9261037b565b6102e5565b61037b565b90565b9061078890610762565b5f5260205260405f2090565b5f1c90565b90565b6107a86107ad91610794565b610799565b90565b6107ba905461079c565b90565b67ffffffffffffffff1690565b6107d66107db91610794565b6107bd565b90565b6107e890546107ca565b90565b906107fa6107ff92600261074c565b61077e565b9061081760016108105f85016107b0565b93016107de565b90565b90565b6108269061081a565b9052565b67ffffffffffffffff1690565b6108409061082a565b9052565b91602061086592949361085e60408201965f83019061081d565b0190610837565b565b346108995761088061087a36600461071f565b906107eb565b9061089561088c6101d2565b92839283610844565b0390f35b6101d8565b346108cd576108b76108b136600461059e565b90612583565b6108bf6101d2565b806108c9816104cb565b0390f35b6101d8565b34610902576108fe6108ed6108e83660046102c7565b6125cf565b6108f56101d2565b9182918261038e565b0390f35b6101d8565b63ffffffff1690565b6109209060086109259302610332565b610907565b90565b906109339154610910565b90565b6109436004600c90610928565b90565b63ffffffff1690565b61095890610946565b9052565b919061096f905f6020850194019061094f565b565b346109a1576109813660046103d8565b61099d61098c610936565b6109946101d2565b9182918261095c565b0390f35b6101d8565b7f000000000000000000000000000000000000000000000000000000000000000090565b6109d390610304565b90565b6109df906109ca565b9052565b91906109f6905f602085019401906109d6565b565b34610a2857610a083660046103d8565b610a24610a136109a6565b610a1b6101d2565b918291826109e3565b0390f35b6101d8565b610a368161081a565b03610a3d57565b5f80fd5b90503590610a4e82610a2d565b565b9190604083820312610a785780610a6c610a75925f8601610a41565b9360200161049e565b90565b6101dc565b34610aac57610a96610a90366004610a50565b9061271b565b610a9e6101d2565b80610aa8816104cb565b0390f35b6101d8565b7f000000000000000000000000000000000000000000000000000000000000000090565b610ade90610304565b90565b610aea90610ad5565b9052565b9190610b01905f60208501940190610ae1565b565b34610b3357610b133660046103d8565b610b2f610b1e610ab1565b610b266101d2565b91829182610aee565b0390f35b6101d8565b610b43600480610928565b90565b34610b7657610b563660046103d8565b610b72610b61610b38565b610b696101d2565b9182918261095c565b0390f35b6101d8565b610b8760045f90610928565b90565b34610bba57610b9a3660046103d8565b610bb6610ba5610b7b565b610bad6101d2565b9182918261095c565b0390f35b6101d8565b34610bed57610bcf3660046103d8565b610bd7612b13565b610bdf6101d2565b80610be9816104cb565b0390f35b6101d8565b34610c2357610c1f610c0e610c0836600461059e565b90612c52565b610c166101d2565b91829182610243565b0390f35b6101d8565b610c356004601090610928565b90565b34610c6857610c483660046103d8565b610c64610c53610c28565b610c5b6101d2565b9182918261095c565b0390f35b6101d8565b90565b5f1b90565b610c89610c84610c8e92610c6d565b610c70565b610503565b90565b610c9a5f610c75565b90565b610ca5610c91565b90565b34610cd857610cb83660046103d8565b610cd4610cc3610c9d565b610ccb6101d2565b91829182610554565b0390f35b6101d8565b610cea6004600890610928565b90565b34610d1d57610cfd3660046103d8565b610d19610d08610cdd565b610d106101d2565b9182918261095c565b0390f35b6101d8565b34610d5057610d3a610d353660046102c7565b612d0d565b610d426101d2565b80610d4c816104cb565b0390f35b6101d8565b5190565b60209181520190565b60200190565b610d719061081a565b9052565b610d7e9061082a565b9052565b90602080610da493610d9a5f8201515f860190610d68565b0151910190610d75565b565b90610db381604093610d82565b0190565b60200190565b90610dda610dd4610dcd84610d55565b8093610d59565b92610d62565b905f5b818110610dea5750505090565b909192610e03610dfd6001928651610da6565b94610db7565b9101919091610ddd565b610e229160208201915f818403910152610dbd565b90565b34610e5557610e51610e40610e3b3660046102c7565b612e1f565b610e486101d2565b91829182610e0d565b0390f35b6101d8565b90602082820312610e7357610e70915f01610a41565b90565b6101dc565b34610ea857610ea4610e93610e8e366004610e5a565b612ed4565b610e9b6101d2565b9182918261095c565b0390f35b6101d8565b34610edc57610ec6610ec036600461059e565b90612f13565b610ece6101d2565b80610ed8816104cb565b0390f35b6101d8565b7f000000000000000000000000000000000000000000000000000000000000000090565b610f0e90610304565b90565b610f1a90610f05565b9052565b9190610f31905f60208501940190610f11565b565b34610f6357610f433660046103d8565b610f5f610f4e610ee1565b610f566101d2565b91829182610f1e565b0390f35b6101d8565b90602082820312610f99575f82013567ffffffffffffffff8111610f9457610f90920161064a565b9091565b6101e0565b6101dc565b34610fcd57610fb7610fb1366004610f68565b90612f1f565b610fbf6101d2565b80610fc9816104cb565b0390f35b6101d8565b5f80fd5b5f90565b610fe2610fd6565b5080610ffd610ff7637965db0b60e01b6101e4565b916101e4565b1490811561100a575b5090565b6110149150613001565b5f611006565b906110249061081a565b9052565b906110329061082a565b9052565b601f801991011690565b634e487b7160e01b5f52604160045260245ffd5b9061105e90611036565b810190811067ffffffffffffffff82111761107857604052565b611040565b906110906110896101d2565b9283611054565b565b61109c604061107d565b90565b906110d66110cd60016110b0611092565b946110c76110bf5f83016107b0565b5f880161101a565b016107de565b60208401611028565b565b6110e19061109f565b90565b6110ee905161081a565b90565b61110561110061110a92610c6d565b6102e5565b61081a565b90565b611117905161082a565b90565b61112e6111296111339261082a565b6102e5565b61081a565b90565b60209181520190565b5f7f6e6f742072656164790000000000000000000000000000000000000000000000910152565b6111736009602092611136565b61117c8161113f565b0190565b6111959060208101905f818303910152611166565b90565b1561119f57565b6111a76101d2565b62461bcd60e51b8152806111bd60048201611180565b0390fd5b1b90565b919060086111e09102916111da5f19846111c1565b926111c1565b9181191691161790565b6111fe6111f96112039261081a565b6102e5565b61081a565b90565b90565b919061121f61121a611227936111ea565b611206565b9083546111c5565b9055565b5f90565b6112419161123b61122b565b91611209565b565b60015f916112538380830161122f565b0155565b634e487b7160e01b5f525f60045260245ffd5b905f0361127c5761127a90611243565b565b611257565b61128d61129291610794565b610336565b90565b61129f9054611281565b90565b634e487b7160e01b5f52601160045260245ffd5b6112bf9061037b565b5f81146112cd576001900390565b6112a2565b906112de60ff91610c70565b9181191691161790565b90565b906113006112fb61130792610762565b6112e8565b82546112d2565b9055565b5f80fd5b60e01b90565b90505190611322826102a4565b565b9060208282031261133d5761133a915f01611315565b90565b6101dc565b61134a6101d2565b3d5f823e3d90fd5b61135b906102e8565b90565b61136790611352565b90565b61137390610304565b90565b61137f81610231565b0361138657565b5f80fd5b9050519061139782611376565b565b61ffff1690565b6113a981611399565b036113b057565b5f80fd5b905051906113c1826113a0565b565b6113cc8161082a565b036113d357565b5f80fd5b905051906113e4826113c3565b565b608081830312611427576113fc825f830161138a565b9261142461140d84602085016113b4565b9361141b81604086016113d7565b936060016113d7565b90565b6101dc565b61143590610298565b9052565b919061144c905f6020850194019061142c565b565b61145d6114639193929361081a565b9261081a565b9161146f83820261081a565b92818404149015171561147e57565b6112a2565b90565b61149a61149561149f92611483565b6102e5565b61081a565b90565b634e487b7160e01b5f52601260045260245ffd5b6114c26114c89161081a565b9161081a565b9081156114d3570490565b6114a2565b90565b6114ef6114ea6114f4926114d8565b6102e5565b61037b565b90565b6115169061151061150a61151b9461037b565b9161081a565b90610332565b61081a565b90565b90565b61153561153061153a9261151e565b6102e5565b61081a565b90565b61154a600160f81b611521565b90565b5f91031261155757565b6101dc565b90565b61157361156e6115789261155c565b6102e5565b61081a565b90565b6115849061155f565b9052565b6040906115b16115b894969593966115a760608401985f85019061142c565b602083019061081d565b019061157b565b565b9160206115db9294936115d460408201965f83019061142c565b019061081d565b565b6115e96115ee91610794565b6103e7565b90565b6115fb90546115dd565b90565b61161261160d61161792610c6d565b6102e5565b61028d565b90565b611623906115fe565b90565b61163561163b9193929361081a565b9261081a565b820180921161164657565b6112a2565b6116b55f6116b061167061166b6116646002339061074c565b869061077e565b6110d8565b9361167c8386016110e4565b61168e611688856110f1565b9161081a565b141580611cd4575b61169f90611198565b6116ab6002339061074c565b61077e565b61126a565b6116db6116c46003339061031c565b6116d56116d082611295565b6112b6565b906112eb565b61171f60206117097f00000000000000000000000000000000000000000000000000000000000000006109ca565b63d4c00212906117176101d2565b93849261130f565b8252818061172f600482016104cb565b03915afa908115611ccf57611759611754611783936080935f91611ca1575b5061135e565b61136a565b632f8eb9cb90611778339261176c6101d2565b9586948593849361130f565b835260048301611439565b03915afa8015611c9c576117b36117cb916117dc935f80929050611c6c575b506117ae5f86016110e4565b6130c2565b6117c66117c15f86016110e4565b613344565b61144e565b6117d66103e8611486565b906114b6565b9081906117fd6117ed5f83016110e4565b6117f760f86114db565b906114f7565b61182961182361181e61180e61153d565b61181860f86114db565b906114f7565b61081a565b9161081a565b03611ba9575b506118597f0000000000000000000000000000000000000000000000000000000000000000610ad5565b6340c10f19338492803b15611ba4576118855f80946118906118796101d2565b9788968795869461130f565b8452600484016115ba565b03925af18015611b9f57611b73575b506118b26118ad60016115f1565b610427565b6118cc6118c66118c15f61161a565b610298565b91610298565b141580611b59575b611a0e575b61191d60206119077f00000000000000000000000000000000000000000000000000000000000000006109ca565b63d4c00212906119156101d2565b93849261130f565b8252818061192d600482016104cb565b03915afa908115611a09576119529161194d915f916119db575b5061135e565b61136a565b9161196363c3a0ef89923392611626565b92803b156119d6576119885f809461199361197c6101d2565b9788968795869461130f565b8452600484016115ba565b03925af180156119d1576119a5575b50565b6119c4905f3d81116119ca575b6119bc8183611054565b81019061154d565b5f6119a2565b503d6119b2565b611342565b61130b565b6119fc915060203d8111611a02575b6119f48183611054565b810190611324565b5f611947565b503d6119ea565b611342565b611a377f0000000000000000000000000000000000000000000000000000000000000000610ad5565b6340c10f19611a4e611a4960016115f1565b610427565b8392803b15611b5457611a745f8094611a7f611a686101d2565b9788968795869461130f565b8452600484016115ba565b03925af18015611b4f57611b23575b50611aa1611a9c60016115f1565b610427565b632a6736ed338392803b15611b1e57611acd5f8094611ad8611ac16101d2565b9788968795869461130f565b8452600484016115ba565b03925af18015611b1957611aed575b506118d9565b611b0c905f3d8111611b12575b611b048183611054565b81019061154d565b5f611ae7565b503d611afa565b611342565b61130b565b611b42905f3d8111611b48575b611b3a8183611054565b81019061154d565b5f611a8e565b503d611b30565b611342565b61130b565b5080611b6d611b675f6110f1565b9161081a565b116118d4565b611b92905f3d8111611b98575b611b8a8183611054565b81019061154d565b5f61189f565b503d611b80565b611342565b61130b565b611bb75f611bbc92016110e4565b613529565b611be57f0000000000000000000000000000000000000000000000000000000000000000610f05565b9063156e29f690339092600192813b15611c67575f611c1791611c228296611c0b6101d2565b9889978896879561130f565b855260048501611588565b03925af18015611c6257611c36575b61182f565b611c55905f3d8111611c5b575b611c4d8183611054565b81019061154d565b5f611c31565b503d611c43565b611342565b61130b565b611c8d915060803d8111611c95575b611c858183611054565b8101906113e6565b5050906117a2565b503d611c7b565b611342565b611cc2915060203d8111611cc8575b611cba8183611054565b810190611324565b5f61174e565b503d611cb0565b611342565b5061169f42611cf6611cf0611ceb60208a0161110d565b61111a565b9161081a565b10159050611696565b5f90565b611d0c90610503565b90565b90611d1990611d03565b5f5260205260405f2090565b90565b611d34611d3991610794565b611d25565b90565b611d469054611d28565b90565b6001611d61611d6792611d5a611cff565b505f611d0f565b01611d3c565b90565b90611d8591611d80611d7b82611d49565b61361f565b611d87565b565b90611d9191613662565b50565b90611d9e91611d6a565b565b5090565b5090565b5f7f617272617973206c656e677468206d69736d6174636800000000000000000000910152565b611ddc6016602092611136565b611de581611da8565b0190565b611dfe9060208101905f818303910152611dcf565b90565b15611e0857565b611e106101d2565b62461bcd60e51b815280611e2660048201611de9565b0390fd5b90565b611e41611e3c611e4692611e2a565b6102e5565b611399565b90565b611e55611e5b91611399565b91611399565b019061ffff8211611e6857565b6112a2565b611e81611e7c611e8692611399565b6102e5565b61037b565b90565b6001611e95910161081a565b90565b634e487b7160e01b5f52603260045260245ffd5b9190811015611ebc576020020190565b611e98565b35611ecb81610a2d565b90565b9190811015611ede576020020190565b611e98565b35611eed8161048a565b90565b5f7f6e6f742073656564000000000000000000000000000000000000000000000000910152565b611f246008602092611136565b611f2d81611ef0565b0190565b611f469060208101905f818303910152611f17565b90565b15611f5057565b611f586101d2565b62461bcd60e51b815280611f6e60048201611f31565b0390fd5b5f7f706c6f74206e756d6265722065786365656473206d617820706c6f7473000000910152565b611fa6601d602092611136565b611faf81611f72565b0190565b611fc89060208101905f818303910152611f99565b90565b15611fd257565b611fda6101d2565b62461bcd60e51b815280611ff060048201611fb3565b0390fd5b5f7f706c6f7420616c7265616479206f636375706965640000000000000000000000910152565b6120286015602092611136565b61203181611ff4565b0190565b61204a9060208101905f81830391015261201b565b90565b1561205457565b61205c6101d2565b62461bcd60e51b81528061207260048201612035565b0390fd5b61208a61208561208f92610946565b6102e5565b61081a565b90565b6120a66120a16120ab9261081a565b6102e5565b61082a565b90565b6120b8604061107d565b90565b906120c75f1991610c70565b9181191691161790565b906120e66120e16120ed926111ea565b611206565b82546120bb565b9055565b9061210467ffffffffffffffff91610c70565b9181191691161790565b61212261211d6121279261082a565b6102e5565b61082a565b90565b90565b9061214261213d6121499261210e565b61212a565b82546120f1565b9055565b906121786020600161217e946121705f820161216a5f88016110e4565b906120d1565b01920161110d565b9061212d565b565b9061218a9161214d565b565b6121a061219b6121a59261155c565b6102e5565b61037b565b90565b6121b46121ba9161037b565b9161037b565b019060ff82116121c657565b6112a2565b919392906121ff6121dd848390611da0565b6121f96121f36121ee898790611da4565b61081a565b9161081a565b14611e01565b612243602061222d7f00000000000000000000000000000000000000000000000000000000000000006109ca565b63d4c002129061223b6101d2565b93849261130f565b82528180612253600482016104cb565b03915afa90811561257e5761227d6122786122a7936080935f91612550575b5061135e565b61136a565b632f8eb9cb9061229c33926122906101d2565b9586948593849361130f565b835260048301611439565b03915afa90811561254b576122da916122d5915f8092905061251b575b506122cf600f611e2d565b90611e49565b611e6d565b926122e45f6110f1565b5b806123026122fc6122f7858790611da0565b61081a565b9161081a565b10156125125761231c61231783858491611eac565b611ec1565b9061233161232c89878491611ece565b611ee3565b61234261233d8461370d565b611f49565b61235e816123586123528a61037b565b9161037b565b10611fcb565b6123996123815f61237b6123746002339061074c565b859061077e565b016107b0565b61239361238d5f6110f1565b9161081a565b1461204d565b6123c27f0000000000000000000000000000000000000000000000000000000000000000610f05565b9263f5298aca338295600192813b1561250d575f6123f3916123fe82966123e76101d2565b9b8c978896879561130f565b855260048501611588565b03925af1908115612508576124a994612476926124dc575b5061245b61243e6124398361243361242e42926138cc565b612076565b90611626565b612092565b6124526124496120ae565b935f850161101a565b60208301611028565b61247161246a6002339061074c565b849061077e565b612180565b8061249c61249661249161248c6003339061031c565b611295565b61037b565b9161037b565b10156124ae575b50611e89565b6122e5565b6124c56124d6916124bf600161218c565b906121a8565b6124d16003339061031c565b6112eb565b5f6124a3565b6124fb905f3d8111612501575b6124f38183611054565b81019061154d565b5f612416565b503d6124e9565b611342565b61130b565b50505050509050565b61253c915060803d8111612544575b6125348183611054565b8101906113e6565b5050906122c4565b503d61252a565b611342565b612571915060203d8111612577575b6125698183611054565b810190611324565b5f612272565b503d61255f565b611342565b908061259e612598612593613a9e565b610298565b91610298565b036125af576125ac91613aab565b50565b5f63334bd91960e11b8152806125c7600482016104cb565b0390fd5b5f90565b6125d76125cb565b5061261c60206126067f00000000000000000000000000000000000000000000000000000000000000006109ca565b63d4c00212906126146101d2565b93849261130f565b8252818061262c600482016104cb565b03915afa9182156127165761265661265161267d946080945f916126e8575b5061135e565b61136a565b612672632f8eb9cb6126666101d2565b9586948593849361130f565b835260048301611439565b03915afa9081156126e3576126b0916126ab915f809290506126b3575b506126a5600f611e2d565b90611e49565b611e6d565b90565b6126d4915060803d81116126dc575b6126cc8183611054565b8101906113e6565b50509061269a565b503d6126c2565b611342565b612709915060203d811161270f575b6127018183611054565b810190611324565b5f61264b565b503d6126f7565b611342565b61272c6127278261370d565b611f49565b612770602061275a7f00000000000000000000000000000000000000000000000000000000000000006109ca565b63d4c00212906127686101d2565b93849261130f565b82528180612780600482016104cb565b03915afa908115612a2d576127aa6127a56127d4936080935f916129ff575b5061135e565b61136a565b632f8eb9cb906127c933926127bd6101d2565b9586948593849361130f565b835260048301611439565b03915afa80156129fa5761280461280991612822935f809290506129ca575b506127fe600f611e2d565b90611e49565b611e6d565b61281c612816859261037b565b9161037b565b10611fcb565b61285d6128455f61283f6128386002339061074c565b869061077e565b016107b0565b6128576128515f6110f1565b9161081a565b1461204d565b6128867f0000000000000000000000000000000000000000000000000000000000000000610f05565b9063f5298aca338293600192813b156129c5575f6128b7916128c282966128ab6101d2565b998a978896879561130f565b855260048501611588565b03925af19182156129c05761293692612994575b5061291b6128fe6128f9836128f36128ee42926138cc565b612076565b90611626565b612092565b6129126129096120ae565b935f850161101a565b60208301611028565b61293161292a6002339061074c565b849061077e565b612180565b8061295c61295661295161294c6003339061031c565b611295565b61037b565b9161037b565b1015612966575b50565b61297d61298e91612977600161218c565b906121a8565b6129896003339061031c565b6112eb565b5f612963565b6129b3905f3d81116129b9575b6129ab8183611054565b81019061154d565b5f6128d6565b503d6129a1565b611342565b61130b565b6129eb915060803d81116129f3575b6129e38183611054565b8101906113e6565b5050906127f3565b503d6129d9565b611342565b612a20915060203d8111612a26575b612a188183611054565b810190611324565b5f61279f565b503d612a0e565b611342565b612a46612a41612a4b92610c6d565b6102e5565b61037b565b90565b5f7f6e6f2063726f707320746f206861727665737400000000000000000000000000910152565b612a826013602092611136565b612a8b81612a4e565b0190565b612aa49060208101905f818303910152612a75565b90565b15612aae57565b612ab66101d2565b62461bcd60e51b815280612acc60048201612a8f565b0390fd5b90565b612ae7612ae2612aec92612ad0565b6102e5565b61037b565b90565b612afb612b019161037b565b9161037b565b90039060ff8211612b0e57565b6112a2565b612b42612b2a612b256003339061031c565b611295565b612b3c612b365f612a32565b9161037b565b11612aa7565b612b4c601e612ad3565b5b80612b60612b5a5f612a32565b9161037b565b1115612c125780612b7e612bc392612b78600161218c565b90612aef565b612b9e5f612b98612b916002339061074c565b849061077e565b016107b0565b612bb0612baa5f6110f1565b9161081a565b141580612bd7575b612bc8575b506112b6565b612b4d565b612bd19061164b565b5f612bbd565b5042612c0b612c05612c006001612bfa612bf36002339061074c565b879061077e565b016107de565b61111a565b9161081a565b1015612bb8565b50565b90612c1f90610310565b5f5260205260405f2090565b60ff1690565b612c3d612c4291610794565b612c2b565b90565b612c4f9054612c31565b90565b612c78915f612c6d612c7393612c66610fd6565b5082611d0f565b01612c15565b612c45565b90565b612c9490612c8f612c8a610c91565b61361f565b612cf8565b565b612c9f906102e8565b90565b612cab90612c96565b90565b90612cbf60018060a01b0391610c70565b9181191691161790565b612cd290612c96565b90565b90565b90612ced612ce8612cf492612cc9565b612cd5565b8254612cae565b9055565b612d04612d0b91612ca2565b6001612cd8565b565b612d1690612c7b565b565b606090565b612d31612d2c612d369261037b565b6102e5565b61081a565b90565b67ffffffffffffffff8111612d515760208091020190565b611040565b90612d68612d6383612d39565b61107d565b918252565b5f90565b5f90565b612d7d611092565b9060208083612d8a612d6d565b815201612d95612d71565b81525050565b612da3612d75565b90565b5f5b828110612db457505050565b602090612dbf612d9b565b8184015201612da8565b90612dee612dd683612d56565b92602080612de48693612d39565b9201910390612da6565b565b6001612dfc910161037b565b90565b90612e0982610d55565b811015612e1a576020809102010190565b611e98565b90612e28612d18565b50612e3d612e386003849061031c565b611295565b91612e4f612e4a84612d1d565b612dc9565b91612e595f612a32565b5b80612e6d612e678761037b565b9161037b565b1015612ec957612ec490612ebd612e90612e896002879061074c565b839061077e565b612eb78791612e9f85916110d8565b612eb1612eab83612d1d565b85612dff565b52612d1d565b90612dff565b5150612df0565b612e5a565b5092505090565b5f90565b612ee690612ee0612ed0565b506138cc565b90565b90612f0491612eff612efa82611d49565b61361f565b612f06565b565b90612f1091613aab565b50565b90612f1d91612ee9565b565b919091612f2b5f6110f1565b5b80612f49612f43612f3e858890611da4565b61081a565b9161081a565b1015612ffb57612fac90612f67612f6284878491611ece565b611ee3565b612f875f612f81612f7a6002339061074c565b849061077e565b016107b0565b612f99612f935f6110f1565b9161081a565b141580612fc0575b612fb1575b50611e89565b612f2c565b612fba9061164b565b5f612fa6565b5042612ff4612fee612fe96001612fe3612fdc6002339061074c565b879061077e565b016107de565b61111a565b9161081a565b1015612fa1565b50509050565b613009610fd6565b5061302361301d6301ffc9a760e01b6101e4565b916101e4565b1490565b90565b61303e61303961304392613027565b6102e5565b61081a565b90565b90565b61305d61305861306292613046565b6102e5565b61081a565b90565b90565b61307c61307761308192613065565b6102e5565b61081a565b90565b90565b61309b6130966130a092613084565b6102e5565b61081a565b90565b90565b6130ba6130b56130bf926130a3565b6102e5565b61081a565b90565b6130ca61122b565b506130d560ff61302a565b16806130ea6130e4600161155f565b9161081a565b146131b457806131036130fd6002613049565b9161081a565b1461319f578061311c6131166003613068565b9161081a565b1461318a578061313561312f6004613087565b9161081a565b146131755761314d61314760056130a6565b9161081a565b14613161575061315e6103e8611486565b90565b61316d613172916142fa565b612076565b90565b5061318261318791614118565b612076565b90565b5061319761319c91613ec2565b612076565b90565b506131ac6131b191613d02565b612076565b90565b506131c16131c691613be4565b612076565b90565b90565b6131e06131db6131e5926131c9565b6102e5565b61081a565b90565b6131f9670de0b6b3a76400006131cc565b90565b90565b61321361320e613218926131fc565b6102e5565b61081a565b90565b613228600160f91b6131ff565b90565b90565b61324261323d6132479261322b565b6102e5565b61081a565b90565b61325c6801158e460913d0000061322e565b90565b90565b61327661327161327b9261325f565b6102e5565b61081a565b90565b61328b600360f81b613262565b90565b90565b6132a56132a06132aa9261328e565b6102e5565b61081a565b90565b6132bf68056bc75e2d63100000613291565b90565b90565b6132d96132d46132de926132c2565b6102e5565b61081a565b90565b90565b6132f86132f36132fd926132e1565b6102e5565b61081a565b90565b61330d600160fa1b6132e4565b90565b90565b61332761332261332c92613310565b6102e5565b61081a565b90565b613341680d8d726b7177a80000613313565b90565b6133619061335061122b565b5061335b60f86114db565b906114f7565b8061338e61338861338361337361153d565b61337d60f86114db565b906114f7565b61081a565b9161081a565b1461349057806133c06133ba6133b56133a561321b565b6133af60f86114db565b906114f7565b61081a565b9161081a565b1461347157806133f26133ec6133e76133d761327e565b6133e160f86114db565b906114f7565b61081a565b9161081a565b146134525761342361341d613418613408613300565b61341260f86114db565b906114f7565b61081a565b9161081a565b14613434576134315f6110f1565b90565b61344f61343f61332f565b61344960056130a6565b906114b6565b90565b5061346e61345e6132ad565b613468600a6132c5565b906114b6565b90565b5061348d61347d61324a565b61348760056130a6565b906114b6565b90565b506134996131e8565b90565b90565b6134b36134ae6134b89261349c565b6102e5565b61081a565b90565b6134c8600760f81b61349f565b90565b90565b6134e26134dd6134e7926134cb565b6102e5565b61081a565b90565b6134f7600360f91b6134ce565b90565b90565b61351161350c613516926134fa565b6102e5565b61081a565b90565b613526600560f81b6134fd565b90565b61353161122b565b506135468161354060f86114db565b906114f7565b9061355160ff61302a565b16908061358061357a61357561356561321b565b61356f60f86114db565b906114f7565b61081a565b9161081a565b145f146135945750613590613519565b1790565b806135c16135bb6135b66135a661327e565b6135b060f86114db565b906114f7565b61081a565b9161081a565b145f146135d557506135d16134ea565b1790565b6136016135fb6135f66135e6613300565b6135f060f86114db565b906114f7565b61081a565b9161081a565b1461361357506136105f6110f1565b90565b61361b6134bb565b1790565b6136319061362b613a9e565b9061435a565b565b61363c90610231565b90565b90565b9061365761365261365e92613633565b61363f565b82546112d2565b9055565b61366a610fd6565b5061367f613679828490612c52565b15610231565b5f14613707576136a660016136a15f613699818690611d0f565b018590612c15565b613642565b906136af613a9e565b906136ec6136e66136e07f2f8788117e7eff1d82e926ec794901d17c78024a50270940304540a733656f0d95611d03565b92610310565b92610310565b926136f56101d2565b806136ff816104cb565b0390a4600190565b50505f90565b61372a90613719610fd6565b5061372460f86114db565b906114f7565b8061375761375161374c61373c61153d565b61374660f86114db565b906114f7565b61081a565b9161081a565b1480156137db575b80156137a7575b908115613772575b5090565b90506137a061379a613795613785613300565b61378f60f86114db565b906114f7565b61081a565b9161081a565b145f61376e565b50806137d56137cf6137ca6137ba61327e565b6137c460f86114db565b906114f7565b61081a565b9161081a565b14613766565b50806138096138036137fe6137ee61321b565b6137f860f86114db565b906114f7565b61081a565b9161081a565b1461375f565b60201c90565b6138216138269161380f565b610907565b90565b6138339054613815565b90565b61384261384791610794565b610907565b90565b6138549054613836565b90565b60401c90565b61386961386e91613857565b610907565b90565b61387b905461385d565b90565b60601c90565b6138906138959161387e565b610907565b90565b6138a29054613884565b90565b60801c90565b6138b76138bc916138a5565b610907565b90565b6138c990546138ab565b90565b6138d4612ed0565b506138e9816138e360f86114db565b906114f7565b8061391661391061390b6138fb61153d565b61390560f86114db565b906114f7565b61081a565b9161081a565b148015613a66575b5f146139d7575061392f60ff61302a565b168061394461393e600161155f565b9161081a565b146139c9578061395d6139576002613049565b9161081a565b146139bb57806139766139706003613068565b9161081a565b146139ad5761398e6139886004613087565b9161081a565b146139a05761399d60046138bf565b90565b6139aa6004613898565b90565b506139b86004613871565b90565b506139c66004613829565b90565b506139d4600461384a565b90565b809150613a06613a006139fb6139eb61327e565b6139f560f86114db565b906114f7565b61081a565b9161081a565b145f14613a1b5750613a18600461384a565b90565b613a47613a41613a3c613a2c613300565b613a3660f86114db565b906114f7565b61081a565b9161081a565b14613a5957613a56600461384a565b90565b613a636004613829565b90565b5080613a94613a8e613a89613a7961321b565b613a8360f86114db565b906114f7565b61081a565b9161081a565b1461391e565b5f90565b613aa6613a9a565b503390565b613ab3610fd6565b50613abf818390612c52565b5f14613b4657613ae55f613ae05f613ad8818690611d0f565b018590612c15565b613642565b90613aee613a9e565b90613b2b613b25613b1f7ff6391f5c32d9c69d2a47ea670b442974b53935d1edc7fd64eb21e047a839171b95611d03565b92610310565b92610310565b92613b346101d2565b80613b3e816104cb565b0390a4600190565b50505f90565b613b60613b5b613b6592613065565b6102e5565b611399565b90565b90565b613b7f613b7a613b8492613b68565b6102e5565b610946565b90565b90565b613b9e613b99613ba392613b87565b6102e5565b611399565b90565b90565b613bbd613bb8613bc292613ba6565b6102e5565b610946565b90565b90565b613bdc613bd7613be192613bc5565b6102e5565b610946565b90565b613bec612ed0565b5080613c01613bfb6003613b4c565b91611399565b1115613c3c57613c1a613c14600b613b8a565b91611399565b1115613c2e57613c2b610208613bc8565b90565b613c396101fe613ba9565b90565b50613c486101f4613b6b565b90565b613c5f613c5a613c6492613046565b6102e5565b611399565b90565b90565b613c7e613c79613c8392613c67565b6102e5565b610946565b90565b90565b613c9d613c98613ca292613c86565b6102e5565b611399565b90565b90565b613cbc613cb7613cc192613ca5565b6102e5565b610946565b90565b90565b613cdb613cd6613ce092613cc4565b6102e5565b610946565b90565b90565b613cfa613cf5613cff92613ce3565b6102e5565b610946565b90565b613d0a612ed0565b5080613d1f613d196002613c4b565b91611399565b1115613d835780613d39613d336006613c89565b91611399565b1115613d7457613d52613d4c600b613b8a565b91611399565b1115613d6657613d636103a2613ce6565b90565b613d71610398613cc7565b90565b50613d8061038e613ca8565b90565b50613d8f610384613c6a565b90565b613da6613da1613dab9261155c565b6102e5565b611399565b90565b90565b613dc5613dc0613dca92613dae565b6102e5565b610946565b90565b613de1613ddc613de6926130a3565b6102e5565b611399565b90565b90565b613e00613dfb613e0592613de9565b6102e5565b610946565b90565b90565b613e1f613e1a613e2492613e08565b6102e5565b611399565b90565b90565b613e3e613e39613e4392613e27565b6102e5565b610946565b90565b90565b613e5d613e58613e6292613e46565b6102e5565b610946565b90565b90565b613e7c613e77613e8192613e65565b6102e5565b611399565b90565b90565b613e9b613e96613ea092613e84565b6102e5565b610946565b90565b90565b613eba613eb5613ebf92613ea3565b6102e5565b610946565b90565b613eca612ed0565b5080613edf613ed96001613d92565b91611399565b1115613f955780613ef9613ef36005613dcd565b91611399565b1115613f865780613f13613f0d6008613e0b565b91611399565b1115613f775780613f2d613f27600b613b8a565b91611399565b1115613f6857613f46613f40600e613e68565b91611399565b1115613f5a57613f576104e2613ea6565b90565b613f656104d8613e87565b90565b50613f746104ce613e49565b90565b50613f836104c4613e2a565b90565b50613f926104ba613dec565b90565b50613fa16104b0613db1565b90565b90565b613fbb613fb6613fc092613fa4565b6102e5565b610946565b90565b90565b613fda613fd5613fdf92613fc3565b6102e5565b610946565b90565b90565b613ff9613ff4613ffe92613fe2565b6102e5565b610946565b90565b90565b61401861401361401d92614001565b6102e5565b611399565b90565b90565b61403761403261403c92614020565b6102e5565b610946565b90565b90565b61405661405161405b9261403f565b6102e5565b611399565b90565b90565b61407561407061407a9261405e565b6102e5565b610946565b90565b90565b61409461408f6140999261407d565b6102e5565b610946565b90565b90565b6140b36140ae6140b89261409c565b6102e5565b611399565b90565b90565b6140d26140cd6140d7926140bb565b6102e5565b610946565b90565b90565b6140f16140ec6140f6926140da565b6102e5565b610946565b90565b90565b61411061410b614115926140f9565b6102e5565b610946565b90565b614120612ed0565b508061413561412f6001613d92565b91611399565b1115614266578061414f6141496003613b4c565b91611399565b111561425757806141696141636005613dcd565b91611399565b1115614248578061418361417d6007614004565b91611399565b1115614239578061419d6141976009614042565b91611399565b111561422a57806141b76141b1600b613b8a565b91611399565b111561421b57806141d16141cb600d61409f565b91611399565b111561420c576141ea6141e4600e613e68565b91611399565b11156141fe576141fb6108206140fc565b90565b6142096108166140dd565b90565b5061421861080c6140be565b90565b50614227610802614080565b90565b506142366107f8614061565b90565b506142456107ee614023565b90565b506142546107e4613fe5565b90565b506142636107da613fc6565b90565b506142726107d0613fa7565b90565b90565b61428c61428761429192614275565b6102e5565b611399565b90565b6142a06142a691611399565b91611399565b02906142b182611399565b9182036142ba57565b6112a2565b90565b6142d66142d16142db926142bf565b6102e5565b611399565b90565b6142f26142ed6142f792611399565b6102e5565b610946565b90565b61432f61433491614309612ed0565b5061432a6143246115189261431e6014614278565b90614294565b916142c2565b611e49565b6142de565b90565b91602061435892949361435160408201965f83019061142c565b0190610547565b565b9061436f614369838390612c52565b15610231565b614377575050565b6143915f92839263e2517d3f60e01b845260048401614337565b0390fdfea2646970667358221220914b8959b997df6e4ee073eb4c50998bafe8f33a159e97adfbbd31b3316eb07d64736f6c634300081e0033","linkReferences":{}},"methodIdentifiers":{"DEFAULT_ADMIN_ROLE()":"a217fddf","GAME_TOKEN()":"7690292f","ITEMS()":"e2bf56f3","R()":"4980e1be","count(address)":"05d85eda","crops(address,uint8)":"353400c9","getGrowthTime(uint256)":"ce3ed3e9","getMaxPlots(address)":"3c968b7a","getRoleAdmin(bytes32)":"248a9ca3","getUserCrops(address)":"c27c0b87","grantRole(bytes32,address)":"2f2ff15d","harvest(uint8)":"15146d13","harvestAll()":"8ed955b9","harvestMany(uint8[])":"f40219bc","hasRole(bytes32,address)":"91d14854","plant(uint256,uint8)":"67fed520","plantBatch(uint256[],uint8[])":"31170891","renounceRole(bytes32,address)":"36568abe","revokeRole(bytes32,address)":"d547741f","sage()":"0bd49c58","setSage(address)":"b2bf7237","supportsInterface(bytes4)":"01ffc9a7","tCommon()":"8c4d2b9e","tEpic()":"3cb73e14","tLegendary()":"9e3c36f7","tRare()":"a70c79af","tUncommon()":"86563528"},"id":65}