{"abi":[{"type":"constructor","inputs":[{"name":"regAddr","type":"address","internalType":"address"}],"stateMutability":"nonpayable"},{"type":"function","name":"DEFAULT_ADMIN_ROLE","inputs":[],"outputs":[{"name":"","type":"bytes32","internalType":"bytes32"}],"stateMutability":"view"},{"type":"function","name":"ITEMS","inputs":[],"outputs":[{"name":"","type":"address","internalType":"contract IGameItems"}],"stateMutability":"view"},{"type":"function","name":"POISON","inputs":[],"outputs":[{"name":"","type":"uint256","internalType":"uint256"}],"stateMutability":"view"},{"type":"function","name":"R","inputs":[],"outputs":[{"name":"","type":"address","internalType":"contract IGameRegistry"}],"stateMutability":"view"},{"type":"function","name":"craftBait1","inputs":[{"name":"produceId","type":"uint256","internalType":"uint256"},{"name":"amount","type":"uint256","internalType":"uint256"}],"outputs":[],"stateMutability":"nonpayable"},{"type":"function","name":"craftBait2","inputs":[{"name":"produceId","type":"uint256","internalType":"uint256"},{"name":"amount","type":"uint256","internalType":"uint256"}],"outputs":[],"stateMutability":"nonpayable"},{"type":"function","name":"craftBait3","inputs":[{"name":"produceId","type":"uint256","internalType":"uint256"},{"name":"amount","type":"uint256","internalType":"uint256"}],"outputs":[],"stateMutability":"nonpayable"},{"type":"function","name":"fish","inputs":[{"name":"baitId","type":"uint256","internalType":"uint256"}],"outputs":[],"stateMutability":"nonpayable"},{"type":"function","name":"getRoleAdmin","inputs":[{"name":"role","type":"bytes32","internalType":"bytes32"}],"outputs":[{"name":"","type":"bytes32","internalType":"bytes32"}],"stateMutability":"view"},{"type":"function","name":"grantRole","inputs":[{"name":"role","type":"bytes32","internalType":"bytes32"},{"name":"account","type":"address","internalType":"address"}],"outputs":[],"stateMutability":"nonpayable"},{"type":"function","name":"hasRole","inputs":[{"name":"role","type":"bytes32","internalType":"bytes32"},{"name":"account","type":"address","internalType":"address"}],"outputs":[{"name":"","type":"bool","internalType":"bool"}],"stateMutability":"view"},{"type":"function","name":"randomNumberCallback","inputs":[{"name":"requestId","type":"uint256","internalType":"uint256"},{"name":"randomNumber","type":"uint256","internalType":"uint256"}],"outputs":[],"stateMutability":"nonpayable"},{"type":"function","name":"renounceRole","inputs":[{"name":"role","type":"bytes32","internalType":"bytes32"},{"name":"callerConfirmation","type":"address","internalType":"address"}],"outputs":[],"stateMutability":"nonpayable"},{"type":"function","name":"revokeRole","inputs":[{"name":"role","type":"bytes32","internalType":"bytes32"},{"name":"account","type":"address","internalType":"address"}],"outputs":[],"stateMutability":"nonpayable"},{"type":"function","name":"setVrngSystem","inputs":[{"name":"vrngSystem","type":"address","internalType":"address"}],"outputs":[],"stateMutability":"nonpayable"},{"type":"function","name":"supportsInterface","inputs":[{"name":"interfaceId","type":"bytes4","internalType":"bytes4"}],"outputs":[{"name":"","type":"bool","internalType":"bool"}],"stateMutability":"view"},{"type":"function","name":"vrng","inputs":[],"outputs":[{"name":"","type":"address","internalType":"contract IVRNGSystem"}],"stateMutability":"view"},{"type":"event","name":"RandomNumberFulfilled","inputs":[{"name":"requestId","type":"uint256","indexed":true,"internalType":"uint256"},{"name":"normalizedRandomNumber","type":"uint256","indexed":false,"internalType":"uint256"}],"anonymous":false},{"type":"event","name":"RandomNumberRequested","inputs":[{"name":"requestId","type":"uint256","indexed":true,"internalType":"uint256"}],"anonymous":false},{"type":"event","name":"RoleAdminChanged","inputs":[{"name":"role","type":"bytes32","indexed":true,"internalType":"bytes32"},{"name":"previousAdminRole","type":"bytes32","indexed":true,"internalType":"bytes32"},{"name":"newAdminRole","type":"bytes32","indexed":true,"internalType":"bytes32"}],"anonymous":false},{"type":"event","name":"RoleGranted","inputs":[{"name":"role","type":"bytes32","indexed":true,"internalType":"bytes32"},{"name":"account","type":"address","indexed":true,"internalType":"address"},{"name":"sender","type":"address","indexed":true,"internalType":"address"}],"anonymous":false},{"type":"event","name":"RoleRevoked","inputs":[{"name":"role","type":"bytes32","indexed":true,"internalType":"bytes32"},{"name":"account","type":"address","indexed":true,"internalType":"address"},{"name":"sender","type":"address","indexed":true,"internalType":"address"}],"anonymous":false},{"type":"error","name":"AccessControlBadConfirmation","inputs":[]},{"type":"error","name":"AccessControlUnauthorizedAccount","inputs":[{"name":"account","type":"address","internalType":"address"},{"name":"neededRole","type":"bytes32","internalType":"bytes32"}]},{"type":"error","name":"VRNGConsumer__InvalidFulfillment","inputs":[]},{"type":"error","name":"VRNGConsumer__InvalidRequestId","inputs":[]},{"type":"error","name":"VRNGConsumer__NotInitialized","inputs":[]},{"type":"error","name":"VRNGConsumer__OnlyVRNGSystem","inputs":[]}],"bytecode":{"object":"0x610100604052346100a15761001a610015610166565b610255565b6100226100a6565b6135596105ad823960805181611ad5015260a05181610527015260c0518181816104750152612440015260e0518181816107b701528181610e8101528181610ef5015281816114060152818161147a01528181611d7701528181611deb0152818161252b01528181612f6901528181613061015261312d015261355990f35b6100ac565b60405190565b5f80fd5b601f801991011690565b634e487b7160e01b5f52604160045260245ffd5b906100d8906100b0565b810190811060018060401b038211176100f057604052565b6100ba565b906101086101016100a6565b92836100ce565b565b5f80fd5b60018060a01b031690565b6101229061010e565b90565b61012e81610119565b0361013557565b5f80fd5b9050519061014682610125565b565b906020828203126101615761015e915f01610139565b90565b61010a565b610184613b0680380380610179816100f5565b928339810190610148565b90565b90565b61019e6101996101a39261010e565b610187565b61010e565b90565b6101af9061018a565b90565b6101bb906101a6565b90565b6101c790610119565b90565b6101d490516101be565b90565b6101e09061018a565b90565b6101ec906101d7565b90565b60e01b90565b5f0190565b6102026100a6565b3d5f823e3d90fd5b6102139061018a565b90565b61021f9061020a565b90565b90565b90565b5f1b90565b61024161023c61024692610222565b610228565b610225565b90565b6102525f61022d565b90565b6102669061026161030c565b6101b2565b60c052610296602061028061027b60c06101ca565b6101e3565b63d50760939061028e6100a6565b9384926101ef565b825281806102a6600482016101f5565b03915afa8015610307576102c1915f916102d9575b50610216565b60e0526102d66102cf610249565b339061049b565b50565b6102fa915060203d8111610300575b6102f281836100ce565b810190610148565b5f6102bb565b503d6102e8565b6101fa565b610314610316565b565b61031e610320565b565b61032861032a565b565b610332610334565b565b61033c61033e565b565b610348600161037f565b565b634e487b7160e01b5f52602160045260245ffd5b6003111561036857565b61034a565b906103778261035e565b565b90565b90565b8061039261038c5f61036d565b9161036d565b145f146103aa57506103a4600161037c565b6080525b565b806103be6103b8600161036d565b9161036d565b145f146103d957506103d0600261037c565b6080525b6103a8565b6103ec6103e6600261036d565b9161036d565b146103f7575b6103d4565b6104016003610379565b6080526103f2565b5f90565b151590565b61041b90610225565b90565b9061042890610412565b5f5260205260405f2090565b61043d906101d7565b90565b9061044a90610434565b5f5260205260405f2090565b9061046260ff91610228565b9181191691161790565b6104759061040d565b90565b90565b9061049061048b6104979261046c565b610478565b8254610456565b9055565b6104a3610409565b506104b86104b2828490610572565b1561040d565b5f14610540576104df60016104da5f6104d281869061041e565b018590610440565b61047b565b906104e861059f565b9061052561051f6105197f2f8788117e7eff1d82e926ec794901d17c78024a50270940304540a733656f0d95610412565b92610434565b92610434565b9261052e6100a6565b80610538816101f5565b0390a4600190565b50505f90565b5f1c90565b60ff1690565b61055d61056291610546565b61054b565b90565b61056f9054610551565b90565b610598915f61058d61059393610586610409565b508261041e565b01610440565b610565565b90565b5f90565b6105a761059b565b50339056fe60806040526004361015610013575b61088d565b61001d5f3561012c565b806301ffc9a714610127578063120f62f614610122578063248a9ca31461011d5780632f107f03146101185780632f2ff15d1461011357806336568abe1461010e578063368dfdeb146101095780634980e1be1461010457806362138414146100ff57806377022bec146100fa5780638f561acc146100f557806391d14854146100f0578063a217fddf146100eb578063d4f8c95c146100e6578063d547741f146100e1578063e2bf56f3146100dc5763f155cd8c0361000e5761085a565b610807565b610781565b61074d565b610718565b6106a7565b610673565b61063e565b610577565b6104f0565b610430565b6103fc565b6103c8565b610368565b6102db565b610241565b6101b4565b60e01c90565b60405190565b5f80fd5b5f80fd5b63ffffffff60e01b1690565b61015581610140565b0361015c57565b5f80fd5b9050359061016d8261014c565b565b9060208282031261018857610185915f01610160565b90565b61013c565b151590565b61019b9061018d565b9052565b91906101b2905f60208501940190610192565b565b346101e4576101e06101cf6101ca36600461016f565b610ad3565b6101d7610132565b9182918261019f565b0390f35b610138565b90565b6101f5816101e9565b036101fc57565b5f80fd5b9050359061020d826101ec565b565b9190604083820312610237578061022b610234925f8601610200565b93602001610200565b90565b61013c565b5f0190565b346102705761025a61025436600461020f565b90610e0c565b610262610132565b8061026c8161023c565b0390f35b610138565b90565b61028181610275565b0361028857565b5f80fd5b9050359061029982610278565b565b906020828203126102b4576102b1915f0161028c565b90565b61013c565b6102c290610275565b9052565b91906102d9905f602085019401906102b9565b565b3461030b576103076102f66102f136600461029b565b611110565b6102fe610132565b918291826102c6565b0390f35b610138565b60018060a01b031690565b61032490610310565b90565b6103308161031b565b0361033757565b5f80fd5b9050359061034882610327565b565b9060208282031261036357610360915f0161033b565b90565b61013c565b346103965761038061037b36600461034a565b611157565b610388610132565b806103928161023c565b0390f35b610138565b91906040838203126103c357806103b76103c0925f860161028c565b9360200161033b565b90565b61013c565b346103f7576103e16103db36600461039b565b9061118c565b6103e9610132565b806103f38161023c565b0390f35b610138565b3461042b5761041561040f36600461039b565b90611198565b61041d610132565b806104278161023c565b0390f35b610138565b3461045f5761044961044336600461020f565b90611367565b610451610132565b8061045b8161023c565b0390f35b610138565b5f91031261046e57565b61013c565b7f000000000000000000000000000000000000000000000000000000000000000090565b90565b6104ae6104a96104b392610310565b610497565b610310565b90565b6104bf9061049a565b90565b6104cb906104b6565b90565b6104d7906104c2565b9052565b91906104ee905f602085019401906104ce565b565b3461052057610500366004610464565b61051c61050b610473565b610513610132565b918291826104db565b0390f35b610138565b7f000000000000000000000000000000000000000000000000000000000000000090565b610552906104b6565b90565b61055e90610549565b9052565b9190610575905f60208501940190610555565b565b346105a757610587366004610464565b6105a3610592610525565b61059a610132565b91829182610562565b0390f35b610138565b90565b6105c36105be6105c8926105ac565b610497565b6101e9565b90565b6105d8600b60f81b6105af565b90565b90565b6105f26105ed6105f7926105db565b610497565b6101e9565b90565b6106026105cb565b61060d6103e76105de565b1790565b6106196105fa565b90565b610625906101e9565b9052565b919061063c905f6020850194019061061c565b565b3461066e5761064e366004610464565b61066a610659610611565b610661610132565b91829182610629565b0390f35b610138565b346106a25761068c61068636600461020f565b90611a55565b610694610132565b8061069e8161023c565b0390f35b610138565b346106d8576106d46106c36106bd36600461039b565b90611bc8565b6106cb610132565b9182918261019f565b0390f35b610138565b90565b5f1b90565b6106f96106f46106fe926106dd565b6106e0565b610275565b90565b61070a5f6106e5565b90565b610715610701565b90565b3461074857610728366004610464565b61074461073361070d565b61073b610132565b918291826102c6565b0390f35b610138565b3461077c5761076661076036600461020f565b90611ce6565b61076e610132565b806107788161023c565b0390f35b610138565b346107b05761079a61079436600461039b565b90612132565b6107a2610132565b806107ac8161023c565b0390f35b610138565b7f000000000000000000000000000000000000000000000000000000000000000090565b6107e2906104b6565b90565b6107ee906107d9565b9052565b9190610805905f602085019401906107e5565b565b3461083757610817366004610464565b6108336108226107b5565b61082a610132565b918291826107f2565b0390f35b610138565b9060208282031261085557610852915f01610200565b90565b61013c565b346108885761087261086d36600461083c565b612436565b61087a610132565b806108848161023c565b0390f35b610138565b5f80fd5b5f90565b90565b6108ac6108a76108b192610895565b610497565b6101e9565b90565b634e487b7160e01b5f52601260045260245ffd5b6108d46108da916101e9565b916101e9565b9081156108e5570690565b6108b4565b906108f591036101e9565b90565b90565b61090761090c91610275565b6108f8565b9052565b90565b61091f610924916101e9565b610910565b9052565b60208161093a610942938396956108fb565b018092610913565b0190565b601f801991011690565b634e487b7160e01b5f52604160045260245ffd5b9061096e90610946565b810190811067ffffffffffffffff82111761098857604052565b610950565b60200190565b5190565b5f1c90565b6109b06109ab6109b5926101e9565b610497565b6101e9565b90565b6109c46109c991610997565b61099c565b90565b610a226109fb610a3a936109de610891565b506109f543916109ef610100610898565b906108c8565b906108ea565b40610a13610a07610132565b93849260208401610928565b60208201810382520382610964565b610a34610a2e82610993565b9161098d565b206109b8565b90565b602081610a4f610a5793839695610913565b018092610913565b0190565b610a91610aa992610a6a610891565b50610a82610a76610132565b93849260208401610a3d565b60208201810382520382610964565b610aa3610a9d82610993565b9161098d565b206109b8565b90565b90610ab791016101e9565b90565b610acc91610ac6610891565b50610aac565b90565b5f90565b610adb610acf565b5080610af6610af0637965db0b60e01b610140565b91610140565b14908115610b03575b5090565b610b0d91506126ce565b5f610aff565b90565b610b2a610b25610b2f92610b13565b610497565b6101e9565b90565b610b3f600560f81b610b16565b90565b90565b610b59610b54610b5e92610b42565b610497565b6101e9565b90565b610b69610b32565b610b736001610b45565b1790565b90565b610b8e610b89610b9392610b77565b610497565b6101e9565b90565b90565b610bad610ba8610bb292610b96565b610497565b6101e9565b90565b610bbd610b32565b610bc76002610b99565b1790565b90565b610be2610bdd610be792610bcb565b610497565b6101e9565b90565b90565b610c01610bfc610c0692610bea565b610497565b6101e9565b90565b610c11610b32565b610c1b6003610bed565b1790565b60209181520190565b5f7f7265636970650000000000000000000000000000000000000000000000000000910152565b610c5c6006602092610c1f565b610c6581610c28565b0190565b610c7e9060208101905f818303910152610c4f565b90565b15610c8857565b610c90610132565b62461bcd60e51b815280610ca660048201610c69565b0390fd5b60ff1690565b610cc4610cbf610cc992610b96565b610497565b610caa565b90565b610ce0610cdb610ce592610bcb565b610497565b610caa565b90565b610cfc610cf7610d0192610b77565b610497565b610caa565b90565b610d18610d13610d1d92610caa565b610497565b6101e9565b90565b5f80fd5b60e01b90565b5f910312610d3457565b61013c565b610d429061031b565b9052565b604090610d6f610d769496959396610d6560608401985f850190610d39565b602083019061061c565b019061061c565b565b610d80610132565b3d5f823e3d90fd5b90565b610d9f610d9a610da492610d88565b610497565b6101e9565b90565b610db4600160fb1b610d8b565b90565b610dbf610da7565b610dc96001610b45565b1790565b610dd690610b45565b9052565b604090610e03610e0a9496959396610df960608401985f850190610d39565b602083019061061c565b0190610dcd565b565b90610e479082610e2b610e25610e20610b61565b6101e9565b916101e9565b14806110aa575b8015611067575b90811561101f575b50610c81565b80610e61610e5b610e56610b61565b6101e9565b916101e9565b145f14610fd957610e7b610e756008610ce8565b5b610d04565b90610ea57f00000000000000000000000000000000000000000000000000000000000000006107d9565b9063f5298aca9133919392813b15610fd4575f610ed591610ee08296610ec9610132565b98899788968795610d24565b855260048501610d46565b03925af18015610fcf57610fa3575b50610f197f00000000000000000000000000000000000000000000000000000000000000006107d9565b63156e29f633610f27610db7565b92600192813b15610f9e575f610f5091610f5b8296610f44610132565b98899788968795610d24565b855260048501610dda565b03925af18015610f9957610f6d575b50565b610f8c905f3d8111610f92575b610f848183610964565b810190610d2a565b5f610f6a565b503d610f7a565b610d78565b610d20565b610fc2905f3d8111610fc8575b610fba8183610964565b810190610d2a565b5f610eef565b503d610fb0565b610d78565b610d20565b80610ff3610fed610fe8610bb5565b6101e9565b916101e9565b145f1461100d57610e7b6110076004610ccc565b5b610e76565b610e7b61101a6002610cb0565b611008565b90508261103b611035611030610c09565b6101e9565b916101e9565b14908161104a575b505f610e41565b905061105f6110596002610b99565b916101e9565b10155f611043565b508261108261107c611077610bb5565b6101e9565b916101e9565b148061108e575b610e39565b50806110a361109d6004610bce565b916101e9565b1015611089565b50806110bf6110b96008610b7a565b916101e9565b1015610e32565b5f90565b6110d390610275565b90565b906110e0906110ca565b5f5260205260405f2090565b90565b6110fb61110091610997565b6110ec565b90565b61110d90546110ef565b90565b600161112861112e926111216110c6565b505f6110d6565b01611103565b90565b61114a90611145611140610701565b6126f4565b61114c565b565b6111559061274f565b565b61116090611131565b565b9061117d9161117861117382611110565b6126f4565b61117f565b565b906111899161279d565b50565b9061119691611162565b565b90806111b36111ad6111a861284c565b61031b565b9161031b565b036111c4576111c191612859565b50565b5f63334bd91960e11b8152806111dc6004820161023c565b0390fd5b90565b6111f76111f26111fc926111e0565b610497565b6101e9565b90565b61120c600360f91b6111e3565b90565b6112176111ff565b6112216001610b45565b1790565b61122d6111ff565b6112376002610b99565b1790565b6112436111ff565b61124d6003610bed565b1790565b6112596111ff565b6112636004610bce565b1790565b90565b61127e61127961128392611267565b610497565b6101e9565b90565b61128e6111ff565b611298600561126a565b1790565b90565b6112b36112ae6112b89261129c565b610497565b6101e9565b90565b6112c36111ff565b6112cd600661129f565b1790565b90565b6112e86112e36112ed926112d1565b610497565b6101e9565b90565b6112f86111ff565b61130260076112d4565b1790565b61130e6111ff565b6113186008610b7a565b1790565b90565b61133361132e6113389261131c565b610497565b6101e9565b90565b6113436111ff565b61134d600961131f565b1790565b611359610da7565b6113636002610b99565b1790565b906113b7908261138661138061137b61120f565b6101e9565b916101e9565b1480156117b8575b8015611797575b8015611776575b8061175a575b80156116c7575b908115611657575b50610c81565b806113d16113cb6113c661120f565b6101e9565b916101e9565b148015611636575b8015611615575b80156115f4575b5f1461155e576114006113fa6008610ce8565b5b610d04565b9061142a7f00000000000000000000000000000000000000000000000000000000000000006107d9565b9063f5298aca9133919392813b15611559575f61145a91611465829661144e610132565b98899788968795610d24565b855260048501610d46565b03925af1801561155457611528575b5061149e7f00000000000000000000000000000000000000000000000000000000000000006107d9565b63156e29f6336114ac611351565b92600192813b15611523575f6114d5916114e082966114c9610132565b98899788968795610d24565b855260048501610dda565b03925af1801561151e576114f2575b50565b611511905f3d8111611517575b6115098183610964565b810190610d2a565b5f6114ef565b503d6114ff565b610d78565b610d20565b611547905f3d811161154d575b61153f8183610964565b810190610d2a565b5f611474565b503d611535565b610d78565b610d20565b8061157861157261156d611286565b6101e9565b916101e9565b1480156115d3575b80156115b2575b5f146115a05761140061159a6004610ccc565b5b6113fb565b6114006115ad6002610cb0565b61159b565b50806115cd6115c76115c26112f0565b6101e9565b916101e9565b14611587565b50806115ee6115e86115e36112bb565b6101e9565b916101e9565b14611580565b508061160f611609611604611251565b6101e9565b916101e9565b146113e7565b508061163061162a61162561123b565b6101e9565b916101e9565b146113e0565b508061165161164b611646611225565b6101e9565b916101e9565b146113d9565b90508261167361166d611668611306565b6101e9565b916101e9565b1480156116a6575b9081611689575b505f6113b1565b905061169e6116986002610b99565b916101e9565b10155f611682565b50826116c16116bb6116b661133b565b6101e9565b916101e9565b1461167b565b50826116e26116dc6116d7611286565b6101e9565b916101e9565b148015611739575b8015611718575b806116fc575b6113a9565b508061171161170b6004610bce565b916101e9565b10156116f7565b508261173361172d6117286112f0565b6101e9565b916101e9565b146116f1565b508261175461174e6117496112bb565b6101e9565b916101e9565b146116ea565b508061176f6117696008610b7a565b916101e9565b10156113a2565b508261179161178b611786611251565b6101e9565b916101e9565b1461139c565b50826117b26117ac6117a761123b565b6101e9565b916101e9565b14611395565b50826117d36117cd6117c8611225565b6101e9565b916101e9565b1461138e565b60018060a01b031690565b6117f06117f591610997565b6117d9565b90565b61180290546117e4565b90565b1561180c57565b5f630cd1c96b60e01b8152806118246004820161023c565b0390fd5b906118329061099c565b5f5260205260405f2090565b60ff1690565b61185061185591610997565b61183e565b90565b6118629054611844565b90565b634e487b7160e01b5f52602160045260245ffd5b6003111561188357565b611865565b9061189282611879565b565b9061189e90611888565b9052565b90565b6118b16118b691610997565b6118a2565b90565b6118c390546118a5565b90565b906118d0906101e9565b9052565b906118e76118e0610132565b9283610964565b565b6118f360406118d4565b90565b9061192d61192460016119076118e9565b9461191e6119165f8301611858565b5f8801611894565b016118b9565b602084016118c6565b565b611938906118f6565b90565b6119459051611888565b90565b1561194f57565b5f63069c328d60e01b8152806119676004820161023c565b0390fd5b61197560406118d4565b90565b634e487b7160e01b5f525f60045260245ffd5b9061199760ff916106e0565b9181191691161790565b6119aa90611888565b90565b90565b906119c56119c06119cc926119a1565b6119ad565b825461198b565b9055565b6119da90516101e9565b90565b906119e95f19916106e0565b9181191691161790565b90565b90611a0b611a06611a129261099c565b6119f3565b82546119dd565b9055565b90611a4160206001611a4794611a395f8201611a335f880161193b565b906119b0565b0192016119d0565b906119f6565b565b90611a5391611a16565b565b90611b7d91611b33611afc611a686128fa565b93611a9733611a91611a8b611a86611a815f8b016117f8565b610549565b61031b565b9161031b565b14611805565b611ad3611aba5f611ab4611aaf60018a018990611828565b61192f565b0161193b565b611acd611ac76001611888565b91611888565b14611948565b7f00000000000000000000000000000000000000000000000000000000000000009084916134dc565b92611b2e6001600292611b2687611b1d611b1461196b565b965f8801611894565b602086016118c6565b018490611828565b611a49565b808290611b75611b637f8d0b85217819203ea5eebe89818986fc8f6db4913ede059bade4b8569caebbc99261099c565b92611b6c610132565b91829182610629565b0390a2612dd6565b565b611b88906104b6565b90565b90611b9590611b7f565b5f5260205260405f2090565b60ff1690565b611bb3611bb891610997565b611ba1565b90565b611bc59054611ba7565b90565b611bee915f611be3611be993611bdc610acf565b50826110d6565b01611b8b565b611bbb565b90565b90565b611c08611c03611c0d92611bf1565b610497565b6101e9565b90565b611c1d600760f81b611bf4565b90565b611c28611c10565b611c326001610b45565b1790565b611c3e611c10565b611c486002610b99565b1790565b611c54611c10565b611c5e6003610bed565b1790565b611c6a611c10565b611c746004610bce565b1790565b611c80611c10565b611c8a600561126a565b1790565b611c96611c10565b611ca0600661129f565b1790565b611cac611c10565b611cb660076112d4565b1790565b611cc2611c10565b611ccc6008610b7a565b1790565b611cd8610da7565b611ce26003610bed565b1790565b90611d2f9082611d05611cff611cfa611c20565b6101e9565b916101e9565b1480156120e7575b80156120c6575b806120aa575b8015612017575b908115611fa7575b50610c81565b80611d49611d43611d3e611c20565b6101e9565b916101e9565b148015611f86575b8015611f65575b5f14611ecf57611d71611d6b6008610ce8565b5b610d04565b90611d9b7f00000000000000000000000000000000000000000000000000000000000000006107d9565b9063f5298aca9133919392813b15611eca575f611dcb91611dd68296611dbf610132565b98899788968795610d24565b855260048501610d46565b03925af18015611ec557611e99575b50611e0f7f00000000000000000000000000000000000000000000000000000000000000006107d9565b63156e29f633611e1d611cd0565b92600192813b15611e94575f611e4691611e518296611e3a610132565b98899788968795610d24565b855260048501610dda565b03925af18015611e8f57611e63575b50565b611e82905f3d8111611e88575b611e7a8183610964565b810190610d2a565b5f611e60565b503d611e70565b610d78565b610d20565b611eb8905f3d8111611ebe575b611eb08183610964565b810190610d2a565b5f611de5565b503d611ea6565b610d78565b610d20565b80611ee9611ee3611ede611c62565b6101e9565b916101e9565b148015611f44575b8015611f23575b5f14611f1157611d71611f0b6004610ccc565b5b611d6c565b611d71611f1e6002610cb0565b611f0c565b5080611f3e611f38611f33611c8e565b6101e9565b916101e9565b14611ef8565b5080611f5f611f59611f54611c78565b6101e9565b916101e9565b14611ef1565b5080611f80611f7a611f75611c4c565b6101e9565b916101e9565b14611d58565b5080611fa1611f9b611f96611c36565b6101e9565b916101e9565b14611d51565b905082611fc3611fbd611fb8611ca4565b6101e9565b916101e9565b148015611ff6575b9081611fd9575b505f611d29565b9050611fee611fe86002610b99565b916101e9565b10155f611fd2565b508261201161200b612006611cba565b6101e9565b916101e9565b14611fcb565b508261203261202c612027611c62565b6101e9565b916101e9565b148015612089575b8015612068575b8061204c575b611d21565b508061206161205b6004610bce565b916101e9565b1015612047565b508261208361207d612078611c8e565b6101e9565b916101e9565b14612041565b50826120a461209e612099611c78565b6101e9565b916101e9565b1461203a565b50806120bf6120b96008610b7a565b916101e9565b1015611d1a565b50826120e16120db6120d6611c4c565b6101e9565b916101e9565b14611d14565b50826121026120fc6120f7611c36565b6101e9565b916101e9565b14611d0d565b906121239161211e61211982611110565b6126f4565b612125565b565b9061212f91612859565b50565b9061213c91612108565b565b9050519061214b82610327565b565b9060208282031261216657612163915f0161213e565b90565b61013c565b6121749061049a565b90565b6121809061216b565b90565b61218c906104b6565b90565b6121988161018d565b0361219f57565b5f80fd5b905051906121b08261218f565b565b61ffff1690565b6121c2816121b2565b036121c957565b5f80fd5b905051906121da826121b9565b565b67ffffffffffffffff1690565b6121f2816121dc565b036121f957565b5f80fd5b9050519061220a826121e9565b565b60808183031261224d57612222825f83016121a3565b9261224a61223384602085016121cd565b9361224181604086016121fd565b936060016121fd565b90565b61013c565b9190612265905f60208501940190610d39565b565b5f7f696e76616c696420626169740000000000000000000000000000000000000000910152565b61229b600c602092610c1f565b6122a481612267565b0190565b6122bd9060208101905f81830391015261228e565b90565b156122c757565b6122cf610132565b62461bcd60e51b8152806122e5600482016122a8565b0390fd5b6122f360606118d4565b90565b906123009061031b565b9052565b9061230e906121b2565b9052565b9061231c9061099c565b5f5260205260405f2090565b612332905161031b565b90565b9061234660018060a01b03916106e0565b9181191691161790565b90565b9061236861236361236f92611b7f565b612350565b8254612335565b9055565b61237d90516121b2565b90565b60a01b90565b9061239661ffff60a01b91612380565b9181191691161790565b6123b46123af6123b9926121b2565b610497565b6121b2565b90565b90565b906123d46123cf6123db926123a0565b6123bc565b8254612386565b9055565b9061242260406001612428946124025f82016123fc5f8801612328565b90612353565b61241a5f820161241460208801612373565b906123bf565b0192016119d0565b906119f6565b565b90612434916123df565b565b61247a60206124647f00000000000000000000000000000000000000000000000000000000000000006104c2565b63d4c0021290612472610132565b938492610d24565b8252818061248a6004820161023c565b03915afa9081156126c9576124b46124af6124de936080935f9161269b575b50612177565b612183565b632f8eb9cb906124d333926124c7610132565b95869485938493610d24565b835260048301612252565b03915afa908115612696575f80929050612666575b508161250e612508612503610db7565b6101e9565b916101e9565b148015612645575b801561261f575b612526906122c0565b61254f7f00000000000000000000000000000000000000000000000000000000000000006107d9565b9163f5298aca338294600192813b1561261a575f6125809161258b8296612574610132565b9a8b9788968795610d24565b855260048501610dda565b03925af1908115612615576125e7936125e2926125e9575b506125db6125af613284565b916125d233956125c96125c06122e9565b975f89016122f6565b60208701612304565b604085016118c6565b6001612312565b61242a565b565b612608905f3d811161260e575b6126008183610964565b810190610d2a565b5f6125a3565b503d6125f6565b610d78565b610d20565b506125268261263d612637612632611cd0565b6101e9565b916101e9565b14905061251d565b508161266061265a612655611351565b6101e9565b916101e9565b14612516565b612687915060803d811161268f575b61267f8183610964565b81019061220c565b5050906124f3565b503d612675565b610d78565b6126bc915060203d81116126c2575b6126b48183610964565b81019061214d565b5f6124a9565b503d6126aa565b610d78565b6126d6610acf565b506126f06126ea6301ffc9a760e01b610140565b91610140565b1490565b6127069061270061284c565b906132c4565b565b6127119061049a565b90565b61271d90612708565b90565b61272990612708565b90565b90565b9061274461273f61274b92612720565b61272c565b8254612335565b9055565b61276c905f61276561275f6128fa565b92612714565b910161272f565b565b6127779061018d565b90565b90565b9061279261278d6127999261276e565b61277a565b825461198b565b9055565b6127a5610acf565b506127ba6127b4828490611bc8565b1561018d565b5f14612842576127e160016127dc5f6127d48186906110d6565b018590611b8b565b61277d565b906127ea61284c565b9061282761282161281b7f2f8788117e7eff1d82e926ec794901d17c78024a50270940304540a733656f0d956110ca565b92611b7f565b92611b7f565b92612830610132565b8061283a8161023c565b0390a4600190565b50505f90565b5f90565b612854612848565b503390565b612861610acf565b5061286d818390611bc8565b5f146128f4576128935f61288e5f6128868186906110d6565b018590611b8b565b61277d565b9061289c61284c565b906128d96128d36128cd7ff6391f5c32d9c69d2a47ea670b442974b53935d1edc7fd64eb21e047a839171b956110ca565b92611b7f565b92611b7f565b926128e2610132565b806128ec8161023c565b0390a4600190565b50505f90565b7ffc4de942100e62e9eb61034c75124e3689e7605ae081e19c59907d5c442ea70090565b60018060a01b031690565b61293561293a91610997565b61291e565b90565b6129479054612929565b90565b60a01c90565b61ffff1690565b6129636129689161294a565b612950565b90565b6129759054612957565b90565b61298260606118d4565b90565b906129d36129ca6001612996612978565b946129ad6129a55f830161293d565b5f88016122f6565b6129c46129bb5f830161296b565b60208801612304565b016118b9565b604084016118c6565b565b6129de90612985565b90565b6129f56129f06129fa926106dd565b610497565b610310565b90565b612a06906129e1565b90565b5f7f496e76616c696420726571756573740000000000000000000000000000000000910152565b612a3d600f602092610c1f565b612a4681612a09565b0190565b612a5f9060208101905f818303910152612a30565b90565b15612a6957565b612a71610132565b62461bcd60e51b815280612a8760048201612a4a565b0390fd5b63ffffffff1690565b612aa8612aa3612aad92610b42565b610497565b612a8b565b90565b612ac4612abf612ac992610b96565b610497565b612a8b565b90565b612ae0612adb612ae592610bea565b610497565b612a8b565b90565b90565b612aff612afa612b0492612ae8565b610497565b6121b2565b90565b90565b612b1e612b19612b2392612b07565b610497565b6121b2565b90565b634e487b7160e01b5f52601160045260245ffd5b612b46612b4c916121b2565b916121b2565b0290612b57826121b2565b918203612b6057565b612b26565b62ffffff1690565b612b81612b7c612b86926121b2565b610497565b612b65565b90565b90565b612ba0612b9b612ba592612b89565b610497565b612b65565b90565b90565b612bbf612bba612bc492612ba8565b610497565b612b65565b90565b612bd3612bd991612b65565b91612b65565b019062ffffff8211612be757565b612b26565b612c00612bfb612c0592612b65565b610497565b612a8b565b90565b90565b612c1f612c1a612c2492612c08565b610497565b612a8b565b90565b612c3b612c36612c4092612b89565b610497565b612a8b565b90565b612c4f612c5591612a8b565b91612a8b565b0290612c6082612a8b565b918203612c6957565b612b26565b612c7a612c8091612a8b565b91612a8b565b908115612c8b570490565b6108b4565b90565b612ca7612ca2612cac92612c90565b610497565b6101e9565b90565b612cc3612cbe612cc892612a8b565b610497565b6101e9565b90565b612cd7612cdd91612a8b565b91612a8b565b019063ffffffff8211612cec57565b612b26565b90565b612d08612d03612d0d92612cf1565b610497565b6101e9565b90565b612d1d600960f81b612cf4565b90565b612d28612d10565b612d326002610b99565b1790565b612d3e612d10565b612d486001610b45565b1790565b1b90565b91906008612d6b910291612d655f1984612d4c565b92612d4c565b9181191691161790565b9190612d8b612d86612d939361099c565b6119f3565b908354612d50565b9055565b612da991612da3610891565b91612d75565b565b5f6001612dbd92828082015501612d97565b565b905f03612dd157612dcf90612dab565b565b611978565b90612deb612de660018490612312565b6129d5565b90612e1b612dfa5f8401612328565b612e14612e0e612e095f6129fd565b61031b565b9161031b565b1415612a62565b612e256001612a94565b90612e32604084016119d0565b612e4b612e45612e40611351565b6101e9565b916101e9565b14613256575b612e5d604084016119d0565b612e76612e70612e6b611cd0565b6101e9565b916101e9565b14613244575b612ecc612ec7620aae60612e9260208701612373565b612ea5612e9f6019612aeb565b916121b2565b115f1461321457612ec2612ebb6203d090612b8c565b5b91612bab565b612bc7565b612bec565b9182612ee3612edd620e7ef0612c0b565b91612a8b565b116131f3575b612f33612f23612f4692612f1d612f0d612f056203d090612c27565b978390612c43565b612f176003612acc565b90612c6e565b95612c43565b612f2d6003612acc565b90612c6e565b91612f40620f4240612c93565b906108c8565b9081612f5a612f5485612caf565b916101e9565b105f1461303957505050612f8d7f00000000000000000000000000000000000000000000000000000000000000006107d9565b90612f9e5f63156e29f69201612328565b612fa6612d36565b92600192813b15613034575f612fcf91612fda8296612fc3610132565b98899788968795610d24565b855260048501610dda565b03925af1801561302f57613001925f92612ffc92613003575b505b6001612312565b612dbf565b565b61302290843d8111613028575b61301a8183610964565b810190610d2a565b5f612ff3565b503d613010565b610d78565b610d20565b61304a61304f916130559394612ccb565b612caf565b916101e9565b105f14613128576130857f00000000000000000000000000000000000000000000000000000000000000006107d9565b906130965f63156e29f69201612328565b61309e612d20565b92600192813b15613123575f6130c7916130d282966130bb610132565b98899788968795610d24565b855260048501610dda565b03925af1801561311e57613001925f92612ffc926130f2575b505b612ff5565b61311190843d8111613117575b6131098183610964565b810190610d2a565b5f6130eb565b503d6130ff565b610d78565b610d20565b6131517f00000000000000000000000000000000000000000000000000000000000000006107d9565b906131625f63156e29f69201612328565b61316a6105fa565b92600192813b156131ee575f6131939161319e8296613187610132565b98899788968795610d24565b855260048501610dda565b03925af180156131e957613001925f92612ffc926131bd575b506130ed565b6131dc90843d81116131e2575b6131d48183610964565b810190610d2a565b5f6131b7565b503d6131ca565b610d78565b610d20565b9150612f46612f33612f2361320a620e7ef0612c0b565b9492505050612ee9565b612ec261323f61323a61322960208a01612373565b613234612710612b0a565b90612b3a565b612b6d565b612ebc565b90506132506003612acc565b90612e7c565b90506132626002612ab0565b90612e51565b61327c613277613281926106dd565b610497565b6101e9565b90565b61328c610891565b5061329e6132995f613268565b613352565b90565b9160206132c29294936132bb60408201965f830190610d39565b01906102b9565b565b906132d96132d3838390611bc8565b1561018d565b6132e1575050565b6132fb5f92839263e2517d3f60e01b8452600484016132a1565b0390fd5b9050519061330c826101ec565b565b9060208282031261332757613324915f016132ff565b90565b61013c565b90565b1561333657565b5f63526d8be560e11b81528061334e6004820161023c565b0390fd5b61335a610891565b506133636128fa565b906133776133725f84016117f8565b610549565b61339161338b6133865f6129fd565b61031b565b9161031b565b146134ac5760206133d7916133af6133aa5f86016117f8565b610549565b6133cc5f63e39144726133c0610132565b96879586948593610d24565b835260048301610629565b03925af19081156134a757613400600161343593613405935f91613479575b5094018490611828565b61332c565b61342b6134135f8301611858565b61342561341f5f611888565b91611888565b1461332f565b5f600191016119b0565b806134607f5a82a565b8cc97bc62f2041e057e918f6b3b7b4185104d7d4a52ed5c711e72329161099c565b90613469610132565b806134738161023c565b0390a290565b61349a915060203d81116134a0575b6134928183610964565b81019061330e565b5f6133f6565b503d613488565b610d78565b5f63d73bfe6760e01b8152806134c46004820161023c565b0390fd5b634e487b7160e01b5f52605160045260245ffd5b919091806003146135135780600214613503576001036134c8576134ff91610aba565b905b565b5061350d91610a5b565b90613501565b5061351d916109cc565b9061350156fea264697066735822122037bad4c02632bc0cbb7317ce38c7c1bc09e48dc070ec3328ce46a37ff63455a664736f6c634300081e0033","linkReferences":{}},"methodIdentifiers":{"DEFAULT_ADMIN_ROLE()":"a217fddf","ITEMS()":"e2bf56f3","POISON()":"77022bec","R()":"4980e1be","craftBait1(uint256,uint256)":"120f62f6","craftBait2(uint256,uint256)":"368dfdeb","craftBait3(uint256,uint256)":"d4f8c95c","fish(uint256)":"f155cd8c","getRoleAdmin(bytes32)":"248a9ca3","grantRole(bytes32,address)":"2f2ff15d","hasRole(bytes32,address)":"91d14854","randomNumberCallback(uint256,uint256)":"8f561acc","renounceRole(bytes32,address)":"36568abe","revokeRole(bytes32,address)":"d547741f","setVrngSystem(address)":"2f107f03","supportsInterface(bytes4)":"01ffc9a7","vrng()":"62138414"},"id":66}