{"abi":[{"type":"constructor","inputs":[],"stateMutability":"nonpayable"},{"type":"function","name":"DEFAULT_ADMIN_ROLE","inputs":[],"outputs":[{"name":"","type":"bytes32","internalType":"bytes32"}],"stateMutability":"view"},{"type":"function","name":"MODULE_ROLE","inputs":[],"outputs":[{"name":"","type":"bytes32","internalType":"bytes32"}],"stateMutability":"view"},{"type":"function","name":"gameItems","inputs":[],"outputs":[{"name":"","type":"address","internalType":"address"}],"stateMutability":"view"},{"type":"function","name":"gameToken","inputs":[],"outputs":[{"name":"","type":"address","internalType":"address"}],"stateMutability":"view"},{"type":"function","name":"getRoleAdmin","inputs":[{"name":"role","type":"bytes32","internalType":"bytes32"}],"outputs":[{"name":"","type":"bytes32","internalType":"bytes32"}],"stateMutability":"view"},{"type":"function","name":"grantRole","inputs":[{"name":"role","type":"bytes32","internalType":"bytes32"},{"name":"account","type":"address","internalType":"address"}],"outputs":[],"stateMutability":"nonpayable"},{"type":"function","name":"hasRole","inputs":[{"name":"role","type":"bytes32","internalType":"bytes32"},{"name":"account","type":"address","internalType":"address"}],"outputs":[{"name":"","type":"bool","internalType":"bool"}],"stateMutability":"view"},{"type":"function","name":"playerStore","inputs":[],"outputs":[{"name":"","type":"address","internalType":"address"}],"stateMutability":"view"},{"type":"function","name":"renounceRole","inputs":[{"name":"role","type":"bytes32","internalType":"bytes32"},{"name":"callerConfirmation","type":"address","internalType":"address"}],"outputs":[],"stateMutability":"nonpayable"},{"type":"function","name":"revokeRole","inputs":[{"name":"role","type":"bytes32","internalType":"bytes32"},{"name":"account","type":"address","internalType":"address"}],"outputs":[],"stateMutability":"nonpayable"},{"type":"function","name":"rngHub","inputs":[],"outputs":[{"name":"","type":"address","internalType":"address"}],"stateMutability":"view"},{"type":"function","name":"setGameItems","inputs":[{"name":"a","type":"address","internalType":"address"}],"outputs":[],"stateMutability":"nonpayable"},{"type":"function","name":"setGameToken","inputs":[{"name":"a","type":"address","internalType":"address"}],"outputs":[],"stateMutability":"nonpayable"},{"type":"function","name":"setPlayerStore","inputs":[{"name":"a","type":"address","internalType":"address"}],"outputs":[],"stateMutability":"nonpayable"},{"type":"function","name":"setRngHub","inputs":[{"name":"a","type":"address","internalType":"address"}],"outputs":[],"stateMutability":"nonpayable"},{"type":"function","name":"setXGameTokenVault","inputs":[{"name":"a","type":"address","internalType":"address"}],"outputs":[],"stateMutability":"nonpayable"},{"type":"function","name":"supportsInterface","inputs":[{"name":"interfaceId","type":"bytes4","internalType":"bytes4"}],"outputs":[{"name":"","type":"bool","internalType":"bool"}],"stateMutability":"view"},{"type":"function","name":"xGameTokenVault","inputs":[],"outputs":[{"name":"","type":"address","internalType":"address"}],"stateMutability":"view"},{"type":"event","name":"RoleAdminChanged","inputs":[{"name":"role","type":"bytes32","indexed":true,"internalType":"bytes32"},{"name":"previousAdminRole","type":"bytes32","indexed":true,"internalType":"bytes32"},{"name":"newAdminRole","type":"bytes32","indexed":true,"internalType":"bytes32"}],"anonymous":false},{"type":"event","name":"RoleGranted","inputs":[{"name":"role","type":"bytes32","indexed":true,"internalType":"bytes32"},{"name":"account","type":"address","indexed":true,"internalType":"address"},{"name":"sender","type":"address","indexed":true,"internalType":"address"}],"anonymous":false},{"type":"event","name":"RoleRevoked","inputs":[{"name":"role","type":"bytes32","indexed":true,"internalType":"bytes32"},{"name":"account","type":"address","indexed":true,"internalType":"address"},{"name":"sender","type":"address","indexed":true,"internalType":"address"}],"anonymous":false},{"type":"error","name":"AccessControlBadConfirmation","inputs":[]},{"type":"error","name":"AccessControlUnauthorizedAccount","inputs":[{"name":"account","type":"address","internalType":"address"},{"name":"neededRole","type":"bytes32","internalType":"bytes32"}]}],"bytecode":{"object":"0x60806040523461002757610011610069565b61001961002c565b610d3361025d8239610d3390f35b610032565b60405190565b5f80fd5b90565b90565b5f1b90565b61005561005061005a92610036565b61003c565b610039565b90565b6100665f610041565b90565b61007b61007461005d565b339061014b565b50565b5f90565b151590565b61009090610039565b90565b9061009d90610087565b5f5260205260405f2090565b60018060a01b031690565b90565b6100cb6100c66100d0926100a9565b6100b4565b6100a9565b90565b6100dc906100b7565b90565b6100e8906100d3565b90565b906100f5906100df565b5f5260205260405f2090565b9061010d60ff9161003c565b9181191691161790565b61012090610082565b90565b90565b9061013b61013661014292610117565b610123565b8254610101565b9055565b5f0190565b61015361007e565b50610168610162828490610222565b15610082565b5f146101f05761018f600161018a5f610182818690610093565b0185906100eb565b610126565b9061019861024f565b906101d56101cf6101c97f2f8788117e7eff1d82e926ec794901d17c78024a50270940304540a733656f0d95610087565b926100df565b926100df565b926101de61002c565b806101e881610146565b0390a4600190565b50505f90565b5f1c90565b60ff1690565b61020d610212916101f6565b6101fb565b90565b61021f9054610201565b90565b610248915f61023d6102439361023661007e565b5082610093565b016100eb565b610215565b90565b5f90565b61025761024b565b50339056fe60806040526004361015610013575b61077d565b61001d5f3561013c565b806301ffc9a7146101375780631ec1cc1714610132578063248a9ca31461012d5780632f2ff15d14610128578063341881c31461012357806336568abe1461011e5780637ba0ee1d1461011957806380d29e66146101145780638c1599441461010f57806391d148541461010a578063a217fddf14610105578063a6b520c014610100578063b7be8ad6146100fb578063c3dfdae6146100f6578063d4a3001d146100f1578063d4c00212146100ec578063d5076093146100e75763d547741f0361000e57610749565b610714565b6106d0565b61068e565b610659565b610617565b6105e2565b61057e565b61050d565b6104da565b6104a7565b610474565b610422565b6103ed565b6103aa565b610320565b610285565b6101c4565b60e01c90565b60405190565b5f80fd5b5f80fd5b63ffffffff60e01b1690565b61016581610150565b0361016c57565b5f80fd5b9050359061017d8261015c565b565b9060208282031261019857610195915f01610170565b90565b61014c565b151590565b6101ab9061019d565b9052565b91906101c2905f602085019401906101a2565b565b346101f4576101f06101df6101da36600461017f565b610785565b6101e7610142565b918291826101af565b0390f35b610148565b5f91031261020357565b61014c565b1c90565b60018060a01b031690565b61022790600861022c9302610208565b61020c565b90565b9061023a9154610217565b90565b61024960035f9061022f565b90565b60018060a01b031690565b6102609061024c565b90565b61026c90610257565b9052565b9190610283905f60208501940190610263565b565b346102b5576102953660046101f9565b6102b16102a061023d565b6102a8610142565b91829182610270565b0390f35b610148565b90565b6102c6816102ba565b036102cd57565b5f80fd5b905035906102de826102bd565b565b906020828203126102f9576102f6915f016102d1565b90565b61014c565b610307906102ba565b9052565b919061031e905f602085019401906102fe565b565b346103505761034c61033b6103363660046102e0565b610814565b610343610142565b9182918261030b565b0390f35b610148565b61035e81610257565b0361036557565b5f80fd5b9050359061037682610355565b565b91906040838203126103a0578061039461039d925f86016102d1565b93602001610369565b90565b61014c565b5f0190565b346103d9576103c36103bd366004610378565b9061085f565b6103cb610142565b806103d5816103a5565b0390f35b610148565b6103ea60045f9061022f565b90565b3461041d576103fd3660046101f9565b6104196104086103de565b610410610142565b91829182610270565b0390f35b610148565b346104515761043b610435366004610378565b9061086b565b610443610142565b8061044d816103a5565b0390f35b610148565b9060208282031261046f5761046c915f01610369565b90565b61014c565b346104a25761048c610487366004610456565b610950565b610494610142565b8061049e816103a5565b0390f35b610148565b346104d5576104bf6104ba366004610456565b610983565b6104c7610142565b806104d1816103a5565b0390f35b610148565b34610508576104f26104ed366004610456565b6109b6565b6104fa610142565b80610504816103a5565b0390f35b610148565b3461053e5761053a610529610523366004610378565b906109fe565b610531610142565b918291826101af565b0390f35b610148565b90565b5f1b90565b61055f61055a61056492610543565b610546565b6102ba565b90565b6105705f61054b565b90565b61057b610567565b90565b346105ae5761058e3660046101f9565b6105aa610599610573565b6105a1610142565b9182918261030b565b0390f35b610148565b7f5098275140f5753db46c42f6e139939968848633a1298402189fdfdafa69b45390565b6105df6105b3565b90565b34610612576105f23660046101f9565b61060e6105fd6105d7565b610605610142565b9182918261030b565b0390f35b610148565b346106455761062f61062a366004610456565b610a4f565b610637610142565b80610641816103a5565b0390f35b610148565b61065660025f9061022f565b90565b34610689576106693660046101f9565b61068561067461064a565b61067c610142565b91829182610270565b0390f35b610148565b346106bc576106a66106a1366004610456565b610a82565b6106ae610142565b806106b8816103a5565b0390f35b610148565b6106cd60055f9061022f565b90565b34610700576106e03660046101f9565b6106fc6106eb6106c1565b6106f3610142565b91829182610270565b0390f35b610148565b61071160015f9061022f565b90565b34610744576107243660046101f9565b61074061072f610705565b610737610142565b91829182610270565b0390f35b610148565b346107785761076261075c366004610378565b90610ab7565b61076a610142565b80610774816103a5565b0390f35b610148565b5f80fd5b5f90565b61078d610781565b50806107a86107a2637965db0b60e01b610150565b91610150565b149081156107b5575b5090565b6107bf9150610ac3565b5f6107b1565b5f90565b6107d2906102ba565b90565b906107df906107c9565b5f5260205260405f2090565b5f1c90565b90565b6107ff610804916107eb565b6107f0565b90565b61081190546107f3565b90565b600161082c610832926108256107c5565b505f6107d5565b01610807565b90565b906108509161084b61084682610814565b610ae9565b610852565b565b9061085c91610b42565b50565b9061086991610835565b565b908061088661088061087b610bf1565b610257565b91610257565b036108975761089491610bfe565b50565b5f63334bd91960e11b8152806108af600482016103a5565b0390fd5b6108cc906108c76108c2610567565b610ae9565b610943565b565b906108df60018060a01b0391610546565b9181191691161790565b90565b6109006108fb6109059261024c565b6108e9565b61024c565b90565b610911906108ec565b90565b61091d90610908565b90565b90565b9061093861093361093f92610914565b610920565b82546108ce565b9055565b61094e906003610923565b565b610959906108b3565b565b6109749061096f61096a610567565b610ae9565b610976565b565b610981906002610923565b565b61098c9061095b565b565b6109a7906109a261099d610567565b610ae9565b6109a9565b565b6109b4906005610923565b565b6109bf9061098e565b565b906109cb90610914565b5f5260205260405f2090565b60ff1690565b6109e96109ee916107eb565b6109d7565b90565b6109fb90546109dd565b90565b610a24915f610a19610a1f93610a12610781565b50826107d5565b016109c1565b6109f1565b90565b610a4090610a3b610a36610567565b610ae9565b610a42565b565b610a4d906001610923565b565b610a5890610a27565b565b610a7390610a6e610a69610567565b610ae9565b610a75565b565b610a80906004610923565b565b610a8b90610a5a565b565b90610aa891610aa3610a9e82610814565b610ae9565b610aaa565b565b90610ab491610bfe565b50565b90610ac191610a8d565b565b610acb610781565b50610ae5610adf6301ffc9a760e01b610150565b91610150565b1490565b610afb90610af5610bf1565b90610cc2565b565b90610b0960ff91610546565b9181191691161790565b610b1c9061019d565b90565b90565b90610b37610b32610b3e92610b13565b610b1f565b8254610afd565b9055565b610b4a610781565b50610b5f610b598284906109fe565b1561019d565b5f14610be757610b866001610b815f610b798186906107d5565b0185906109c1565b610b22565b90610b8f610bf1565b90610bcc610bc6610bc07f2f8788117e7eff1d82e926ec794901d17c78024a50270940304540a733656f0d956107c9565b92610914565b92610914565b92610bd5610142565b80610bdf816103a5565b0390a4600190565b50505f90565b5f90565b610bf9610bed565b503390565b610c06610781565b50610c128183906109fe565b5f14610c9957610c385f610c335f610c2b8186906107d5565b0185906109c1565b610b22565b90610c41610bf1565b90610c7e610c78610c727ff6391f5c32d9c69d2a47ea670b442974b53935d1edc7fd64eb21e047a839171b956107c9565b92610914565b92610914565b92610c87610142565b80610c91816103a5565b0390a4600190565b50505f90565b916020610cc0929493610cb960408201965f830190610263565b01906102fe565b565b90610cd7610cd18383906109fe565b1561019d565b610cdf575050565b610cf95f92839263e2517d3f60e01b845260048401610c9f565b0390fdfea26469706673582212209425e58ab916aaff1d86c68b0ab06e0d5eeebb5f398604067c28563c3dd7ac3a64736f6c634300081e0033","linkReferences":{}},"methodIdentifiers":{"DEFAULT_ADMIN_ROLE()":"a217fddf","MODULE_ROLE()":"a6b520c0","gameItems()":"d5076093","gameToken()":"c3dfdae6","getRoleAdmin(bytes32)":"248a9ca3","grantRole(bytes32,address)":"2f2ff15d","hasRole(bytes32,address)":"91d14854","playerStore()":"d4c00212","renounceRole(bytes32,address)":"36568abe","revokeRole(bytes32,address)":"d547741f","rngHub()":"341881c3","setGameItems(address)":"b7be8ad6","setGameToken(address)":"80d29e66","setPlayerStore(address)":"8c159944","setRngHub(address)":"d4a3001d","setXGameTokenVault(address)":"7ba0ee1d","supportsInterface(bytes4)":"01ffc9a7","xGameTokenVault()":"1ec1cc17"},"id":49}