{"abi":[{"type":"constructor","inputs":[{"name":"regAddr","type":"address","internalType":"address"}],"stateMutability":"nonpayable"},{"type":"function","name":"DEFAULT_ADMIN_ROLE","inputs":[],"outputs":[{"name":"","type":"bytes32","internalType":"bytes32"}],"stateMutability":"view"},{"type":"function","name":"R","inputs":[],"outputs":[{"name":"","type":"address","internalType":"contract IGameRegistry"}],"stateMutability":"view"},{"type":"function","name":"Y","inputs":[],"outputs":[{"name":"","type":"address","internalType":"contract IGameToken"}],"stateMutability":"view"},{"type":"function","name":"YE","inputs":[],"outputs":[{"name":"","type":"address","internalType":"contract IERC20"}],"stateMutability":"view"},{"type":"function","name":"getRoleAdmin","inputs":[{"name":"role","type":"bytes32","internalType":"bytes32"}],"outputs":[{"name":"","type":"bytes32","internalType":"bytes32"}],"stateMutability":"view"},{"type":"function","name":"grantRole","inputs":[{"name":"role","type":"bytes32","internalType":"bytes32"},{"name":"account","type":"address","internalType":"address"}],"outputs":[],"stateMutability":"nonpayable"},{"type":"function","name":"hasRole","inputs":[{"name":"role","type":"bytes32","internalType":"bytes32"},{"name":"account","type":"address","internalType":"address"}],"outputs":[{"name":"","type":"bool","internalType":"bool"}],"stateMutability":"view"},{"type":"function","name":"levelUp","inputs":[{"name":"targetLevel","type":"uint16","internalType":"uint16"}],"outputs":[],"stateMutability":"nonpayable"},{"type":"function","name":"maxLevel","inputs":[],"outputs":[{"name":"","type":"uint16","internalType":"uint16"}],"stateMutability":"view"},{"type":"function","name":"priceForLevel","inputs":[{"name":"","type":"uint16","internalType":"uint16"}],"outputs":[{"name":"","type":"uint256","internalType":"uint256"}],"stateMutability":"view"},{"type":"function","name":"renounceRole","inputs":[{"name":"role","type":"bytes32","internalType":"bytes32"},{"name":"callerConfirmation","type":"address","internalType":"address"}],"outputs":[],"stateMutability":"nonpayable"},{"type":"function","name":"revokeRole","inputs":[{"name":"role","type":"bytes32","internalType":"bytes32"},{"name":"account","type":"address","internalType":"address"}],"outputs":[],"stateMutability":"nonpayable"},{"type":"function","name":"setMaxLevel","inputs":[{"name":"m","type":"uint16","internalType":"uint16"}],"outputs":[],"stateMutability":"nonpayable"},{"type":"function","name":"setPrice","inputs":[{"name":"level","type":"uint16","internalType":"uint16"},{"name":"price","type":"uint256","internalType":"uint256"}],"outputs":[],"stateMutability":"nonpayable"},{"type":"function","name":"supportsInterface","inputs":[{"name":"interfaceId","type":"bytes4","internalType":"bytes4"}],"outputs":[{"name":"","type":"bool","internalType":"bool"}],"stateMutability":"view"},{"type":"event","name":"RoleAdminChanged","inputs":[{"name":"role","type":"bytes32","indexed":true,"internalType":"bytes32"},{"name":"previousAdminRole","type":"bytes32","indexed":true,"internalType":"bytes32"},{"name":"newAdminRole","type":"bytes32","indexed":true,"internalType":"bytes32"}],"anonymous":false},{"type":"event","name":"RoleGranted","inputs":[{"name":"role","type":"bytes32","indexed":true,"internalType":"bytes32"},{"name":"account","type":"address","indexed":true,"internalType":"address"},{"name":"sender","type":"address","indexed":true,"internalType":"address"}],"anonymous":false},{"type":"event","name":"RoleRevoked","inputs":[{"name":"role","type":"bytes32","indexed":true,"internalType":"bytes32"},{"name":"account","type":"address","indexed":true,"internalType":"address"},{"name":"sender","type":"address","indexed":true,"internalType":"address"}],"anonymous":false},{"type":"error","name":"AccessControlBadConfirmation","inputs":[]},{"type":"error","name":"AccessControlUnauthorizedAccount","inputs":[{"name":"account","type":"address","internalType":"address"},{"name":"neededRole","type":"bytes32","internalType":"bytes32"}]}],"bytecode":{"object":"0x60e06040523461005f57610019610014610124565b6103df565b610021610064565b6114c861073e823960805181818161051501528181610eb3015261106e015260a0518181816104660152610ff7015260c0518161059c01526114c890f35b61006a565b60405190565b5f80fd5b601f801991011690565b634e487b7160e01b5f52604160045260245ffd5b906100969061006e565b810190811060018060401b038211176100ae57604052565b610078565b906100c66100bf610064565b928361008c565b565b5f80fd5b60018060a01b031690565b6100e0906100cc565b90565b6100ec816100d7565b036100f357565b5f80fd5b90505190610104826100e3565b565b9060208282031261011f5761011c915f016100f7565b90565b6100c8565b610142611c0680380380610137816100b3565b928339810190610106565b90565b5f1b90565b9061015761ffff91610145565b9181191691161790565b90565b61ffff1690565b90565b61018261017d61018792610161565b61016b565b610164565b90565b90565b906101a261019d6101a99261016e565b61018a565b825461014a565b9055565b6101c16101bc6101c6926100cc565b61016b565b6100cc565b90565b6101d2906101ad565b90565b6101de906101c9565b90565b6101ea906100d7565b90565b6101f790516101e1565b90565b610203906101ad565b90565b61020f906101fa565b90565b60e01b90565b5f0190565b610225610064565b3d5f823e3d90fd5b610236906101ad565b90565b6102429061022d565b90565b61024e906101ad565b90565b61025a90610245565b90565b90565b90565b61027761027261027c9261025d565b610145565b610260565b90565b6102885f610263565b90565b90565b90565b6102a56102a06102aa9261028b565b61016b565b61028e565b90565b90565b6102c46102bf6102c9926102ad565b61016b565b610164565b90565b906102d6906102b0565b5f5260205260405f2090565b906102ee5f1991610145565b9181191691161790565b61030c6103076103119261028e565b61016b565b61028e565b90565b90565b9061032c610327610333926102f8565b610314565b82546102e2565b9055565b90565b61034e61034961035392610337565b61016b565b61028e565b90565b90565b61036d61036861037292610356565b61016b565b610164565b90565b9061037f90610359565b5f5260205260405f2090565b90565b6103a261039d6103a79261038b565b61016b565b61028e565b90565b90565b6103c16103bc6103c6926103aa565b61016b565b610164565b90565b906103d3906103ad565b5f5260205260405f2090565b6103f4906103ef6032600261018d565b6101d5565b608052610424602061040e61040960806101ed565b610206565b63c3dfdae69061041c610064565b938492610212565b8252818061043460048201610218565b03915afa80156105955761044f915f91610567575b50610239565b60a05261047f602061046961046460806101ed565b610206565b63c3dfdae690610477610064565b938492610212565b8252818061048f60048201610218565b03915afa8015610562576104aa915f91610534575b50610251565b60c0526104bf6104b861027f565b339061062c565b506104e46104d4678ac7230489e80000610291565b6104df6001806102cc565b610317565b61050b6104f968015af1d78b58c4000061033a565b6105066001600290610375565b610317565b6105326105206802b5e3af16b188000061038e565b61052d60016003906103c9565b610317565b565b610555915060203d811161055b575b61054d818361008c565b810190610106565b5f6104a4565b503d610543565b61021d565b610588915060203d811161058e575b610580818361008c565b810190610106565b5f610449565b503d610576565b61021d565b5f90565b151590565b6105ac90610260565b90565b906105b9906105a3565b5f5260205260405f2090565b6105ce906101fa565b90565b906105db906105c5565b5f5260205260405f2090565b906105f360ff91610145565b9181191691161790565b6106069061059e565b90565b90565b9061062161061c610628926105fd565b610609565b82546105e7565b9055565b61063461059a565b50610649610643828490610703565b1561059e565b5f146106d157610670600161066b5f6106638186906105af565b0185906105d1565b61060c565b90610679610730565b906106b66106b06106aa7f2f8788117e7eff1d82e926ec794901d17c78024a50270940304540a733656f0d956105a3565b926105c5565b926105c5565b926106bf610064565b806106c981610218565b0390a4600190565b50505f90565b5f1c90565b60ff1690565b6106ee6106f3916106d7565b6106dc565b90565b61070090546106e2565b90565b610729915f61071e6107249361071761059a565b50826105af565b016105d1565b6106f6565b90565b5f90565b61073861072c565b50339056fe60806040526004361015610013575b610878565b61001d5f3561010c565b806301ffc9a71461010757806304babba914610102578063248a9ca3146100fd5780632f2ff15d146100f857806336568abe146100f357806345b3fe42146100ee5780634980e1be146100e95780637cb5ac9b146100e457806391d14854146100df578063a217fddf146100da578063bbc2986c146100d5578063cc06c359146100d0578063d547741f146100cb578063f093f1b5146100c65763f284dc050361000e57610845565b610812565b6107de565b6107a9565b610717565b610692565b610621565b6105ec565b610565565b6104de565b610421565b6103ed565b61034c565b6102b1565b610194565b60e01c90565b60405190565b5f80fd5b5f80fd5b63ffffffff60e01b1690565b61013581610120565b0361013c57565b5f80fd5b9050359061014d8261012c565b565b9060208282031261016857610165915f01610140565b90565b61011c565b151590565b61017b9061016d565b9052565b9190610192905f60208501940190610172565b565b346101c4576101c06101af6101aa36600461014f565b610880565b6101b7610112565b9182918261017f565b0390f35b610118565b61ffff1690565b6101d9816101c9565b036101e057565b5f80fd5b905035906101f1826101d0565b565b9060208282031261020c57610209915f016101e4565b90565b61011c565b90565b61022861022361022d926101c9565b610211565b6101c9565b90565b9061023a90610214565b5f5260205260405f2090565b1c90565b90565b61025d9060086102629302610246565b61024a565b90565b90610270915461024d565b90565b610289906102846001915f92610230565b610265565b90565b90565b6102989061028c565b9052565b91906102af905f6020850194019061028f565b565b346102e1576102dd6102cc6102c73660046101f3565b610273565b6102d4610112565b9182918261029c565b0390f35b610118565b90565b6102f2816102e6565b036102f957565b5f80fd5b9050359061030a826102e9565b565b9060208282031261032557610322915f016102fd565b90565b61011c565b610333906102e6565b9052565b919061034a905f6020850194019061032a565b565b3461037c5761037861036761036236600461030c565b61090f565b61036f610112565b91829182610337565b0390f35b610118565b60018060a01b031690565b61039590610381565b90565b6103a18161038c565b036103a857565b5f80fd5b905035906103b982610398565b565b91906040838203126103e357806103d76103e0925f86016102fd565b936020016103ac565b90565b61011c565b5f0190565b3461041c576104066104003660046103bb565b9061095a565b61040e610112565b80610418816103e8565b0390f35b610118565b346104505761043a6104343660046103bb565b90610966565b610442610112565b8061044c816103e8565b0390f35b610118565b5f91031261045f57565b61011c565b7f000000000000000000000000000000000000000000000000000000000000000090565b61049c6104976104a192610381565b610211565b610381565b90565b6104ad90610488565b90565b6104b9906104a4565b90565b6104c5906104b0565b9052565b91906104dc905f602085019401906104bc565b565b3461050e576104ee366004610455565b61050a6104f9610464565b610501610112565b918291826104c9565b0390f35b610118565b7f000000000000000000000000000000000000000000000000000000000000000090565b610540906104a4565b90565b61054c90610537565b9052565b9190610563905f60208501940190610543565b565b3461059557610575366004610455565b610591610580610513565b610588610112565b91829182610550565b0390f35b610118565b7f000000000000000000000000000000000000000000000000000000000000000090565b6105c7906104a4565b90565b6105d3906105be565b9052565b91906105ea905f602085019401906105ca565b565b3461061c576105fc366004610455565b61061861060761059a565b61060f610112565b918291826105d7565b0390f35b610118565b346106525761064e61063d6106373660046103bb565b906109f7565b610645610112565b9182918261017f565b0390f35b610118565b90565b5f1b90565b61067361066e61067892610657565b61065a565b6102e6565b90565b6106845f61065f565b90565b61068f61067b565b90565b346106c2576106a2366004610455565b6106be6106ad610687565b6106b5610112565b91829182610337565b0390f35b610118565b6106d08161028c565b036106d757565b5f80fd5b905035906106e8826106c7565b565b9190604083820312610712578061070661070f925f86016101e4565b936020016106db565b90565b61011c565b346107465761073061072a3660046106ea565b90610aa7565b610738610112565b80610742816103e8565b0390f35b610118565b61ffff1690565b6107629060086107679302610246565b61074b565b90565b906107759154610752565b90565b61078460025f9061076a565b90565b610790906101c9565b9052565b91906107a7905f60208501940190610787565b565b346107d9576107b9366004610455565b6107d56107c4610778565b6107cc610112565b91829182610794565b0390f35b610118565b3461080d576107f76107f13660046103bb565b90610add565b6107ff610112565b80610809816103e8565b0390f35b610118565b346108405761082a6108253660046101f3565b610b4b565b610832610112565b8061083c816103e8565b0390f35b610118565b346108735761085d6108583660046101f3565b610ea9565b610865610112565b8061086f816103e8565b0390f35b610118565b5f80fd5b5f90565b61088861087c565b50806108a361089d637965db0b60e01b610120565b91610120565b149081156108b0575b5090565b6108ba9150611258565b5f6108ac565b5f90565b6108cd906102e6565b90565b906108da906108c4565b5f5260205260405f2090565b5f1c90565b90565b6108fa6108ff916108e6565b6108eb565b90565b61090c90546108ee565b90565b600161092761092d926109206108c0565b505f6108d0565b01610902565b90565b9061094b916109466109418261090f565b61127e565b61094d565b565b90610957916112d7565b50565b9061096491610930565b565b908061098161097b610976611386565b61038c565b9161038c565b036109925761098f91611393565b50565b5f63334bd91960e11b8152806109aa600482016103e8565b0390fd5b6109b7906104a4565b90565b906109c4906109ae565b5f5260205260405f2090565b60ff1690565b6109e26109e7916108e6565b6109d0565b90565b6109f490546109d6565b90565b610a1d915f610a12610a1893610a0b61087c565b50826108d0565b016109ba565b6109ea565b90565b90610a3a91610a35610a3061067b565b61127e565b610a91565b565b90610a485f199161065a565b9181191691161790565b610a66610a61610a6b9261028c565b610211565b61028c565b90565b90565b90610a86610a81610a8d92610a52565b610a6e565b8254610a3c565b9055565b610aa0610aa592916001610230565b610a71565b565b90610ab191610a20565b565b90610ace91610ac9610ac48261090f565b61127e565b610ad0565b565b90610ada91611393565b50565b90610ae791610ab3565b565b610b0290610afd610af861067b565b61127e565b610b3e565b565b90610b1161ffff9161065a565b9181191691161790565b90565b90610b33610b2e610b3a92610214565b610b1b565b8254610b04565b9055565b610b49906002610b1e565b565b610b5490610ae9565b565b5f80fd5b601f801991011690565b634e487b7160e01b5f52604160045260245ffd5b90610b8290610b5a565b810190811067ffffffffffffffff821117610b9c57604052565b610b64565b60e01b90565b90505190610bb482610398565b565b90602082820312610bcf57610bcc915f01610ba7565b90565b61011c565b610bdc610112565b3d5f823e3d90fd5b610bed90610488565b90565b610bf990610be4565b90565b610c05906104a4565b90565b610c118161016d565b03610c1857565b5f80fd5b90505190610c2982610c08565b565b90505190610c38826101d0565b565b67ffffffffffffffff1690565b610c5081610c3a565b03610c5757565b5f80fd5b90505190610c6882610c47565b565b608081830312610cab57610c80825f8301610c1c565b92610ca8610c918460208501610c2b565b93610c9f8160408601610c5b565b93606001610c5b565b90565b61011c565b610cb99061038c565b9052565b9190610cd0905f60208501940190610cb0565b565b610cde610ce3916108e6565b61074b565b90565b610cf09054610cd2565b90565b60209181520190565b5f7f626164206c6576656c0000000000000000000000000000000000000000000000910152565b610d306009602092610cf3565b610d3981610cfc565b0190565b610d529060208101905f818303910152610d23565b90565b15610d5c57565b610d64610112565b62461bcd60e51b815280610d7a60048201610d3d565b0390fd5b610d92610d8d610d9792610657565b610211565b61028c565b90565b90565b610db1610dac610db692610d9a565b610211565b6101c9565b90565b634e487b7160e01b5f52601160045260245ffd5b610dd9610ddf916101c9565b916101c9565b019061ffff8211610dec57565b610db9565b610dfa906101c9565b61ffff8114610e095760010190565b610db9565b610e1a610e1f916108e6565b61024a565b90565b610e2c9054610e0e565b90565b610e3e610e449193929361028c565b9261028c565b8201809211610e4f57565b610db9565b5f910312610e5e57565b61011c565b916020610e84929493610e7d60408201965f830190610cb0565b019061028f565b565b916020610ea7929493610ea060408201965f830190610cb0565b0190610787565b565b610eed6020610ed77f0000000000000000000000000000000000000000000000000000000000000000610537565b63d4c0021290610ee5610112565b938492610ba1565b82528180610efd600482016103e8565b03915afa90811561125357610f27610f22610f51936080935f91611225575b50610bf0565b610bfc565b632f8eb9cb90610f463392610f3a610112565b95869485938493610ba1565b835260048301610cbd565b03915afa908115611220575f809290506111f0575b509181610f7b610f75856101c9565b916101c9565b11806111c7575b610f8b90610d55565b610fa8610f975f610d7e565b93610fa26001610d9d565b90610dcd565b925b83610fbd610fb7856101c9565b916101c9565b11610fef57610fe3610fe991610fdd610fd860018890610230565b610e22565b90610e2f565b93610df1565b92610faa565b90925061101b7f00000000000000000000000000000000000000000000000000000000000000006104b0565b90639dc29fac90339092803b156111c2576110495f809461105461103d610112565b97889687958694610ba1565b845260048401610e63565b03925af180156111bd57611191575b506110a860206110927f0000000000000000000000000000000000000000000000000000000000000000610537565b63d4c00212906110a0610112565b938492610ba1565b825281806110b8600482016103e8565b03915afa90811561118c576110dd916110d8915f9161115e575b50610bf0565b610bfc565b906374c0b0ac90339092803b156111595761110b5f80946111166110ff610112565b97889687958694610ba1565b845260048401610e86565b03925af1801561115457611128575b50565b611147905f3d811161114d575b61113f8183610b78565b810190610e54565b5f611125565b503d611135565b610bd4565b610b56565b61117f915060203d8111611185575b6111778183610b78565b810190610bb6565b5f6110d2565b503d61116d565b610bd4565b6111b0905f3d81116111b6575b6111a88183610b78565b810190610e54565b5f611063565b503d61119e565b610bd4565b610b56565b50610f8b826111e76111e16111dc6002610ce6565b6101c9565b916101c9565b11159050610f82565b611211915060803d8111611219575b6112098183610b78565b810190610c6a565b505090610f66565b503d6111ff565b610bd4565b611246915060203d811161124c575b61123e8183610b78565b810190610bb6565b5f610f1c565b503d611234565b610bd4565b61126061087c565b5061127a6112746301ffc9a760e01b610120565b91610120565b1490565b6112909061128a611386565b90611457565b565b9061129e60ff9161065a565b9181191691161790565b6112b19061016d565b90565b90565b906112cc6112c76112d3926112a8565b6112b4565b8254611292565b9055565b6112df61087c565b506112f46112ee8284906109f7565b1561016d565b5f1461137c5761131b60016113165f61130e8186906108d0565b0185906109ba565b6112b7565b90611324611386565b9061136161135b6113557f2f8788117e7eff1d82e926ec794901d17c78024a50270940304540a733656f0d956108c4565b926109ae565b926109ae565b9261136a610112565b80611374816103e8565b0390a4600190565b50505f90565b5f90565b61138e611382565b503390565b61139b61087c565b506113a78183906109f7565b5f1461142e576113cd5f6113c85f6113c08186906108d0565b0185906109ba565b6112b7565b906113d6611386565b9061141361140d6114077ff6391f5c32d9c69d2a47ea670b442974b53935d1edc7fd64eb21e047a839171b956108c4565b926109ae565b926109ae565b9261141c610112565b80611426816103e8565b0390a4600190565b50505f90565b91602061145592949361144e60408201965f830190610cb0565b019061032a565b565b9061146c6114668383906109f7565b1561016d565b611474575050565b61148e5f92839263e2517d3f60e01b845260048401611434565b0390fdfea2646970667358221220447b594261d711164a24856170cdb57e5a2da324c9cac136a3b4790212093ccf64736f6c634300081e0033","linkReferences":{}},"methodIdentifiers":{"DEFAULT_ADMIN_ROLE()":"a217fddf","R()":"4980e1be","Y()":"45b3fe42","YE()":"7cb5ac9b","getRoleAdmin(bytes32)":"248a9ca3","grantRole(bytes32,address)":"2f2ff15d","hasRole(bytes32,address)":"91d14854","levelUp(uint16)":"f284dc05","maxLevel()":"cc06c359","priceForLevel(uint16)":"04babba9","renounceRole(bytes32,address)":"36568abe","revokeRole(bytes32,address)":"d547741f","setMaxLevel(uint16)":"f093f1b5","setPrice(uint16,uint256)":"bbc2986c","supportsInterface(bytes4)":"01ffc9a7"},"id":67}