{"abi":[{"type":"constructor","inputs":[{"name":"_gameToken","type":"address","internalType":"address"},{"name":"ratePerEth_","type":"uint256","internalType":"uint256"}],"stateMutability":"nonpayable"},{"type":"function","name":"GAME_TOKEN","inputs":[],"outputs":[{"name":"","type":"address","internalType":"contract IGameToken"}],"stateMutability":"view"},{"type":"function","name":"RATE_PER_ETH","inputs":[],"outputs":[{"name":"","type":"uint256","internalType":"uint256"}],"stateMutability":"view"},{"type":"function","name":"depositNativeForGameToken","inputs":[{"name":"amount","type":"uint256","internalType":"uint256"}],"outputs":[],"stateMutability":"nonpayable"}],"bytecode":{"object":"0x60c06040523461004f5761001a610014610149565b906101a2565b610022610054565b61055c6101b4823960805181818160ed0152610481015260a0518181816101aa0152610440015261055c90f35b61005a565b60405190565b5f80fd5b601f801991011690565b634e487b7160e01b5f52604160045260245ffd5b906100869061005e565b810190811060018060401b0382111761009e57604052565b610068565b906100b66100af610054565b928361007c565b565b5f80fd5b60018060a01b031690565b6100d0906100bc565b90565b6100dc816100c7565b036100e357565b5f80fd5b905051906100f4826100d3565b565b90565b610102816100f6565b0361010957565b5f80fd5b9050519061011a826100f9565b565b91906040838203126101445780610138610141925f86016100e7565b9360200161010d565b90565b6100b8565b6101676107108038038061015c816100a3565b92833981019061011c565b9091565b90565b61018261017d610187926100bc565b61016b565b6100bc565b90565b6101939061016e565b90565b61019f9061018a565b90565b6101ab90610196565b60805260a05256fe60806040526004361015610013575b610223565b61001d5f3561004c565b806359916cc5146100475780637690292f146100425763b4b477db0361000e576101ee565b610173565b6100a9565b60e01c90565b60405190565b5f80fd5b5f80fd5b90565b61006c81610060565b0361007357565b5f80fd5b9050359061008482610063565b565b9060208282031261009f5761009c915f01610077565b90565b61005c565b5f0190565b346100d7576100c16100bc366004610086565b61041b565b6100c9610052565b806100d3816100a4565b0390f35b610058565b5f9103126100e657565b61005c565b7f000000000000000000000000000000000000000000000000000000000000000090565b60018060a01b031690565b90565b61013161012c6101369261010f565b61011a565b61010f565b90565b6101429061011d565b90565b61014e90610139565b90565b61015a90610145565b9052565b9190610171905f60208501940190610151565b565b346101a3576101833660046100dc565b61019f61018e6100eb565b610196610052565b9182918261015e565b0390f35b610058565b7f000000000000000000000000000000000000000000000000000000000000000090565b6101d590610060565b9052565b91906101ec905f602085019401906101cc565b565b3461021e576101fe3660046100dc565b61021a6102096101a8565b610211610052565b918291826101d9565b0390f35b610058565b5f80fd5b90565b61023e61023961024392610227565b61011a565b610060565b90565b60209181520190565b5f7f6e6f2076616c7565000000000000000000000000000000000000000000000000910152565b6102836008602092610246565b61028c8161024f565b0190565b6102a59060208101905f818303910152610276565b90565b156102af57565b6102b7610052565b62461bcd60e51b8152806102cd60048201610290565b0390fd5b634e487b7160e01b5f52601160045260245ffd5b6102f46102fa91939293610060565b92610060565b91610306838202610060565b92818404149015171561031557565b6102d1565b90565b61033161032c6103369261031a565b61011a565b610060565b90565b634e487b7160e01b5f52601260045260245ffd5b61035961035f91610060565b91610060565b90811561036a570490565b610339565b5f80fd5b601f801991011690565b634e487b7160e01b5f52604160045260245ffd5b9061039b90610373565b810190811067ffffffffffffffff8211176103b557604052565b61037d565b60e01b90565b5f9103126103ca57565b61005c565b6103d89061010f565b90565b6103e4906103cf565b9052565b91602061040992949361040260408201965f8301906103db565b01906101cc565b565b610413610052565b3d5f823e3d90fd5b61046561047c9161043e816104386104325f61022a565b91610060565b116102a8565b7f0000000000000000000000000000000000000000000000000000000000000000906102e5565b610476670de0b6b3a764000061031d565b9061034d565b6104a57f0000000000000000000000000000000000000000000000000000000000000000610145565b906340c10f1990339092803b15610521576104d35f80946104de6104c7610052565b978896879586946103ba565b8452600484016103e8565b03925af1801561051c576104f0575b50565b61050f905f3d8111610515575b6105078183610391565b8101906103c0565b5f6104ed565b503d6104fd565b61040b565b61036f56fea2646970667358221220348d64671d2885482e77760e2ba2befb11753ce2f2c15fb91039656f1e92164e64736f6c634300081e0033","linkReferences":{}},"methodIdentifiers":{"GAME_TOKEN()":"7690292f","RATE_PER_ETH()":"b4b477db","depositNativeForGameToken(uint256)":"59916cc5"},"id":60}