{"abi":[{"type":"constructor","inputs":[],"stateMutability":"nonpayable"},{"type":"function","name":"balanceOf","inputs":[{"name":"account","type":"address","internalType":"address"},{"name":"id","type":"uint256","internalType":"uint256"}],"outputs":[{"name":"","type":"uint256","internalType":"uint256"}],"stateMutability":"view"},{"type":"function","name":"balanceOfBatch","inputs":[{"name":"accounts","type":"address[]","internalType":"address[]"},{"name":"ids","type":"uint256[]","internalType":"uint256[]"}],"outputs":[{"name":"","type":"uint256[]","internalType":"uint256[]"}],"stateMutability":"view"},{"type":"function","name":"burn","inputs":[{"name":"from","type":"address","internalType":"address"},{"name":"id","type":"uint256","internalType":"uint256"},{"name":"amount","type":"uint256","internalType":"uint256"}],"outputs":[],"stateMutability":"nonpayable"},{"type":"function","name":"isApprovedForAll","inputs":[{"name":"account","type":"address","internalType":"address"},{"name":"operator","type":"address","internalType":"address"}],"outputs":[{"name":"","type":"bool","internalType":"bool"}],"stateMutability":"view"},{"type":"function","name":"mint","inputs":[{"name":"to","type":"address","internalType":"address"},{"name":"id","type":"uint256","internalType":"uint256"},{"name":"amount","type":"uint256","internalType":"uint256"}],"outputs":[],"stateMutability":"nonpayable"},{"type":"function","name":"safeBatchTransferFrom","inputs":[{"name":"from","type":"address","internalType":"address"},{"name":"to","type":"address","internalType":"address"},{"name":"ids","type":"uint256[]","internalType":"uint256[]"},{"name":"values","type":"uint256[]","internalType":"uint256[]"},{"name":"data","type":"bytes","internalType":"bytes"}],"outputs":[],"stateMutability":"nonpayable"},{"type":"function","name":"safeTransferFrom","inputs":[{"name":"from","type":"address","internalType":"address"},{"name":"to","type":"address","internalType":"address"},{"name":"id","type":"uint256","internalType":"uint256"},{"name":"value","type":"uint256","internalType":"uint256"},{"name":"data","type":"bytes","internalType":"bytes"}],"outputs":[],"stateMutability":"nonpayable"},{"type":"function","name":"setApprovalForAll","inputs":[{"name":"operator","type":"address","internalType":"address"},{"name":"approved","type":"bool","internalType":"bool"}],"outputs":[],"stateMutability":"nonpayable"},{"type":"function","name":"supportsInterface","inputs":[{"name":"interfaceId","type":"bytes4","internalType":"bytes4"}],"outputs":[{"name":"","type":"bool","internalType":"bool"}],"stateMutability":"view"},{"type":"function","name":"uri","inputs":[{"name":"","type":"uint256","internalType":"uint256"}],"outputs":[{"name":"","type":"string","internalType":"string"}],"stateMutability":"view"},{"type":"event","name":"ApprovalForAll","inputs":[{"name":"account","type":"address","indexed":true,"internalType":"address"},{"name":"operator","type":"address","indexed":true,"internalType":"address"},{"name":"approved","type":"bool","indexed":false,"internalType":"bool"}],"anonymous":false},{"type":"event","name":"TransferBatch","inputs":[{"name":"operator","type":"address","indexed":true,"internalType":"address"},{"name":"from","type":"address","indexed":true,"internalType":"address"},{"name":"to","type":"address","indexed":true,"internalType":"address"},{"name":"ids","type":"uint256[]","indexed":false,"internalType":"uint256[]"},{"name":"values","type":"uint256[]","indexed":false,"internalType":"uint256[]"}],"anonymous":false},{"type":"event","name":"TransferSingle","inputs":[{"name":"operator","type":"address","indexed":true,"internalType":"address"},{"name":"from","type":"address","indexed":true,"internalType":"address"},{"name":"to","type":"address","indexed":true,"internalType":"address"},{"name":"id","type":"uint256","indexed":false,"internalType":"uint256"},{"name":"value","type":"uint256","indexed":false,"internalType":"uint256"}],"anonymous":false},{"type":"event","name":"URI","inputs":[{"name":"value","type":"string","indexed":false,"internalType":"string"},{"name":"id","type":"uint256","indexed":true,"internalType":"uint256"}],"anonymous":false},{"type":"error","name":"ERC1155InsufficientBalance","inputs":[{"name":"sender","type":"address","internalType":"address"},{"name":"balance","type":"uint256","internalType":"uint256"},{"name":"needed","type":"uint256","internalType":"uint256"},{"name":"tokenId","type":"uint256","internalType":"uint256"}]},{"type":"error","name":"ERC1155InvalidApprover","inputs":[{"name":"approver","type":"address","internalType":"address"}]},{"type":"error","name":"ERC1155InvalidArrayLength","inputs":[{"name":"idsLength","type":"uint256","internalType":"uint256"},{"name":"valuesLength","type":"uint256","internalType":"uint256"}]},{"type":"error","name":"ERC1155InvalidOperator","inputs":[{"name":"operator","type":"address","internalType":"address"}]},{"type":"error","name":"ERC1155InvalidReceiver","inputs":[{"name":"receiver","type":"address","internalType":"address"}]},{"type":"error","name":"ERC1155InvalidSender","inputs":[{"name":"sender","type":"address","internalType":"address"}]},{"type":"error","name":"ERC1155MissingApprovalForAll","inputs":[{"name":"operator","type":"address","internalType":"address"},{"name":"owner","type":"address","internalType":"address"}]}],"bytecode":{"object":"0x608060405234610027576100116100df565b61001961002c565b611ce66103618239611ce690f35b610032565b60405190565b5f80fd5b601f801991011690565b634e487b7160e01b5f52604160045260245ffd5b9061005e90610036565b810190811060018060401b0382111761007657604052565b610040565b9061008e61008761002c565b9283610054565b565b60018060401b0381116100ac576100a8602091610036565b0190565b610040565b906100c36100be83610090565b61007b565b918252565b6100d15f6100b1565b90565b6100dc6100c8565b90565b6100ef6100ea6100d4565b6100f1565b565b6100fa90610353565b565b5190565b634e487b7160e01b5f52602260045260245ffd5b9060016002830492168015610134575b602083101461012f57565b610100565b91607f1691610124565b5f5260205f2090565b601f602091010490565b1b90565b9190600861017091029161016a5f1984610151565b92610151565b9181191691161790565b90565b90565b61019461018f6101999261017a565b61017d565b61017a565b90565b90565b91906101b56101b06101bd93610180565b61019c565b908354610155565b9055565b5f90565b6101d7916101d16101c1565b9161019f565b565b5b8181106101e5575050565b806101f25f6001936101c5565b016101da565b9190601f8111610208575b505050565b6102146102399361013e565b90602061022084610147565b83019310610241575b61023290610147565b01906101d9565b5f8080610203565b915061023281929050610229565b1c90565b90610263905f199060080261024f565b191690565b8161027291610253565b906002021790565b90610284816100fc565b9060018060401b038211610342576102a6826102a08554610114565b856101f8565b602090601f83116001146102da579180916102c9935f926102ce575b5050610268565b90555b565b90915001515f806102c2565b601f198316916102e98561013e565b925f5b81811061032a57509160029391856001969410610310575b505050020190556102cc565b610320910151601f841690610253565b90555f8080610304565b919360206001819287870151815501950192016102ec565b610040565b906103519161027a565b565b61035e906002610347565b56fe60806040526004361015610013575b61096e565b61001d5f356100bb565b8062fdd58e146100b657806301ffc9a7146100b15780630e89341c146100ac578063156e29f6146100a75780632eb2c2d6146100a25780634e1273f41461009d578063a22cb46514610098578063e985e9c514610093578063f242432a1461008e5763f5298aca0361000e5761093a565b610903565b61085e565b6107fd565b610777565b6105ad565b61035e565b6102ea565b61022c565b610182565b60e01c90565b60405190565b5f80fd5b5f80fd5b5f80fd5b60018060a01b031690565b6100e7906100d3565b90565b6100f3816100de565b036100fa57565b5f80fd5b9050359061010b826100ea565b565b90565b6101198161010d565b0361012057565b5f80fd5b9050359061013182610110565b565b919060408382031261015b578061014f610158925f86016100fe565b93602001610124565b90565b6100cb565b6101699061010d565b9052565b9190610180905f60208501940190610160565b565b346101b3576101af61019e610198366004610133565b90610a1e565b6101a66100c1565b9182918261016d565b0390f35b6100c7565b63ffffffff60e01b1690565b6101cd816101b8565b036101d457565b5f80fd5b905035906101e5826101c4565b565b90602082820312610200576101fd915f016101d8565b90565b6100cb565b151590565b61021390610205565b9052565b919061022a905f6020850194019061020a565b565b3461025c576102586102476102423660046101e7565b610a49565b61024f6100c1565b91829182610217565b0390f35b6100c7565b9060208282031261027a57610277915f01610124565b90565b6100cb565b5190565b60209181520190565b90825f9392825e0152565b601f801991011690565b6102c06102c96020936102ce936102b78161027f565b93848093610283565b9586910161028c565b610297565b0190565b6102e79160208201915f8184039101526102a1565b90565b3461031a57610316610305610300366004610261565b610bcd565b61030d6100c1565b918291826102d2565b0390f35b6100c7565b90916060828403126103545761035161033a845f85016100fe565b936103488160208601610124565b93604001610124565b90565b6100cb565b5f0190565b3461038d5761037761037136600461031f565b91610c35565b61037f6100c1565b8061038981610359565b0390f35b6100c7565b5f80fd5b634e487b7160e01b5f52604160045260245ffd5b906103b490610297565b810190811067ffffffffffffffff8211176103ce57604052565b610396565b906103e66103df6100c1565b92836103aa565b565b67ffffffffffffffff81116104005760208091020190565b610396565b5f80fd5b9092919261041e610419826103e8565b6103d3565b938185526020808601920283019281841161045b57915b8383106104425750505050565b602080916104508486610124565b815201920191610435565b610405565b9080601f8301121561047e5781602061047b93359101610409565b90565b610392565b5f80fd5b67ffffffffffffffff81116104a5576104a1602091610297565b0190565b610396565b90825f939282370152565b909291926104ca6104c582610487565b6103d3565b938185526020850190828401116104e6576104e4926104aa565b565b610483565b9080601f8301121561050957816020610506933591016104b5565b90565b610392565b91909160a0818403126105a857610527835f83016100fe565b9261053581602084016100fe565b92604083013567ffffffffffffffff81116105a35782610556918501610460565b92606081013567ffffffffffffffff811161059e5783610577918301610460565b92608082013567ffffffffffffffff81116105995761059692016104eb565b90565b6100cf565b6100cf565b6100cf565b6100cb565b346105df576105c96105c036600461050e565b93929092610c7b565b6105d16100c1565b806105db81610359565b0390f35b6100c7565b67ffffffffffffffff81116105fc5760208091020190565b610396565b90929192610616610611826105e4565b6103d3565b938185526020808601920283019281841161065357915b83831061063a5750505050565b6020809161064884866100fe565b81520192019161062d565b610405565b9080601f830112156106765781602061067393359101610601565b90565b610392565b9190916040818403126106d3575f81013567ffffffffffffffff81116106ce57836106a7918301610658565b92602082013567ffffffffffffffff81116106c9576106c69201610460565b90565b6100cf565b6100cf565b6100cb565b5190565b60209181520190565b60200190565b6106f49061010d565b9052565b90610705816020936106eb565b0190565b60200190565b9061072c61072661071f846106d8565b80936106dc565b926106e5565b905f5b81811061073c5750505090565b90919261075561074f60019286516106f8565b94610709565b910191909161072f565b6107749160208201915f81840391015261070f565b90565b346107a8576107a461079361078d36600461067b565b90610dd3565b61079b6100c1565b9182918261075f565b0390f35b6100c7565b6107b681610205565b036107bd57565b5f80fd5b905035906107ce826107ad565b565b91906040838203126107f857806107ec6107f5925f86016100fe565b936020016107c1565b90565b6100cb565b3461082c576108166108103660046107d0565b90610ebb565b61081e6100c1565b8061082881610359565b0390f35b6100c7565b9190604083820312610859578061084d610856925f86016100fe565b936020016100fe565b90565b6100cb565b3461088f5761088b61087a610874366004610831565b90610f24565b6108826100c1565b91829182610217565b0390f35b6100c7565b91909160a0818403126108fe576108ad835f83016100fe565b926108bb81602084016100fe565b926108c98260408501610124565b926108d78360608301610124565b92608082013567ffffffffffffffff81116108f9576108f692016104eb565b90565b6100cf565b6100cb565b346109355761091f610916366004610894565b93929092610f4c565b6109276100c1565b8061093181610359565b0390f35b6100c7565b346109695761095361094d36600461031f565b91610fc5565b61095b6100c1565b8061096581610359565b0390f35b6100c7565b5f80fd5b5f90565b90565b61098d6109886109929261010d565b610976565b61010d565b90565b9061099f90610979565b5f5260205260405f2090565b6109bf6109ba6109c4926100d3565b610976565b6100d3565b90565b6109d0906109ab565b90565b6109dc906109c7565b90565b906109e9906109d3565b5f5260205260405f2090565b5f1c90565b90565b610a09610a0e916109f5565b6109fa565b90565b610a1b90546109fd565b90565b610a3d90610a38610a4293610a31610972565b505f610995565b6109df565b610a11565b90565b5f90565b610a51610a45565b5080610a6c610a66636cdb3d1360e11b6101b8565b916101b8565b148015610a90575b908115610a80575b5090565b610a8a9150610fd4565b5f610a7c565b5080610aab610aa56303a24d0760e21b6101b8565b916101b8565b14610a74565b606090565b634e487b7160e01b5f52602260045260245ffd5b9060016002830492168015610aea575b6020831014610ae557565b610ab6565b91607f1691610ada565b60209181520190565b5f5260205f2090565b905f9291805490610b20610b1983610aca565b8094610af4565b916001811690815f14610b775750600114610b3b575b505050565b610b489192939450610afd565b915f925b818410610b5f57505001905f8080610b36565b60018160209295939554848601520191019290610b4c565b92949550505060ff19168252151560200201905f8080610b36565b90610b9c91610b06565b90565b90610bbf610bb892610baf6100c1565b93848092610b92565b03836103aa565b565b610bca90610b9f565b90565b50610bd6610ab1565b50610be16002610bc1565b90565b67ffffffffffffffff8111610c0257610bfe602091610297565b0190565b610396565b90610c19610c1483610be4565b6103d3565b918252565b610c275f610c07565b90565b610c32610c1e565b90565b91610c499291610c43610c2a565b92611037565b565b610c54906100de565b9052565b916020610c79929493610c7260408201965f830190610c4b565b0190610c4b565b565b949391929092610c896110a8565b86610c9c610c96836100de565b916100de565b141580610cda575b610cba5750610cb8949593909192936110b5565b565b8690610cd65f92839263711bec9160e11b845260048401610c58565b0390fd5b50610cef610ce9888390610f24565b15610205565b610ca4565b606090565b5190565b916020610d1e929493610d1760408201965f830190610160565b0190610160565b565b90610d32610d2d836103e8565b6103d3565b918252565b369037565b90610d61610d4983610d20565b92602080610d5786936103e8565b9201910390610d37565b565b90565b610d7a610d75610d7f92610d63565b610976565b61010d565b90565b6001610d8e910161010d565b90565b634e487b7160e01b5f52603260045260245ffd5b90610daf826106d8565b811015610dc0576020809102010190565b610d91565b90610dcf9061010d565b9052565b90610ddc610cf4565b50610de682610cf9565b610e00610dfa610df5846106d8565b61010d565b9161010d565b03610e8a57610e16610e1183610cf9565b610d3c565b91610e205f610d66565b5b80610e3c610e36610e3185610cf9565b61010d565b9161010d565b1015610e8457610e7f90610e7a610e68610e57858490611157565b610e6287859061116d565b90610a1e565b610e758791849092610da5565b610dc5565b610d82565b610e21565b50505090565b610e96610e9c916106d8565b91610cf9565b90610eb75f928392635b05999160e01b845260048401610cfd565b0390fd5b610ecf91610ec76110a8565b9190916111cd565b565b90610edb906109d3565b5f5260205260405f2090565b90610ef1906109d3565b5f5260205260405f2090565b60ff1690565b610f0f610f14916109f5565b610efd565b90565b610f219054610f03565b90565b610f4991610f3f610f4492610f37610a45565b506001610ed1565b610ee7565b610f17565b90565b949391929092610f5a6110a8565b86610f6d610f67836100de565b916100de565b141580610fab575b610f8b5750610f8994959390919293611285565b565b8690610fa75f92839263711bec9160e11b845260048401610c58565b0390fd5b50610fc0610fba888390610f24565b15610205565b610f75565b91610fd292919091611330565b565b610fdc610a45565b50610ff6610ff06301ffc9a760e01b6101b8565b916101b8565b1490565b61100e61100961101392610d63565b610976565b6100d3565b90565b61101f90610ffa565b90565b9190611035905f60208501940190610c4b565b565b9192908261105561104f61104a5f611016565b6100de565b916100de565b1461107d5761107b93611067916113a0565b906110715f611016565b93909192936113f6565b565b6110a06110895f611016565b5f918291632bfa23e760e11b835260048301611022565b0390fd5b5f90565b6110b06110a4565b503390565b9391929092836110d56110cf6110ca5f611016565b6100de565b916100de565b1461113057846110f56110ef6110ea5f611016565b6100de565b916100de565b1461110a576111089493909192936113f6565b565b61112c6111165f611016565b5f918291626a0d4560e21b835260048301611022565b0390fd5b61115361113c5f611016565b5f918291632bfa23e760e11b835260048301611022565b0390fd5b90602080916111646110a4565b50029101015190565b906020809161117a610972565b50029101015190565b5f1b90565b9061119460ff91611183565b9181191691161790565b6111a790610205565b90565b90565b906111c26111bd6111c99261119e565b6111aa565b8254611188565b9055565b919091826111eb6111e56111e05f611016565b6100de565b916100de565b1461125f5761120f8261120a61120360018590610ed1565b8690610ee7565b6111ad565b91909161125a6112486112427f17307eab39ab6107e8899845ad3d59bd9653f200f220920489ca2b5937696c31936109d3565b936109d3565b936112516100c1565b91829182610217565b0390a3565b61128161126b5f611016565b5f91829162ced3e160e81b835260048301611022565b0390fd5b90929391836112a461129e6112995f611016565b6100de565b916100de565b1461130957816112c46112be6112b95f611016565b6100de565b916100de565b146112e3576112e1946112d6916113a0565b9193909192936113f6565b565b6113056112ef5f611016565b5f918291626a0d4560e21b835260048301611022565b0390fd5b61132c6113155f611016565b5f918291632bfa23e760e11b835260048301611022565b0390fd5b908161134c6113466113415f611016565b6100de565b916100de565b1461137a576113789261135e916113a0565b6113675f611016565b919091611372610c2a565b936113f6565b565b61139c6113865f611016565b5f918291626a0d4560e21b835260048301611022565b0390fd5b916113a9610cf4565b506113b2610cf4565b5060405192600184526020840152604083019160018352602083015260408201604052565b90565b6113ee6113e96113f3926113d7565b610976565b61010d565b90565b9293919361140884838790849261159b565b8161142361141d6114185f611016565b6100de565b916100de565b03611430575b5050505050565b6114386110a8565b91611442866106d8565b61145561144f60016113da565b9161010d565b145f1461149c576114856114756114919761146f5f610d66565b9061116d565b9261147f5f610d66565b9061116d565b92949091929394611b51565b5b5f80808080611429565b6114ad9591929490919293946119a1565b611492565b6114e76114ee946114dd6060949897956114d3608086019a5f870190610c4b565b6020850190610160565b6040830190610160565b0190610160565b565b906114fb910361010d565b90565b9061150a5f1991611183565b9181191691161790565b90565b9061152c61152761153392610979565b611514565b82546114fe565b9055565b634e487b7160e01b5f52601160045260245ffd5b61155a6115609193929361010d565b9261010d565b820180921161156b57565b611537565b909161158a6115989360408401908482035f86015261070f565b91602081840391015261070f565b90565b939290916115a8816106d8565b6115c26115bc6115b7856106d8565b61010d565b9161010d565b0361183d576115cf6110a8565b936115d95f610d66565b5b806115f56115ef6115ea866106d8565b61010d565b9161010d565b10156117335761160683829061116d565b61161185839061116d565b908861162d6116276116225f611016565b6100de565b916100de565b0361169d575b9061166192918761165461164e6116495f611016565b6100de565b916100de565b03611666575b5050610d82565b6115da565b61169061168161167a61169694935f610995565b8a906109df565b9161168b83610a11565b61154b565b90611517565b5f8061165a565b6116ba6116b56116ae5f8490610995565b8b906109df565b610a11565b806116cd6116c78561010d565b9161010d565b1061170957906117006116e661166195949384906114f0565b6116fb6116f45f8590610995565b8d906109df565b611517565b90919250611633565b9061172f908a92936117196100c1565b9485946303dee4c560e01b8652600486016114b2565b0390fd5b509490929192611742816106d8565b61175561174f60016113da565b9161010d565b145f146117de576117726117829161176c5f610d66565b9061116d565b9361177c5f610d66565b9061116d565b93909192936117c36117bd6117b77fc3d58168c5ae7397731d063d5bbf3d657854427343f4c083240f7aacaa2d0f62946109d3565b946109d3565b946109d3565b946117d86117cf6100c1565b92839283610cfd565b0390a45b565b92939091929361182061181a6118147f4a39dc06d4c0dbc64b70af90fd698a233a518aa5d07e595d983b8c0526c8f7fb946109d3565b946109d3565b946109d3565b9461183561182c6100c1565b92839283611570565b0390a46117dc565b61184961184f916106d8565b916106d8565b9061186a5f928392635b05999160e01b845260048401610cfd565b0390fd5b611877906109ab565b90565b6118839061186e565b90565b61188f906109c7565b90565b60e01b90565b905051906118a5826101c4565b565b906020828203126118c0576118bd915f01611898565b90565b6100cb565b5190565b60209181520190565b6118f16118fa6020936118ff936118e8816118c5565b938480936118c9565b9586910161028c565b610297565b0190565b939061193d90611959969461193061194b9561192660a08a01945f8b0190610c4b565b6020890190610c4b565b868203604088015261070f565b90848203606086015261070f565b9160808184039101526118d2565b90565b9061196e61196983610487565b6103d3565b918252565b606090565b3d5f14611993576119883d61195c565b903d5f602084013e5b565b61199b611973565b90611991565b94909194939293853b6119bc6119b65f610d66565b9161010d565b116119ca575b505050505050565b5f611a0691611a116020966119e66119e18b61187a565b611886565b9563bc197c819397999190916119fa6100c1565b9a8b998a988997611892565b875260048701611903565b03925af180915f92611ad0575b50155f14611a8d57506001611a3a57505b5f80808080806119c2565b611a42611978565b90611a4c826118c5565b611a5e611a585f610d66565b9161010d565b145f14611a8457611a80905f918291632bfa23e760e11b835260048301611022565b0390fd5b50805190602001fd5b611aa6611aa063bc197c8160e01b6101b8565b916101b8565b03611ab15750611a2f565b611acc905f918291632bfa23e760e11b835260048301611022565b0390fd5b611af291925060203d8111611af9575b611aea81836103aa565b8101906118a7565b905f611a1e565b503d611ae0565b9193611b37611b4e9694611b2d611b419497611b2360a08801995f890190610c4b565b6020870190610c4b565b6040850190610160565b6060830190610160565b60808184039101526118d2565b90565b94909194939293853b611b6c611b665f610d66565b9161010d565b11611b7a575b505050505050565b5f611bb691611bc1602096611b96611b918b61187a565b611886565b9563f23a6e61939799919091611baa6100c1565b9a8b998a988997611892565b875260048701611b00565b03925af180915f92611c80575b50155f14611c3d57506001611bea57505b5f8080808080611b72565b611bf2611978565b90611bfc826118c5565b611c0e611c085f610d66565b9161010d565b145f14611c3457611c30905f918291632bfa23e760e11b835260048301611022565b0390fd5b50805190602001fd5b611c56611c5063f23a6e6160e01b6101b8565b916101b8565b03611c615750611bdf565b611c7c905f918291632bfa23e760e11b835260048301611022565b0390fd5b611ca291925060203d8111611ca9575b611c9a81836103aa565b8101906118a7565b905f611bce565b503d611c9056fea2646970667358221220b1ac39b19d470d90bc2669ad097978ac829e4b926a3440c77f1c445bd51d696464736f6c634300081e0033","linkReferences":{}},"methodIdentifiers":{"balanceOf(address,uint256)":"00fdd58e","balanceOfBatch(address[],uint256[])":"4e1273f4","burn(address,uint256,uint256)":"f5298aca","isApprovedForAll(address,address)":"e985e9c5","mint(address,uint256,uint256)":"156e29f6","safeBatchTransferFrom(address,address,uint256[],uint256[],bytes)":"2eb2c2d6","safeTransferFrom(address,address,uint256,uint256,bytes)":"f242432a","setApprovalForAll(address,bool)":"a22cb465","supportsInterface(bytes4)":"01ffc9a7","uri(uint256)":"0e89341c"},"id":59}