{"abi":[{"type":"constructor","inputs":[{"name":"regAddr","type":"address","internalType":"address"}],"stateMutability":"nonpayable"},{"type":"function","name":"DEFAULT_ADMIN_ROLE","inputs":[],"outputs":[{"name":"","type":"bytes32","internalType":"bytes32"}],"stateMutability":"view"},{"type":"function","name":"GAME_ITEMS","inputs":[],"outputs":[{"name":"","type":"address","internalType":"contract IERC1155"}],"stateMutability":"view"},{"type":"function","name":"GAME_TOKEN","inputs":[],"outputs":[{"name":"","type":"address","internalType":"contract IERC20"}],"stateMutability":"view"},{"type":"function","name":"R","inputs":[],"outputs":[{"name":"","type":"address","internalType":"contract IGameRegistry"}],"stateMutability":"view"},{"type":"function","name":"cancel","inputs":[{"name":"lid","type":"uint256","internalType":"uint256"}],"outputs":[],"stateMutability":"nonpayable"},{"type":"function","name":"getRoleAdmin","inputs":[{"name":"role","type":"bytes32","internalType":"bytes32"}],"outputs":[{"name":"","type":"bytes32","internalType":"bytes32"}],"stateMutability":"view"},{"type":"function","name":"grantRole","inputs":[{"name":"role","type":"bytes32","internalType":"bytes32"},{"name":"account","type":"address","internalType":"address"}],"outputs":[],"stateMutability":"nonpayable"},{"type":"function","name":"hasRole","inputs":[{"name":"role","type":"bytes32","internalType":"bytes32"},{"name":"account","type":"address","internalType":"address"}],"outputs":[{"name":"","type":"bool","internalType":"bool"}],"stateMutability":"view"},{"type":"function","name":"list","inputs":[{"name":"id","type":"uint256","internalType":"uint256"},{"name":"amount","type":"uint256","internalType":"uint256"},{"name":"pricePer","type":"uint256","internalType":"uint256"}],"outputs":[{"name":"lid","type":"uint256","internalType":"uint256"}],"stateMutability":"nonpayable"},{"type":"function","name":"listings","inputs":[{"name":"","type":"uint256","internalType":"uint256"}],"outputs":[{"name":"seller","type":"address","internalType":"address"},{"name":"id","type":"uint256","internalType":"uint256"},{"name":"amount","type":"uint256","internalType":"uint256"},{"name":"pricePer","type":"uint256","internalType":"uint256"},{"name":"active","type":"bool","internalType":"bool"}],"stateMutability":"view"},{"type":"function","name":"nextId","inputs":[],"outputs":[{"name":"","type":"uint256","internalType":"uint256"}],"stateMutability":"view"},{"type":"function","name":"onERC1155BatchReceived","inputs":[{"name":"","type":"address","internalType":"address"},{"name":"","type":"address","internalType":"address"},{"name":"","type":"uint256[]","internalType":"uint256[]"},{"name":"","type":"uint256[]","internalType":"uint256[]"},{"name":"","type":"bytes","internalType":"bytes"}],"outputs":[{"name":"","type":"bytes4","internalType":"bytes4"}],"stateMutability":"nonpayable"},{"type":"function","name":"onERC1155Received","inputs":[{"name":"","type":"address","internalType":"address"},{"name":"","type":"address","internalType":"address"},{"name":"","type":"uint256","internalType":"uint256"},{"name":"","type":"uint256","internalType":"uint256"},{"name":"","type":"bytes","internalType":"bytes"}],"outputs":[{"name":"","type":"bytes4","internalType":"bytes4"}],"stateMutability":"nonpayable"},{"type":"function","name":"purchase","inputs":[{"name":"lid","type":"uint256","internalType":"uint256"},{"name":"amount","type":"uint256","internalType":"uint256"}],"outputs":[],"stateMutability":"nonpayable"},{"type":"function","name":"renounceRole","inputs":[{"name":"role","type":"bytes32","internalType":"bytes32"},{"name":"callerConfirmation","type":"address","internalType":"address"}],"outputs":[],"stateMutability":"nonpayable"},{"type":"function","name":"revokeRole","inputs":[{"name":"role","type":"bytes32","internalType":"bytes32"},{"name":"account","type":"address","internalType":"address"}],"outputs":[],"stateMutability":"nonpayable"},{"type":"function","name":"supportsInterface","inputs":[{"name":"interfaceId","type":"bytes4","internalType":"bytes4"}],"outputs":[{"name":"","type":"bool","internalType":"bool"}],"stateMutability":"view"},{"type":"event","name":"Canceled","inputs":[{"name":"lid","type":"uint256","indexed":true,"internalType":"uint256"}],"anonymous":false},{"type":"event","name":"Listed","inputs":[{"name":"lid","type":"uint256","indexed":true,"internalType":"uint256"},{"name":"seller","type":"address","indexed":true,"internalType":"address"},{"name":"id","type":"uint256","indexed":false,"internalType":"uint256"},{"name":"amount","type":"uint256","indexed":false,"internalType":"uint256"},{"name":"pricePer","type":"uint256","indexed":false,"internalType":"uint256"}],"anonymous":false},{"type":"event","name":"Purchased","inputs":[{"name":"lid","type":"uint256","indexed":true,"internalType":"uint256"},{"name":"buyer","type":"address","indexed":true,"internalType":"address"},{"name":"amount","type":"uint256","indexed":false,"internalType":"uint256"}],"anonymous":false},{"type":"event","name":"RoleAdminChanged","inputs":[{"name":"role","type":"bytes32","indexed":true,"internalType":"bytes32"},{"name":"previousAdminRole","type":"bytes32","indexed":true,"internalType":"bytes32"},{"name":"newAdminRole","type":"bytes32","indexed":true,"internalType":"bytes32"}],"anonymous":false},{"type":"event","name":"RoleGranted","inputs":[{"name":"role","type":"bytes32","indexed":true,"internalType":"bytes32"},{"name":"account","type":"address","indexed":true,"internalType":"address"},{"name":"sender","type":"address","indexed":true,"internalType":"address"}],"anonymous":false},{"type":"event","name":"RoleRevoked","inputs":[{"name":"role","type":"bytes32","indexed":true,"internalType":"bytes32"},{"name":"account","type":"address","indexed":true,"internalType":"address"},{"name":"sender","type":"address","indexed":true,"internalType":"address"}],"anonymous":false},{"type":"error","name":"AccessControlBadConfirmation","inputs":[]},{"type":"error","name":"AccessControlUnauthorizedAccount","inputs":[{"name":"account","type":"address","internalType":"address"},{"name":"neededRole","type":"bytes32","internalType":"bytes32"}]}],"bytecode":{"object":"0x60e06040523461007457610019610014610139565b610240565b610021610079565b611d4861052182396080518181816104760152611756015260a0518181816105fa015281816115810152611601015260c0518181816107270152818161103d0152818161130801526116a50152611d4890f35b61007f565b60405190565b5f80fd5b601f801991011690565b634e487b7160e01b5f52604160045260245ffd5b906100ab90610083565b810190811060018060401b038211176100c357604052565b61008d565b906100db6100d4610079565b92836100a1565b565b5f80fd5b60018060a01b031690565b6100f5906100e1565b90565b610101816100ec565b0361010857565b5f80fd5b90505190610119826100f8565b565b9060208282031261013457610131915f0161010c565b90565b6100dd565b6101576122698038038061014c816100c8565b92833981019061011b565b90565b90565b61017161016c610176926100e1565b61015a565b6100e1565b90565b6101829061015d565b90565b61018e90610179565b90565b61019a906100ec565b90565b6101a79051610191565b90565b6101b39061015d565b90565b6101bf906101aa565b90565b60e01b90565b5f0190565b6101d5610079565b3d5f823e3d90fd5b6101e69061015d565b90565b6101f2906101dd565b90565b6101fe9061015d565b90565b61020a906101f5565b90565b90565b90565b5f1b90565b61022c6102276102319261020d565b610213565b610210565b90565b61023d5f610218565b90565b61024990610185565b608052610279602061026361025e608061019d565b6101b6565b63c3dfdae690610271610079565b9384926101c2565b82528180610289600482016101c8565b03915afa8015610378576102a4915f9161034a575b506101e9565b60a0526102d460206102be6102b9608061019d565b6101b6565b63d5076093906102cc610079565b9384926101c2565b825281806102e4600482016101c8565b03915afa8015610345576102ff915f91610317575b50610201565b60c05261031461030d610234565b339061040f565b50565b610338915060203d811161033e575b61033081836100a1565b81019061011b565b5f6102f9565b503d610326565b6101cd565b61036b915060203d8111610371575b61036381836100a1565b81019061011b565b5f61029e565b503d610359565b6101cd565b5f90565b151590565b61038f90610210565b90565b9061039c90610386565b5f5260205260405f2090565b6103b1906101aa565b90565b906103be906103a8565b5f5260205260405f2090565b906103d660ff91610213565b9181191691161790565b6103e990610381565b90565b90565b906104046103ff61040b926103e0565b6103ec565b82546103ca565b9055565b61041761037d565b5061042c6104268284906104e6565b15610381565b5f146104b457610453600161044e5f610446818690610392565b0185906103b4565b6103ef565b9061045c610513565b9061049961049361048d7f2f8788117e7eff1d82e926ec794901d17c78024a50270940304540a733656f0d95610386565b926103a8565b926103a8565b926104a2610079565b806104ac816101c8565b0390a4600190565b50505f90565b5f1c90565b60ff1690565b6104d16104d6916104ba565b6104bf565b90565b6104e390546104c5565b90565b61050c915f610501610507936104fa61037d565b5082610392565b016103b4565b6104d9565b90565b5f90565b61051b61050f565b50339056fe60806040526004361015610013575b610c92565b61001d5f3561012c565b806301ffc9a71461012757806319aeb49014610122578063248a9ca31461011d5780632f2ff15d1461011857806336568abe1461011357806340e58ee51461010e5780634980e1be1461010957806361b8ce8c1461010457806370876c98146100ff5780637690292f146100fa57806391d14854146100f5578063a217fddf146100f0578063a9602d9f146100eb578063bc197c81146100e6578063d547741f146100e1578063de74e57b146100dc5763f23a6e610361000e57610c59565b610bb1565b610a2c565b6109f3565b610777565b6106f0565b61067f565b61064a565b6105c4565b610562565b6104f1565b610432565b6103e0565b6103ac565b61030b565b61026f565b6101b8565b60e01c90565b60405190565b5f80fd5b5f80fd5b5f80fd5b63ffffffff60e01b1690565b61015981610144565b0361016057565b5f80fd5b9050359061017182610150565b565b9060208282031261018c57610189915f01610164565b90565b61013c565b151590565b61019f90610191565b9052565b91906101b6905f60208501940190610196565b565b346101e8576101e46101d36101ce366004610173565b610c9a565b6101db610132565b918291826101a3565b0390f35b610138565b90565b6101f9816101ed565b0361020057565b5f80fd5b90503590610211826101f0565b565b90916060828403126102485761024561022e845f8501610204565b9361023c8160208601610204565b93604001610204565b90565b61013c565b610256906101ed565b9052565b919061026d905f6020850194019061024d565b565b346102a05761029c61028b610285366004610213565b91611009565b610293610132565b9182918261025a565b0390f35b610138565b90565b6102b1816102a5565b036102b857565b5f80fd5b905035906102c9826102a8565b565b906020828203126102e4576102e1915f016102bc565b90565b61013c565b6102f2906102a5565b9052565b9190610309905f602085019401906102e9565b565b3461033b576103376103266103213660046102cb565b611225565b61032e610132565b918291826102f6565b0390f35b610138565b60018060a01b031690565b61035490610340565b90565b6103608161034b565b0361036757565b5f80fd5b9050359061037882610357565b565b91906040838203126103a2578061039661039f925f86016102bc565b9360200161036b565b90565b61013c565b5f0190565b346103db576103c56103bf36600461037a565b90611270565b6103cd610132565b806103d7816103a7565b0390f35b610138565b3461040f576103f96103f336600461037a565b9061127c565b610401610132565b8061040b816103a7565b0390f35b610138565b9060208282031261042d5761042a915f01610204565b90565b61013c565b346104605761044a610445366004610414565b6112c7565b610452610132565b8061045c816103a7565b0390f35b610138565b5f91031261046f57565b61013c565b7f000000000000000000000000000000000000000000000000000000000000000090565b90565b6104af6104aa6104b492610340565b610498565b610340565b90565b6104c09061049b565b90565b6104cc906104b7565b90565b6104d8906104c3565b9052565b91906104ef905f602085019401906104cf565b565b3461052157610501366004610465565b61051d61050c610474565b610514610132565b918291826104dc565b0390f35b610138565b1c90565b90565b61053d9060086105429302610526565b61052a565b90565b90610550915461052d565b90565b61055f60015f90610545565b90565b3461059257610572366004610465565b61058e61057d610553565b610585610132565b9182918261025a565b0390f35b610138565b91906040838203126105bf57806105b36105bc925f8601610204565b93602001610204565b90565b61013c565b346105f3576105dd6105d7366004610597565b9061152a565b6105e5610132565b806105ef816103a7565b0390f35b610138565b7f000000000000000000000000000000000000000000000000000000000000000090565b610625906104b7565b90565b6106319061061c565b9052565b9190610648905f60208501940190610628565b565b3461067a5761065a366004610465565b6106766106656105f8565b61066d610132565b91829182610635565b0390f35b610138565b346106b0576106ac61069b61069536600461037a565b906119d9565b6106a3610132565b918291826101a3565b0390f35b610138565b90565b5f1b90565b6106d16106cc6106d6926106b5565b6106b8565b6102a5565b90565b6106e25f6106bd565b90565b6106ed6106d9565b90565b3461072057610700366004610465565b61071c61070b6106e5565b610713610132565b918291826102f6565b0390f35b610138565b7f000000000000000000000000000000000000000000000000000000000000000090565b610752906104b7565b90565b61075e90610749565b9052565b9190610775905f60208501940190610755565b565b346107a757610787366004610465565b6107a3610792610725565b61079a610132565b91829182610762565b0390f35b610138565b5f80fd5b601f801991011690565b634e487b7160e01b5f52604160045260245ffd5b906107d8906107b0565b810190811067ffffffffffffffff8211176107f257604052565b6107ba565b9061080a610803610132565b92836107ce565b565b67ffffffffffffffff81116108245760208091020190565b6107ba565b5f80fd5b9092919261084261083d8261080c565b6107f7565b938185526020808601920283019281841161087f57915b8383106108665750505050565b602080916108748486610204565b815201920191610859565b610829565b9080601f830112156108a25781602061089f9335910161082d565b90565b6107ac565b5f80fd5b67ffffffffffffffff81116108c9576108c56020916107b0565b0190565b6107ba565b90825f939282370152565b909291926108ee6108e9826108ab565b6107f7565b9381855260208501908284011161090a57610908926108ce565b565b6108a7565b9080601f8301121561092d5781602061092a933591016108d9565b90565b6107ac565b91909160a0818403126109cc5761094b835f830161036b565b92610959816020840161036b565b92604083013567ffffffffffffffff81116109c7578261097a918501610884565b92606081013567ffffffffffffffff81116109c2578361099b918301610884565b92608082013567ffffffffffffffff81116109bd576109ba920161090f565b90565b610140565b610140565b610140565b61013c565b6109da90610144565b9052565b91906109f1905f602085019401906109d1565b565b34610a2757610a23610a12610a09366004610932565b93929092611a2b565b610a1a610132565b918291826109de565b0390f35b610138565b34610a5b57610a45610a3f36600461037a565b90611a73565b610a4d610132565b80610a57816103a7565b0390f35b610138565b610a74610a6f610a79926101ed565b610498565b6101ed565b90565b90610a8690610a60565b5f5260205260405f2090565b5f1c90565b60018060a01b031690565b610aae610ab391610a92565b610a97565b90565b610ac09054610aa2565b90565b610acf610ad491610a92565b61052a565b90565b610ae19054610ac3565b90565b60ff1690565b610af6610afb91610a92565b610ae4565b90565b610b089054610aea565b90565b610b16906002610a7c565b610b215f8201610ab6565b91610b2e60018301610ad7565b91610b3b60028201610ad7565b91610b546004610b4d60038501610ad7565b9301610afe565b90565b610b609061034b565b9052565b90959492610baf94610b9e610ba892610b94608096610b8a60a088019c5f890190610b57565b602087019061024d565b604085019061024d565b606083019061024d565b0190610196565b565b34610be557610be1610bcc610bc7366004610414565b610b0b565b91610bd8959395610132565b95869586610b64565b0390f35b610138565b91909160a081840312610c5457610c03835f830161036b565b92610c11816020840161036b565b92610c1f8260408501610204565b92610c2d8360608301610204565b92608082013567ffffffffffffffff8111610c4f57610c4c920161090f565b90565b610140565b61013c565b34610c8d57610c89610c78610c6f366004610bea565b93929092611a7f565b610c80610132565b918291826109de565b0390f35b610138565b5f80fd5b5f90565b610cac90610ca6610c96565b50611a9d565b90565b5f90565b610cc7610cc2610ccc926106b5565b610498565b6101ed565b90565b60209181520190565b5f7f6261640000000000000000000000000000000000000000000000000000000000910152565b610d0c6003602092610ccf565b610d1581610cd8565b0190565b610d2e9060208101905f818303910152610cff565b90565b15610d3857565b610d40610132565b62461bcd60e51b815280610d5660048201610d19565b0390fd5b610d63906104b7565b90565b5f80fd5b60e01b90565b5f910312610d7a57565b61013c565b60209181520190565b610d935f8092610d7f565b0190565b9193610dcd610dd79294610dc3610de497610db960a08801985f890190610b57565b6020870190610b57565b604085019061024d565b606083019061024d565b6080818303910152610d88565b90565b610def610132565b3d5f823e3d90fd5b634e487b7160e01b5f52601160045260245ffd5b610e14906101ed565b5f198114610e225760010190565b610df7565b90610e335f19916106b8565b9181191691161790565b90565b90610e55610e50610e5c92610a60565b610e3d565b8254610e27565b9055565b610e6a60a06107f7565b90565b90610e779061034b565b9052565b90610e85906101ed565b9052565b90610e9390610191565b9052565b610ea1905161034b565b90565b90610eb560018060a01b03916106b8565b9181191691161790565b610ec8906104b7565b90565b90565b90610ee3610ede610eea92610ebf565b610ecb565b8254610ea4565b9055565b610ef890516101ed565b90565b610f059051610191565b90565b90610f1460ff916106b8565b9181191691161790565b610f2790610191565b90565b90565b90610f42610f3d610f4992610f1e565b610f2a565b8254610f08565b9055565b90610fc360806004610fc994610f705f8201610f6a5f8801610e97565b90610ece565b610f8960018201610f8360208801610eee565b90610e40565b610fa260028201610f9c60408801610eee565b90610e40565b610fbb60038201610fb560608801610eee565b90610e40565b019201610efb565b90610f2d565b565b90610fd591610f4d565b565b6040906110006110079496959396610ff660608401985f85019061024d565b602083019061024d565b019061024d565b565b929192611014610caf565b50816110286110225f610cb3565b916101ed565b11806111bc575b61103890610d31565b6110617f0000000000000000000000000000000000000000000000000000000000000000610749565b63f242432a3361107030610d5a565b928486823b156111b7575f946110a486926110999461108d610132565b998a9889978896610d6a565b865260048601610d97565b03925af180156111b257611186575b506110c66110c16001610ad7565b610e0b565b6110d1816001610e40565b9361113233611121846111188761110f87916111066001956110fd6110f4610e60565b995f8b01610e6d565b60208901610e7b565b60408701610e7b565b60608501610e7b565b60808301610e89565b61112d60028890610a7c565b610fcb565b8490339293909361118161116f6111697fd0e2632082726e989c9a9cac6d495b05080e0d6836ee21e07618b32d5719a40495610a60565b95610ebf565b95611178610132565b93849384610fd7565b0390a3565b6111a5905f3d81116111ab575b61119d81836107ce565b810190610d70565b5f6110b3565b503d611193565b610de7565b610d66565b50611038846111d36111cd5f610cb3565b916101ed565b11905061102f565b5f90565b6111e8906102a5565b90565b906111f5906111df565b5f5260205260405f2090565b90565b61121061121591610a92565b611201565b90565b6112229054611204565b90565b600161123d611243926112366111db565b505f6111eb565b01611218565b90565b906112619161125c61125782611225565b611add565b611263565b565b9061126d91611af1565b50565b9061127a91611246565b565b908061129761129161128c611ba0565b61034b565b9161034b565b036112a8576112a591611bad565b50565b5f63334bd91960e11b8152806112c0600482016103a7565b0390fd5b90565b6112db6112d660028390610a7c565b6112c4565b6112e760048201610afe565b8061140f575b6112f690610d31565b6113035f60048301610f2d565b61132c7f0000000000000000000000000000000000000000000000000000000000000000610749565b63f242432a9061133b30610d5a565b903393611356600261134f60018401610ad7565b9201610ad7565b823b1561140a575f94611387869261137c94611370610132565b998a9889978896610d6a565b865260048601610d97565b03925af18015611405576113d9575b506113c17f829a8683c544ad289ce92d3ce06e9ebad69b18a6916e60ec766c2c217461d8e991610a60565b906113ca610132565b806113d4816103a7565b0390a2565b6113f8905f3d81116113fe575b6113f081836107ce565b810190610d70565b5f611396565b503d6113e6565b610de7565b610d66565b506112f661141e5f8301610ab6565b61143061142a3361034b565b9161034b565b1490506112ed565b61144761144d919392936101ed565b926101ed565b916114598382026101ed565b92818404149015171561146857565b610df7565b6114769061049b565b90565b6114829061146d565b90565b61148e906104b7565b90565b9160206114b29294936114ab60408201965f830190610b57565b019061024d565b565b6114c36114c9919392936101ed565b926101ed565b82039182116114d457565b610df7565b905051906114e682610357565b565b90602082820312611501576114fe915f016114d9565b90565b61013c565b61150f9061049b565b90565b61151b90611506565b90565b611527906104b7565b90565b61153e61153960028390610a7c565b6112c4565b61154a60048201610afe565b806119a9575b8061197e575b61155f90610d31565b6115758361156f60038401610ad7565b90611438565b906115af6115aa6115a57f000000000000000000000000000000000000000000000000000000000000000061061c565b611479565b611485565b639dc29fac338492803b15611979576115db5f80946115e66115cf610132565b97889687958694610d6a565b845260048401611491565b03925af1801561197457611948575b5061162f61162a6116257f000000000000000000000000000000000000000000000000000000000000000061061c565b611479565b611485565b6340c10f1961163f5f8401610ab6565b8492803b15611943576116655f8094611670611659610132565b97889687958694610d6a565b845260048401611491565b03925af1801561193e57611912575b506116a08461169a600284019161169583610ad7565b6114b4565b90610e40565b6116c97f0000000000000000000000000000000000000000000000000000000000000000610749565b63f242432a6116d730610d5a565b33926116e560018601610ad7565b88823b1561190d575f94611717869261170c94611700610132565b998a9889978896610d6a565b865260048601610d97565b03925af18015611908576118dc575b5061173360028201610ad7565b61174561173f5f610cb3565b916101ed565b146118c8575b50611790602061177a7f00000000000000000000000000000000000000000000000000000000000000006104c3565b63d4c0021290611788610132565b938492610d6a565b825281806117a0600482016103a7565b03915afa9081156118c3576117c5916117c0915f91611895575b50611512565b61151e565b9063c3a0ef8990339092803b15611890576117f35f80946117fe6117e7610132565b97889687958694610d6a565b845260048401611491565b03925af1801561188b5761185f575b509033909161185a6118486118427ffd51b2c9f55c42d2b72ac683526519563be02fc0107f034ff430c05185ff1b6693610a60565b93610ebf565b93611851610132565b9182918261025a565b0390a3565b61187e905f3d8111611884575b61187681836107ce565b810190610d70565b5f61180d565b503d61186c565b610de7565b610d66565b6118b6915060203d81116118bc575b6118ae81836107ce565b8101906114e8565b5f6117ba565b503d6118a4565b610de7565b6118d69060045f9101610f2d565b5f61174b565b6118fb905f3d8111611901575b6118f381836107ce565b810190610d70565b5f611726565b503d6118e9565b610de7565b610d66565b611931905f3d8111611937575b61192981836107ce565b810190610d70565b5f61167f565b503d61191f565b610de7565b610d66565b611967905f3d811161196d575b61195f81836107ce565b810190610d70565b5f6115f5565b503d611955565b610de7565b610d66565b5061155f836119a061199a61199560028601610ad7565b6101ed565b916101ed565b11159050611556565b50826119bd6119b75f610cb3565b916101ed565b11611550565b906119cd90610ebf565b5f5260205260405f2090565b6119ff915f6119f46119fa936119ed610c96565b50826111eb565b016119c3565b610afe565b90565b5f90565b63ffffffff1690565b611a23611a1e611a2892611a06565b610d6a565b610144565b90565b5050505050611a38611a02565b50611a4663bc197c81611a0f565b90565b90611a6491611a5f611a5a82611225565b611add565b611a66565b565b90611a7091611bad565b50565b90611a7d91611a49565b565b5050505050611a8c611a02565b50611a9a63f23a6e61611a0f565b90565b611aa5610c96565b5080611ac0611aba637965db0b60e01b610144565b91610144565b14908115611acd575b5090565b611ad79150611c4e565b5f611ac9565b611aef90611ae9611ba0565b90611cb1565b565b611af9610c96565b50611b0e611b088284906119d9565b15610191565b5f14611b9657611b356001611b305f611b288186906111eb565b0185906119c3565b610f2d565b90611b3e611ba0565b90611b7b611b75611b6f7f2f8788117e7eff1d82e926ec794901d17c78024a50270940304540a733656f0d956111df565b92610ebf565b92610ebf565b92611b84610132565b80611b8e816103a7565b0390a4600190565b50505f90565b5f90565b611ba8611b9c565b503390565b611bb5610c96565b50611bc18183906119d9565b5f14611c4857611be75f611be25f611bda8186906111eb565b0185906119c3565b610f2d565b90611bf0611ba0565b90611c2d611c27611c217ff6391f5c32d9c69d2a47ea670b442974b53935d1edc7fd64eb21e047a839171b956111df565b92610ebf565b92610ebf565b92611c36610132565b80611c40816103a7565b0390a4600190565b50505f90565b611c56610c96565b5080611c71611c6b630271189760e51b610144565b91610144565b14908115611c7e575b5090565b611c889150611cec565b5f611c7a565b916020611caf929493611ca860408201965f830190610b57565b01906102e9565b565b90611cc6611cc08383906119d9565b15610191565b611cce575050565b611ce85f92839263e2517d3f60e01b845260048401611c8e565b0390fd5b611cf4610c96565b50611d0e611d086301ffc9a760e01b610144565b91610144565b149056fea2646970667358221220c0f2921195237e0f175f4cf2d642f38a627630a7bdbe08f6aae81c42883be1a364736f6c634300081e0033","linkReferences":{}},"methodIdentifiers":{"DEFAULT_ADMIN_ROLE()":"a217fddf","GAME_ITEMS()":"a9602d9f","GAME_TOKEN()":"7690292f","R()":"4980e1be","cancel(uint256)":"40e58ee5","getRoleAdmin(bytes32)":"248a9ca3","grantRole(bytes32,address)":"2f2ff15d","hasRole(bytes32,address)":"91d14854","list(uint256,uint256,uint256)":"19aeb490","listings(uint256)":"de74e57b","nextId()":"61b8ce8c","onERC1155BatchReceived(address,address,uint256[],uint256[],bytes)":"bc197c81","onERC1155Received(address,address,uint256,uint256,bytes)":"f23a6e61","purchase(uint256,uint256)":"70876c98","renounceRole(bytes32,address)":"36568abe","revokeRole(bytes32,address)":"d547741f","supportsInterface(bytes4)":"01ffc9a7"},"id":69}