{"abi":[{"type":"constructor","inputs":[],"stateMutability":"nonpayable"},{"type":"function","name":"DEFAULT_ADMIN_ROLE","inputs":[],"outputs":[{"name":"","type":"bytes32","internalType":"bytes32"}],"stateMutability":"view"},{"type":"function","name":"MODULE_ROLE","inputs":[],"outputs":[{"name":"","type":"bytes32","internalType":"bytes32"}],"stateMutability":"view"},{"type":"function","name":"addXp","inputs":[{"name":"user","type":"address","internalType":"address"},{"name":"xpAmt","type":"uint256","internalType":"uint256"}],"outputs":[],"stateMutability":"nonpayable"},{"type":"function","name":"advanceEpochIfNeeded","inputs":[],"outputs":[],"stateMutability":"nonpayable"},{"type":"function","name":"createProfile","inputs":[{"name":"name","type":"string","internalType":"string"}],"outputs":[],"stateMutability":"nonpayable"},{"type":"function","name":"epochStart","inputs":[],"outputs":[{"name":"","type":"uint64","internalType":"uint64"}],"stateMutability":"view"},{"type":"function","name":"epochTop5History","inputs":[{"name":"","type":"uint64","internalType":"uint64"}],"outputs":[{"name":"epoch","type":"uint64","internalType":"uint64"},{"name":"timestamp","type":"uint64","internalType":"uint64"}],"stateMutability":"view"},{"type":"function","name":"gameEpoch","inputs":[],"outputs":[{"name":"","type":"uint64","internalType":"uint64"}],"stateMutability":"view"},{"type":"function","name":"getEpochTop5","inputs":[{"name":"epoch","type":"uint64","internalType":"uint64"}],"outputs":[{"name":"top5Players","type":"address[5]","internalType":"address[5]"},{"name":"top5XpAmounts","type":"uint256[5]","internalType":"uint256[5]"},{"name":"epochNumber","type":"uint64","internalType":"uint64"},{"name":"timestamp","type":"uint64","internalType":"uint64"}],"stateMutability":"view"},{"type":"function","name":"getEpochTop5Player","inputs":[{"name":"epoch","type":"uint64","internalType":"uint64"},{"name":"position","type":"uint256","internalType":"uint256"}],"outputs":[{"name":"","type":"address","internalType":"address"},{"name":"","type":"uint256","internalType":"uint256"}],"stateMutability":"view"},{"type":"function","name":"getRoleAdmin","inputs":[{"name":"role","type":"bytes32","internalType":"bytes32"}],"outputs":[{"name":"","type":"bytes32","internalType":"bytes32"}],"stateMutability":"view"},{"type":"function","name":"getXpRequiredForLevel","inputs":[{"name":"level","type":"uint16","internalType":"uint16"}],"outputs":[{"name":"","type":"uint256","internalType":"uint256"}],"stateMutability":"pure"},{"type":"function","name":"getXpRequiredForNextLevel","inputs":[{"name":"user","type":"address","internalType":"address"}],"outputs":[{"name":"","type":"uint256","internalType":"uint256"}],"stateMutability":"view"},{"type":"function","name":"grantRole","inputs":[{"name":"role","type":"bytes32","internalType":"bytes32"},{"name":"account","type":"address","internalType":"address"}],"outputs":[],"stateMutability":"nonpayable"},{"type":"function","name":"hasRole","inputs":[{"name":"role","type":"bytes32","internalType":"bytes32"},{"name":"account","type":"address","internalType":"address"}],"outputs":[{"name":"","type":"bool","internalType":"bool"}],"stateMutability":"view"},{"type":"function","name":"leaderboardHook","inputs":[],"outputs":[{"name":"","type":"address","internalType":"address"}],"stateMutability":"view"},{"type":"function","name":"profileOf","inputs":[{"name":"user","type":"address","internalType":"address"}],"outputs":[{"name":"","type":"bool","internalType":"bool"},{"name":"","type":"uint16","internalType":"uint16"},{"name":"","type":"uint64","internalType":"uint64"},{"name":"","type":"uint64","internalType":"uint64"}],"stateMutability":"view"},{"type":"function","name":"renounceRole","inputs":[{"name":"role","type":"bytes32","internalType":"bytes32"},{"name":"callerConfirmation","type":"address","internalType":"address"}],"outputs":[],"stateMutability":"nonpayable"},{"type":"function","name":"revokeRole","inputs":[{"name":"role","type":"bytes32","internalType":"bytes32"},{"name":"account","type":"address","internalType":"address"}],"outputs":[],"stateMutability":"nonpayable"},{"type":"function","name":"setChestTime","inputs":[{"name":"user","type":"address","internalType":"address"},{"name":"whenTs","type":"uint64","internalType":"uint64"}],"outputs":[],"stateMutability":"nonpayable"},{"type":"function","name":"setFishTime","inputs":[{"name":"user","type":"address","internalType":"address"},{"name":"whenTs","type":"uint64","internalType":"uint64"}],"outputs":[],"stateMutability":"nonpayable"},{"type":"function","name":"setLeaderboardHook","inputs":[{"name":"hook","type":"address","internalType":"address"}],"outputs":[],"stateMutability":"nonpayable"},{"type":"function","name":"setLevel","inputs":[{"name":"user","type":"address","internalType":"address"},{"name":"newLevel","type":"uint16","internalType":"uint16"}],"outputs":[],"stateMutability":"nonpayable"},{"type":"function","name":"supportsInterface","inputs":[{"name":"interfaceId","type":"bytes4","internalType":"bytes4"}],"outputs":[{"name":"","type":"bool","internalType":"bool"}],"stateMutability":"view"},{"type":"function","name":"top5","inputs":[{"name":"i","type":"uint256","internalType":"uint256"}],"outputs":[{"name":"","type":"address","internalType":"address"}],"stateMutability":"view"},{"type":"function","name":"top5Xp","inputs":[{"name":"i","type":"uint256","internalType":"uint256"}],"outputs":[{"name":"","type":"uint256","internalType":"uint256"}],"stateMutability":"view"},{"type":"function","name":"usernameOf","inputs":[{"name":"user","type":"address","internalType":"address"}],"outputs":[{"name":"","type":"string","internalType":"string"}],"stateMutability":"view"},{"type":"function","name":"xpOf","inputs":[{"name":"user","type":"address","internalType":"address"}],"outputs":[{"name":"","type":"uint64","internalType":"uint64"}],"stateMutability":"view"},{"type":"event","name":"RoleAdminChanged","inputs":[{"name":"role","type":"bytes32","indexed":true,"internalType":"bytes32"},{"name":"previousAdminRole","type":"bytes32","indexed":true,"internalType":"bytes32"},{"name":"newAdminRole","type":"bytes32","indexed":true,"internalType":"bytes32"}],"anonymous":false},{"type":"event","name":"RoleGranted","inputs":[{"name":"role","type":"bytes32","indexed":true,"internalType":"bytes32"},{"name":"account","type":"address","indexed":true,"internalType":"address"},{"name":"sender","type":"address","indexed":true,"internalType":"address"}],"anonymous":false},{"type":"event","name":"RoleRevoked","inputs":[{"name":"role","type":"bytes32","indexed":true,"internalType":"bytes32"},{"name":"account","type":"address","indexed":true,"internalType":"address"},{"name":"sender","type":"address","indexed":true,"internalType":"address"}],"anonymous":false},{"type":"error","name":"AccessControlBadConfirmation","inputs":[]},{"type":"error","name":"AccessControlUnauthorizedAccount","inputs":[{"name":"account","type":"address","internalType":"address"},{"name":"neededRole","type":"bytes32","internalType":"bytes32"}]}],"bytecode":{"object":"0x60806040523461002757610011610156565b61001961002c565b6133ec61036d82396133ec90f35b610032565b60405190565b5f80fd5b90565b90565b5f1b90565b61005561005061005a92610036565b61003c565b610039565b90565b6100665f610041565b90565b90565b60018060401b031690565b90565b61008e61008961009392610069565b610077565b61006c565b90565b60401b90565b906100b668010000000000000000600160801b0391610096565b9181191691161790565b6100d46100cf6100d99261006c565b610077565b61006c565b90565b90565b906100f46100ef6100fb926100c0565b6100dc565b825461009c565b9055565b61011361010e61011892610036565b610077565b61006c565b90565b9061012c60018060401b039161003c565b9181191691161790565b9061014b610146610152926100c0565b6100dc565b825461011b565b9055565b61016861016161005d565b339061025b565b5061017c6101754261007a565b60056100df565b61018f6101885f6100ff565b6005610136565b565b5f90565b151590565b6101a390610039565b90565b906101b09061019a565b5f5260205260405f2090565b60018060a01b031690565b6101db6101d66101e0926101bc565b610077565b6101bc565b90565b6101ec906101c7565b90565b6101f8906101e3565b90565b90610205906101ef565b5f5260205260405f2090565b9061021d60ff9161003c565b9181191691161790565b61023090610195565b90565b90565b9061024b61024661025292610227565b610233565b8254610211565b9055565b5f0190565b610263610191565b50610278610272828490610332565b15610195565b5f146103005761029f600161029a5f6102928186906101a6565b0185906101fb565b610236565b906102a861035f565b906102e56102df6102d97f2f8788117e7eff1d82e926ec794901d17c78024a50270940304540a733656f0d9561019a565b926101ef565b926101ef565b926102ee61002c565b806102f881610256565b0390a4600190565b50505f90565b5f1c90565b60ff1690565b61031d61032291610306565b61030b565b90565b61032f9054610311565b90565b610358915f61034d61035393610346610191565b50826101a6565b016101fb565b610325565b90565b5f90565b61036761035b565b50339056fe60806040526004361015610013575b610f87565b61001d5f356101dc565b806301ffc9a7146101d75780631213b091146101d257806314b8fb0c146101cd57806315e5a1e5146101c8578063248a9ca3146101c35780632f2ff15d146101be5780632f8eb9cb146101b9578063334c3f0e146101b457806336568abe146101af578063461fc5f6146101aa57806374c0b0ac146101a5578063768c5291146101a05780637898acef1461019b578063860171c314610196578063883c00d614610191578063915e92bd1461018c57806391d14854146101875780639f15828f146101825780639f9121731461017d578063a217fddf14610178578063a3f1b09314610173578063a6b520c01461016e578063af3af4c714610169578063c3a0ef8914610164578063d547741f1461015f578063e6ba4f4b1461015a578063ebd0b9fe146101555763f73a0a170361000e57610f51565b610e51565b610e18565b610c8b565b610c57565b610bf5565b610bc0565b610b5c565b610b09565b610a9b565b610a64565b6109bb565b610986565b6108ef565b6108bb565b610886565b6107e6565b61076f565b6106ec565b6106b8565b610684565b6105ca565b610526565b6104c4565b610429565b6103e4565b610339565b610268565b60e01c90565b60405190565b5f80fd5b5f80fd5b5f80fd5b63ffffffff60e01b1690565b610209816101f4565b0361021057565b5f80fd5b9050359061022182610200565b565b9060208282031261023c57610239915f01610214565b90565b6101ec565b151590565b61024f90610241565b9052565b9190610266905f60208501940190610246565b565b346102985761029461028361027e366004610223565b610f8f565b61028b6101e2565b91829182610253565b0390f35b6101e8565b60018060a01b031690565b6102b19061029d565b90565b6102bd816102a8565b036102c457565b5f80fd5b905035906102d5826102b4565b565b67ffffffffffffffff1690565b6102ed816102d7565b036102f457565b5f80fd5b90503590610305826102e4565b565b919060408382031261032f578061032361032c925f86016102c8565b936020016102f8565b90565b6101ec565b5f0190565b346103685761035261034c366004610307565b9061115d565b61035a6101e2565b8061036481610334565b0390f35b6101e8565b5f91031261037757565b6101ec565b1c90565b67ffffffffffffffff1690565b61039d9060086103a2930261037c565b610380565b90565b906103b0915461038d565b90565b6103bf60055f906103a5565b90565b6103cb906102d7565b9052565b91906103e2905f602085019401906103c2565b565b34610414576103f436600461036d565b6104106103ff6103b3565b6104076101e2565b918291826103cf565b0390f35b6101e8565b61042660056008906103a5565b90565b346104595761043936600461036d565b610455610444610419565b61044c6101e2565b918291826103cf565b0390f35b6101e8565b90565b61046a8161045e565b0361047157565b5f80fd5b9050359061048282610461565b565b9060208282031261049d5761049a915f01610475565b90565b6101ec565b6104ab9061045e565b9052565b91906104c2905f602085019401906104a2565b565b346104f4576104f06104df6104da366004610484565b6111b3565b6104e76101e2565b918291826104af565b0390f35b6101e8565b9190604083820312610521578061051561051e925f8601610475565b936020016102c8565b90565b6101ec565b346105555761053f6105393660046104f9565b906111fe565b6105476101e2565b8061055181610334565b0390f35b6101e8565b9060208282031261057357610570915f016102c8565b90565b6101ec565b61ffff1690565b61058890610578565b9052565b6105c16105c8946105b76060949897956105ad608086019a5f870190610246565b602085019061057f565b60408301906103c2565b01906103c2565b565b346105fe576105fa6105e56105e036600461055a565b611291565b906105f19492946101e2565b9485948561058c565b0390f35b6101e8565b5f80fd5b5f80fd5b5f80fd5b909182601f830112156106495781359167ffffffffffffffff831161064457602001926001830284011161063f57565b61060b565b610607565b610603565b9060208282031261067f575f82013567ffffffffffffffff811161067a57610676920161060f565b9091565b6101f0565b6101ec565b346106b35761069d61069736600461064e565b9061197b565b6106a56101e2565b806106af81610334565b0390f35b6101e8565b346106e7576106d16106cb3660046104f9565b90611a98565b6106d96101e2565b806106e381610334565b0390f35b6101e8565b3461071a576106fc36600461036d565b610704611ae0565b61070c6101e2565b8061071681610334565b0390f35b6101e8565b61072881610578565b0361072f57565b5f80fd5b905035906107408261071f565b565b919060408382031261076a578061075e610767925f86016102c8565b93602001610733565b90565b6101ec565b3461079e57610788610782366004610742565b90611b3c565b6107906101e2565b8061079a81610334565b0390f35b6101e8565b906020828203126107bc576107b9915f01610733565b90565b6101ec565b90565b6107cd906107c1565b9052565b91906107e4905f602085019401906107c4565b565b34610816576108126108016107fc3660046107a3565b611c46565b6108096101e2565b918291826107d1565b0390f35b6101e8565b5190565b60209181520190565b90825f9392825e0152565b601f801991011690565b61085c61086560209361086a936108538161081b565b9384809361081f565b95869101610828565b610833565b0190565b6108839160208201915f81840391015261083d565b90565b346108b6576108b26108a161089c36600461055a565b611dd0565b6108a96101e2565b9182918261086e565b0390f35b6101e8565b346108ea576108d46108ce366004610307565b90611e5f565b6108dc6101e2565b806108e681610334565b0390f35b6101e8565b3461091f5761091b61090a61090536600461055a565b611e6b565b6109126101e2565b918291826103cf565b0390f35b6101e8565b60018060a01b031690565b61093f906008610944930261037c565b610924565b90565b90610952915461092f565b90565b61096160105f90610947565b90565b61096d906102a8565b9052565b9190610984905f60208501940190610964565b565b346109b65761099636600461036d565b6109b26109a1610955565b6109a96101e2565b91829182610971565b0390f35b6101e8565b346109ec576109e86109d76109d13660046104f9565b90611ebf565b6109df6101e2565b91829182610253565b0390f35b6101e8565b6109fa816107c1565b03610a0157565b5f80fd5b90503590610a12826109f1565b565b9190604083820312610a3c5780610a30610a39925f86016102f8565b93602001610a05565b90565b6101ec565b916020610a62929493610a5b60408201965f830190610964565b01906107c4565b565b34610a9657610a7d610a77366004610a14565b9061202f565b90610a92610a896101e2565b92839283610a41565b0390f35b6101e8565b34610ac957610ab3610aae36600461055a565b612109565b610abb6101e2565b80610ac581610334565b0390f35b6101e8565b90565b5f1b90565b610aea610ae5610aef92610ace565b610ad1565b61045e565b90565b610afb5f610ad6565b90565b610b06610af2565b90565b34610b3957610b1936600461036d565b610b35610b24610afe565b610b2c6101e2565b918291826104af565b0390f35b6101e8565b90602082820312610b5757610b54915f01610a05565b90565b6101ec565b34610b8c57610b88610b77610b72366004610b3e565b612114565b610b7f6101e2565b91829182610971565b0390f35b6101e8565b7f5098275140f5753db46c42f6e139939968848633a1298402189fdfdafa69b45390565b610bbd610b91565b90565b34610bf057610bd036600461036d565b610bec610bdb610bb5565b610be36101e2565b918291826104af565b0390f35b6101e8565b34610c2557610c21610c10610c0b366004610b3e565b612134565b610c186101e2565b918291826107d1565b0390f35b6101e8565b9190604083820312610c525780610c46610c4f925f86016102c8565b93602001610a05565b90565b6101ec565b34610c8657610c70610c6a366004610c2a565b906123ea565b610c786101e2565b80610c8281610334565b0390f35b6101e8565b34610cba57610ca4610c9e3660046104f9565b90612420565b610cac6101e2565b80610cb681610334565b0390f35b6101e8565b90602082820312610cd857610cd5915f016102f8565b90565b6101ec565b50600590565b905090565b90565b610cf4906102a8565b9052565b90610d0581602093610ceb565b0190565b60200190565b610d2b610d25610d1e83610cdd565b8094610ce3565b91610ce8565b5f915b838310610d3b5750505050565b610d51610d4b6001928451610cf8565b92610d09565b92019190610d2e565b50600590565b905090565b90565b610d71906107c1565b9052565b90610d8281602093610d68565b0190565b60200190565b610da8610da2610d9b83610d5a565b8094610d60565b91610d65565b5f915b838310610db85750505050565b610dce610dc86001928451610d75565b92610d86565b92019190610dab565b610e0f610e1694610e0461016094989795610dfa61018086019a5f870190610d0f565b60a0850190610d8c565b6101408301906103c2565b01906103c2565b565b34610e4c57610e48610e33610e2e366004610cbf565b612666565b90610e3f9492946101e2565b94859485610dd7565b0390f35b6101e8565b34610e8157610e7d610e6c610e6736600461055a565b61275f565b610e746101e2565b918291826107d1565b0390f35b6101e8565b90565b610e9d610e98610ea2926102d7565b610e86565b6102d7565b90565b90610eaf90610e89565b5f5260205260405f2090565b5f1c90565b610ecc610ed191610ebb565b610380565b90565b610ede9054610ec0565b90565b60401c90565b610ef3610ef891610ee1565b610380565b90565b610f059054610ee7565b90565b610f13906011610ea5565b90610f2b600a610f24818501610ed4565b9301610efb565b90565b916020610f4f929493610f4860408201965f8301906103c2565b01906103c2565b565b34610f8257610f69610f64366004610cbf565b610f08565b90610f7e610f756101e2565b92839283610f2e565b0390f35b6101e8565b5f80fd5b5f90565b610f97610f8b565b5080610fb2610fac637965db0b60e01b6101f4565b916101f4565b14908115610fbf575b5090565b610fc99150612810565b5f610fbb565b90610fe991610fe4610fdf610b91565b612836565b611127565b565b610fff610ffa6110049261029d565b610e86565b61029d565b90565b61101090610feb565b90565b61101c90611007565b90565b9061102990611013565b5f5260205260405f2090565b60ff1690565b61104761104c91610ebb565b611035565b90565b611059905461103b565b90565b5f7f6e6f2070726f66696c6500000000000000000000000000000000000000000000910152565b611090600a60209261081f565b6110998161105c565b0190565b6110b29060208101905f818303910152611083565b90565b156110bc57565b6110c46101e2565b62461bcd60e51b8152806110da6004820161109d565b0390fd5b60581b90565b906110fa67ffffffffffffffff60581b916110de565b9181191691161790565b90565b9061111c61111761112392610e89565b611104565b82546110e4565b9055565b5f61115561115b9361114d611148846111426001889061101f565b0161104f565b6110b5565b92600161101f565b01611107565b565b9061116791610fcf565b565b5f90565b6111769061045e565b90565b906111839061116d565b5f5260205260405f2090565b90565b61119e6111a391610ebb565b61118f565b90565b6111b09054611192565b90565b60016111cb6111d1926111c4611169565b505f611179565b016111a6565b90565b906111ef916111ea6111e5826111b3565b612836565b6111f1565b565b906111fb9161284a565b50565b90611208916111d4565b565b5f90565b5f90565b90565b60081c90565b61ffff1690565b61122e61123391611215565b61121b565b90565b6112409054611222565b90565b60181c90565b61125561125a91611243565b610380565b90565b6112679054611249565b90565b60581c90565b61127c6112819161126a565b610380565b90565b61128e9054611270565b90565b6112c36112c8916112a0610f8b565b506112a961120a565b506112b261120e565b506112bb61120e565b50600161101f565b611212565b6112d35f820161104f565b6112de5f8301611236565b926112f55f6112ee81860161125d565b9401611284565b9193929190565b5f7f6578697374730000000000000000000000000000000000000000000000000000910152565b611330600660209261081f565b611339816112fc565b0190565b6113529060208101905f818303910152611323565b90565b1561135c57565b6113646101e2565b62461bcd60e51b81528061137a6004820161133d565b0390fd5b91565b5090565b61139961139461139e92610ace565b610e86565b6107c1565b90565b5f7f6e616d6500000000000000000000000000000000000000000000000000000000910152565b6113d5600460209261081f565b6113de816113a1565b0190565b6113f79060208101905f8183039101526113c8565b90565b1561140157565b6114096101e2565b62461bcd60e51b81528061141f600482016113e2565b0390fd5b634e487b7160e01b5f52604160045260245ffd5b9061144190610833565b810190811067ffffffffffffffff82111761145b57604052565b611423565b9061147361146c6101e2565b9283611437565b565b61147f60c0611460565b90565b9061148c90610241565b9052565b6114a461149f6114a992610ace565b610e86565b610578565b90565b906114b690610578565b9052565b6114ce6114c96114d392610ace565b610e86565b6102d7565b90565b906114e0906102d7565b9052565b6114ee9051610241565b90565b906114fd60ff91610ad1565b9181191691161790565b61151090610241565b90565b90565b9061152b61152661153292611507565b611513565b82546114f1565b9055565b6115409051610578565b90565b60081b90565b9061155762ffff0091611543565b9181191691161790565b61157561157061157a92610578565b610e86565b610578565b90565b90565b9061159561159061159c92611561565b61157d565b8254611549565b9055565b6115aa90516102d7565b90565b60181b90565b906115c96affffffffffffffff000000916115ad565b9181191691161790565b906115e86115e36115ef92610e89565b611104565b82546115b3565b9055565b60981b90565b9061160f67ffffffffffffffff60981b916115f3565b9181191691161790565b9061162e61162961163592610e89565b611104565b82546115f9565b9055565b9061164c67ffffffffffffffff91610ad1565b9181191691161790565b9061166b61166661167292610e89565b611104565b8254611639565b9055565b9061170160a06001611707946116995f82016116935f88016114e4565b90611516565b6116b15f82016116ab60208801611536565b90611580565b6116c95f82016116c3604088016115a0565b906115d3565b6116e15f82016116db606088016115a0565b90611107565b6116f95f82016116f3608088016115a0565b90611619565b0192016115a0565b90611656565b565b9061171391611676565b565b9061171f90611013565b5f5260205260405f2090565b5090565b634e487b7160e01b5f52602260045260245ffd5b9060016002830492168015611763575b602083101461175e57565b61172f565b91607f1691611753565b5f5260205f2090565b601f602091010490565b1b90565b9190600861179f9102916117995f1984611780565b92611780565b9181191691161790565b6117bd6117b86117c2926107c1565b610e86565b6107c1565b90565b90565b91906117de6117d96117e6936117a9565b6117c5565b908354611784565b9055565b5f90565b611800916117fa6117ea565b916117c8565b565b5b81811061180e575050565b8061181b5f6001936117ee565b01611803565b9190601f8111611831575b505050565b61183d6118629361176d565b90602061184984611776565b8301931061186a575b61185b90611776565b0190611802565b5f808061182c565b915061185b81929050611852565b90611888905f199060080261037c565b191690565b8161189791611878565b906002021790565b916118aa908261172b565b9067ffffffffffffffff8211611969576118ce826118c88554611743565b85611821565b5f90601f8311600114611901579180916118f0935f926118f5575b505061188d565b90555b565b90915001355f806118e9565b601f198316916119108561176d565b925f5b81811061195157509160029391856001969410611937575b505050020190556118f3565b611947910135601f841690611878565b90555f808061192b565b91936020600181928787013581550195019201611913565b611423565b90611979929161189f565b565b6001336119879161101f565b5f016119929061104f565b1561199c90610241565b6119a590611355565b80826119b09161137e565b6119b991611381565b5f6119c390611385565b906119cd906107c1565b116119d7906113fa565b60015f5f5f5f915f936119e8611475565b955f8701906119f691611482565b6119ff90611490565b6020860190611a0d916114ac565b611a16906114ba565b6040850190611a24916114d6565b611a2d906114ba565b6060840190611a3b916114d6565b611a44906114ba565b6080830190611a52916114d6565b611a5b906114ba565b60a0820190611a69916114d6565b600133611a759161101f565b90611a7f91611709565b90600233611a8c91611715565b91611a969261196e565b565b9080611ab3611aad611aa86128f5565b6102a8565b916102a8565b03611ac457611ac191612902565b50565b5f63334bd91960e11b815280611adc60048201610334565b0390fd5b611ae8612dbc565b565b90611b0491611aff611afa610b91565b612836565b611b06565b565b5f611b34611b3a93611b2c611b2784611b216001889061101f565b0161104f565b6110b5565b92600161101f565b01611580565b565b90611b4691611aea565b565b90565b611b5f611b5a611b6492611b48565b610e86565b610578565b90565b90565b611b7e611b79611b8392611b67565b610e86565b610578565b90565b90565b611b9d611b98611ba292611b86565b610e86565b6107c1565b90565b90565b611bbc611bb7611bc192611ba5565b610e86565b610578565b90565b634e487b7160e01b5f52601160045260245ffd5b611be190610578565b61ffff8114611bf05760010190565b611bc4565b611c09611c04611c0e92611b67565b610e86565b6107c1565b90565b611c20611c26919392936107c1565b926107c1565b91611c328382026107c1565b928184041490151715611c4157565b611bc4565b90611c4f6117ea565b5081611c64611c5e6001611b4b565b91610578565b1115611ced5781611c7e611c786002611b6a565b91610578565b14611cdd57611c8e61012c611b89565b90611c996003611ba8565b915b82611cae611ca886610578565b91610578565b11611cd657611cca611cd091611cc46002611bf5565b90611c11565b92611bd8565b91611c9b565b9150915090565b9050611cea61012c611b89565b90565b9050611cf85f611385565b90565b606090565b60209181520190565b905f9291805490611d23611d1c83611743565b8094611d00565b916001811690815f14611d7a5750600114611d3e575b505050565b611d4b919293945061176d565b915f925b818410611d6257505001905f8080611d39565b60018160209295939554848601520191019290611d4f565b92949550505060ff19168252151560200201905f8080611d39565b90611d9f91611d09565b90565b90611dc2611dbb92611db26101e2565b93848092611d95565b0383611437565b565b611dcd90611da2565b90565b611e05611e0a91611ddf611cfb565b50611dfe611df95f611df36001859061101f565b0161104f565b6110b5565b6002611715565b611dc4565b90565b90611e2791611e22611e1d610b91565b612836565b611e29565b565b5f611e57611e5d93611e4f611e4a84611e446001889061101f565b0161104f565b6110b5565b92600161101f565b016115d3565b565b90611e6991611e0d565b565b6001611ea0611ea692611e7c61120e565b50611e9a611e955f611e8f86859061101f565b0161104f565b6110b5565b8261101f565b01610ed4565b90565b90611eb390611013565b5f5260205260405f2090565b611ee5915f611eda611ee093611ed3610f8b565b5082611179565b01611ea9565b61104f565b90565b5f90565b90565b611f03611efe611f0892611eec565b610e86565b6107c1565b90565b5f7f496e76616c696420706f736974696f6e00000000000000000000000000000000910152565b611f3f601060209261081f565b611f4881611f0b565b0190565b611f619060208101905f818303910152611f32565b90565b15611f6b57565b611f736101e2565b62461bcd60e51b815280611f8960048201611f4c565b0390fd5b90565b634e487b7160e01b5f52603260045260245ffd5b50600590565b90565b611fb681611fa4565b821015611fd057611fc8600191611faa565b910201905f90565b611f90565b50600590565b90565b611fe781611fd5565b82101561200157611ff9600191611fdb565b910201905f90565b611f90565b90565b61201990600861201e930261037c565b612006565b90565b9061202c9154612009565b90565b61209a61207a6120756120a093959495612047611ee8565b506120506117ea565b5061206e876120686120626005611eef565b916107c1565b10611f64565b6011610ea5565b611f8d565b93600561209361208d5f88018490611fad565b90610947565b9501611fde565b90612021565b90565b6120bc906120b76120b2610af2565b612836565b6120fc565b565b906120cf60018060a01b0391610ad1565b9181191691161790565b90565b906120f16120ec6120f892611013565b6120d9565b82546120be565b9055565b6121079060106120dc565b565b612112906120a3565b565b61212b61213191612123611ee8565b506006611fad565b90610947565b90565b61214b612151916121436117ea565b50600b611fde565b90612021565b90565b9061216e91612169612164610b91565b612836565b61224b565b565b9061217a90611013565b5f5260205260405f2090565b90565b61219d6121986121a292612186565b610e86565b6107c1565b90565b634e487b7160e01b5f52601260045260245ffd5b6121c56121cb916107c1565b916107c1565b9081156121d6570490565b6121a5565b6121ef6121ea6121f4926107c1565b610e86565b6102d7565b90565b9061220291016102d7565b90565b612211612217916102d7565b916102d7565b019067ffffffffffffffff821161222a57565b611bc4565b61224361223e612248926102d7565b610e86565b6107c1565b90565b61236a6122cf6122ca61238b946122766122715f61226b6001899061101f565b0161104f565b6110b5565b61227e612dbc565b61229261228d60048790612170565b610ed4565b6122ad6122a76122a26005610efb565b6102d7565b916102d7565b106123aa575b6122c4670de0b6b3a7640000612189565b906121b9565b6121db565b6122f9816122f360016122e381889061101f565b01916122ee83610ed4565b6121f7565b90611656565b612317612312600161230c81879061101f565b01610ed4565b61300e565b8061233f6123396123345f61232e60018a9061101f565b01611236565b610578565b91610578565b1161238d575b5061236461235560038590612170565b9161235f83610ed4565b612205565b90611656565b61238561238061237b836003612170565b610ed4565b61222f565b906130be565b565b6123a4905f61239e6001879061101f565b01611580565b5f612345565b6123c76123b65f6114ba565b6123c260038890612170565b611656565b6123e56123d46005610efb565b6123e060048890612170565b611656565b6122b3565b906123f491612154565b565b906124119161240c612407826111b3565b612836565b612413565b565b9061241d91612902565b50565b9061242a916123f6565b565b67ffffffffffffffff81116124415760200290565b611423565b6124526124579161242c565b611460565b90565b369037565b9061247d61246c83612446565b92612477849161242c565b9061245a565b565b612489600561245f565b90565b67ffffffffffffffff81116124a15760200290565b611423565b6124b26124b79161248c565b611460565b90565b369037565b906124dd6124cc836124a6565b926124d7849161248c565b906124ba565b565b6124e960056124bf565b90565b905090565b6124fd61250291610ebb565b610924565b90565b61250f90546124f1565b90565b60010190565b61253461252e61252783611fa4565b80946124ec565b91611faa565b5f915b8383106125445750505050565b61256161255b60019261255685612505565b610cf8565b92612512565b92019190612537565b906125778160a093612518565b0190565b9061259b6125949261258b6101e2565b9384809261256a565b0383611437565b565b6125a69061257b565b90565b905090565b6125ba6125bf91610ebb565b612006565b90565b6125cc90546125ae565b90565b60010190565b6125f16125eb6125e483611fd5565b80946125a9565b91611fdb565b5f915b8383106126015750505050565b61261e612618600192612613856125c2565b610d75565b926125cf565b920191906125f4565b906126348160a0936125d5565b0190565b90612658612651926126486101e2565b93848092612627565b0383611437565b565b61266390612638565b90565b61269861269d9161267561247f565b5061267e6124df565b5061268761120e565b5061269061120e565b506011610ea5565b611f8d565b5f810160058201926126ce6126c86126c2600a6126bb818801610ed4565b9601610efb565b9361259d565b9461265a565b929190565b6126dc90611007565b90565b6126eb6126f191610578565b91610578565b019061ffff82116126fe57565b611bc4565b5f80fd5b60e01b90565b9050519061271a826109f1565b565b9060208282031261273557612732915f0161270d565b90565b6101ec565b919061274d905f6020850194019061057f565b565b6127576101e2565b3d5f823e3d90fd5b60206127825f61277c6127c7946127746117ea565b50600161101f565b01611236565b61278b306126d3565b6127bc6127a763768c5291936127a16001611b4b565b906126df565b926127b06101e2565b95869485938493612707565b83526004830161273a565b03915afa90811561280b575f916127dd575b5090565b6127fe915060203d8111612804575b6127f68183611437565b81019061271c565b5f6127d9565b503d6127ec565b61274f565b612818610f8b565b5061283261282c6301ffc9a760e01b6101f4565b916101f4565b1490565b612848906128426128f5565b906131d1565b565b612852610f8b565b50612867612861828490611ebf565b15610241565b5f146128ef5761288e60016128895f612881818690611179565b018590611ea9565b611516565b906128976128f5565b906128d46128ce6128c87f2f8788117e7eff1d82e926ec794901d17c78024a50270940304540a733656f0d9561116d565b92611013565b92611013565b926128dd6101e2565b806128e781610334565b0390a4600190565b50505f90565b6128fd611ee8565b503390565b61290a610f8b565b50612916818390611ebf565b5f1461299d5761293c5f6129375f61292f818690611179565b018590611ea9565b611516565b906129456128f5565b9061298261297c6129767ff6391f5c32d9c69d2a47ea670b442974b53935d1edc7fd64eb21e047a839171b9561116d565b92611013565b92611013565b9261298b6101e2565b8061299581610334565b0390a4600190565b50505f90565b90565b6129ba6129b56129bf926129a3565b610e86565b6102d7565b90565b6129cc6080611460565b90565b52565b52565b5190565b600190818003010490565b5b8181106129f0575050565b806129fd5f6001936117ee565b016129e5565b9091828110612a12575b505050565b612a30612a2a612a24612a3b956129d9565b926129d9565b92611faa565b9182019101906129e4565b5f8080612a0d565b90680100000000000000008111612a695781612a61612a6793611fa4565b90612a03565b565b611423565b612a7890516102a8565b90565b91906008612a9b910291612a9560018060a01b0384611780565b92611780565b9181191691161790565b612aae82610cdd565b9167ffffffffffffffff8311612b1157612adc612ad6600192612ad18686612a43565b610ce8565b92611faa565b9204915f5b838110612aee5750505050565b6001906020612b04612aff86612a6e565b6120d9565b9401938184015501612ae1565b611423565b90612b2091612aa5565b565b5190565b600190818003010490565b5b818110612b3d575050565b80612b4a5f6001936117ee565b01612b32565b9091828110612b5f575b505050565b612b7d612b77612b71612b8895612b26565b92612b26565b92611fdb565b918201910190612b31565b5f8080612b5a565b90680100000000000000008111612bb65781612bae612bb493611fd5565b90612b50565b565b611423565b612bc590516107c1565b90565b612bd182610d5a565b9167ffffffffffffffff8311612c3457612bff612bf9600192612bf48686612b90565b610d65565b92611fdb565b9204915f5b838110612c115750505050565b6001906020612c27612c2286612bbb565b6117c5565b9401938184015501612c04565b611423565b90612c4391612bc8565b565b60401b90565b90612c666fffffffffffffffff000000000000000091612c45565b9181191691161790565b90612c85612c80612c8c92610e89565b611104565b8254612c4b565b9055565b90612cec6060600a612cf294612cb35f8201612cad5f88016129d5565b90612b16565b612ccc60058201612cc660208801612b22565b90612c39565b612ce4828201612cde604088016115a0565b90611656565b0192016115a0565b90612c70565b565b90612cfe91612c90565b565b612d0a90546124f1565b90565b612d21612d1c612d2692610ace565b610e86565b61029d565b90565b612d3290612d0d565b90565b612d3e90610feb565b90565b612d4a90612d35565b90565b612d5690611007565b90565b5f910312612d6357565b6101ec565b612d71906102d7565b67ffffffffffffffff8114612d865760010190565b611bc4565b6001612d9791016107c1565b90565b9190612db0612dab612db893611013565b6120d9565b908354612a7b565b9055565b42612dec612de6612de1612dd06005610efb565b612ddb6107086129a6565b90612205565b61222f565b916107c1565b10612fd157612e6e6006612e54600b612e4b612e086005610ed4565b612e42612e39612e17426121db565b94612e34612e2c612e266129c2565b9961259d565b5f8a016129cf565b61265a565b602087016129d2565b604085016114d6565b606083016114d6565b612e696011612e636005610ed4565b90610ea5565b612cf4565b612e786010612d00565b612e92612e8c612e875f612d29565b6102a8565b916102a8565b03612f38575b612eab612ea4426121db565b6005612c70565b612ec7612ec0612ebb6005610ed4565b612d68565b6005611656565b612ed05f611385565b5b80612ee5612edf6005611eef565b916107c1565b1015612f3557612f3090612f0d612efb5f612d29565b612f0760068490611fad565b90612d9a565b612f2b612f195f611385565b612f25600b8490611fde565b906117c8565b612d8b565b612ed1565b50565b612f52612f4d612f486010612d00565b612d41565b612d4d565b63d614c6b990803b15612fcc57612f75915f91612f6d6101e2565b938492612707565b8252818381612f8660048201610334565b03925af18015612fc757612f9b575b50612e98565b612fba905f3d8111612fc0575b612fb28183611437565b810190612d59565b5f612f95565b503d612fa8565b61274f565b612703565b565b612fe7612fe2612fec92611b86565b610e86565b6102d7565b90565b90565b61300661300161300b92612fef565b610e86565b610578565b90565b9061301761120a565b508161302d61302761012c612fd3565b916102d7565b106130af5761303c6001611b4b565b9061304861012c611b89565b915b8361305d613057856107c1565b9161222f565b101580613094575b1561308d5761307661308791611bd8565b926130816002611bf5565b90611c11565b9161304a565b9150915090565b50806130a96130a3600f612ff2565b91610578565b10613065565b90506130bb6001611b4b565b90565b906130c85f611385565b5b806130dd6130d76005611eef565b916107c1565b101561313f576130f86130f260068390611fad565b90610947565b61310a613104856102a8565b916102a8565b1461311d5761311890612d8b565b6130c9565b90613135925061312f9091600b611fde565b906117c8565b61313d61324d565b565b508061316861316261315d613157600b600490611fde565b90612021565b6107c1565b916107c1565b11613172575b5050565b61318c61319f926131866006600490611fad565b90612d9a565b613199600b600490611fde565b906117c8565b6131a761324d565b5f8061316e565b9160206131cf9294936131c860408201965f830190610964565b01906104a2565b565b906131e66131e0838390611ebf565b15610241565b6131ee575050565b6132085f92839263e2517d3f60e01b8452600484016131ae565b0390fd5b61322061321b61322592611b48565b610e86565b6107c1565b90565b61323761323d919392936107c1565b926107c1565b820180921161324857565b611bc4565b6132565f611385565b905b8161326c6132666005611eef565b916107c1565b10156133b25761328682613280600161320c565b90613228565b5b8061329b6132956005611eef565b916107c1565b10156133a1576132eb906132ba6132b4600b8390611fde565b90612021565b6132e06132da6132d56132cf600b8990611fde565b90612021565b6107c1565b916107c1565b116132f0575b612d8b565b613287565b613346613308613302600b8490611fde565b90612021565b61334161332061331a600b8990611fde565b90612021565b61332c600b8990611fde565b92909161333b600b8890611fde565b906117c8565b6117c8565b61339c61335e61335860068490611fad565b90610947565b61339761337661337060068990611fad565b90610947565b61338260068990611fad565b92909161339160068890611fad565b90612d9a565b612d9a565b6132e6565b50906133ac90612d8b565b90613258565b905056fea264697066735822122054e3a3b526d877add84b45e5e91d163ae0c537e23b8ec6c0f9a308ddd14feebc64736f6c634300081e0033","linkReferences":{}},"methodIdentifiers":{"DEFAULT_ADMIN_ROLE()":"a217fddf","MODULE_ROLE()":"a6b520c0","addXp(address,uint256)":"c3a0ef89","advanceEpochIfNeeded()":"461fc5f6","createProfile(string)":"334c3f0e","epochStart()":"15e5a1e5","epochTop5History(uint64)":"f73a0a17","gameEpoch()":"14b8fb0c","getEpochTop5(uint64)":"e6ba4f4b","getEpochTop5Player(uint64,uint256)":"9f15828f","getRoleAdmin(bytes32)":"248a9ca3","getXpRequiredForLevel(uint16)":"768c5291","getXpRequiredForNextLevel(address)":"ebd0b9fe","grantRole(bytes32,address)":"2f2ff15d","hasRole(bytes32,address)":"91d14854","leaderboardHook()":"915e92bd","profileOf(address)":"2f8eb9cb","renounceRole(bytes32,address)":"36568abe","revokeRole(bytes32,address)":"d547741f","setChestTime(address,uint64)":"860171c3","setFishTime(address,uint64)":"1213b091","setLeaderboardHook(address)":"9f912173","setLevel(address,uint16)":"74c0b0ac","supportsInterface(bytes4)":"01ffc9a7","top5(uint256)":"a3f1b093","top5Xp(uint256)":"af3af4c7","usernameOf(address)":"7898acef","xpOf(address)":"883c00d6"},"id":73}