{"abi":[{"type":"constructor","inputs":[{"name":"regAddr","type":"address","internalType":"address"}],"stateMutability":"nonpayable"},{"type":"function","name":"DEFAULT_ADMIN_ROLE","inputs":[],"outputs":[{"name":"","type":"bytes32","internalType":"bytes32"}],"stateMutability":"view"},{"type":"function","name":"R","inputs":[],"outputs":[{"name":"","type":"address","internalType":"contract IGameRegistry"}],"stateMutability":"view"},{"type":"function","name":"Y","inputs":[],"outputs":[{"name":"","type":"address","internalType":"contract IGameToken"}],"stateMutability":"view"},{"type":"function","name":"getRoleAdmin","inputs":[{"name":"role","type":"bytes32","internalType":"bytes32"}],"outputs":[{"name":"","type":"bytes32","internalType":"bytes32"}],"stateMutability":"view"},{"type":"function","name":"getUnlockCost","inputs":[{"name":"level","type":"uint16","internalType":"uint16"}],"outputs":[{"name":"","type":"uint256","internalType":"uint256"}],"stateMutability":"pure"},{"type":"function","name":"grantRole","inputs":[{"name":"role","type":"bytes32","internalType":"bytes32"},{"name":"account","type":"address","internalType":"address"}],"outputs":[],"stateMutability":"nonpayable"},{"type":"function","name":"hasRole","inputs":[{"name":"role","type":"bytes32","internalType":"bytes32"},{"name":"account","type":"address","internalType":"address"}],"outputs":[{"name":"","type":"bool","internalType":"bool"}],"stateMutability":"view"},{"type":"function","name":"lastUnlockTime","inputs":[{"name":"","type":"address","internalType":"address"}],"outputs":[{"name":"","type":"uint64","internalType":"uint64"}],"stateMutability":"view"},{"type":"function","name":"lastUnlockTimeHarvest","inputs":[{"name":"","type":"address","internalType":"address"}],"outputs":[{"name":"","type":"uint64","internalType":"uint64"}],"stateMutability":"view"},{"type":"function","name":"lockGameToken","inputs":[{"name":"user","type":"address","internalType":"address"},{"name":"amount","type":"uint256","internalType":"uint256"}],"outputs":[],"stateMutability":"nonpayable"},{"type":"function","name":"lockedGameToken","inputs":[{"name":"","type":"address","internalType":"address"}],"outputs":[{"name":"","type":"uint256","internalType":"uint256"}],"stateMutability":"view"},{"type":"function","name":"renounceRole","inputs":[{"name":"role","type":"bytes32","internalType":"bytes32"},{"name":"callerConfirmation","type":"address","internalType":"address"}],"outputs":[],"stateMutability":"nonpayable"},{"type":"function","name":"revokeRole","inputs":[{"name":"role","type":"bytes32","internalType":"bytes32"},{"name":"account","type":"address","internalType":"address"}],"outputs":[],"stateMutability":"nonpayable"},{"type":"function","name":"supportsInterface","inputs":[{"name":"interfaceId","type":"bytes4","internalType":"bytes4"}],"outputs":[{"name":"","type":"bool","internalType":"bool"}],"stateMutability":"view"},{"type":"function","name":"unlockWeeklyHarvest","inputs":[],"outputs":[],"stateMutability":"nonpayable"},{"type":"function","name":"unlockWeeklyWage","inputs":[],"outputs":[],"stateMutability":"nonpayable"},{"type":"event","name":"RoleAdminChanged","inputs":[{"name":"role","type":"bytes32","indexed":true,"internalType":"bytes32"},{"name":"previousAdminRole","type":"bytes32","indexed":true,"internalType":"bytes32"},{"name":"newAdminRole","type":"bytes32","indexed":true,"internalType":"bytes32"}],"anonymous":false},{"type":"event","name":"RoleGranted","inputs":[{"name":"role","type":"bytes32","indexed":true,"internalType":"bytes32"},{"name":"account","type":"address","indexed":true,"internalType":"address"},{"name":"sender","type":"address","indexed":true,"internalType":"address"}],"anonymous":false},{"type":"event","name":"RoleRevoked","inputs":[{"name":"role","type":"bytes32","indexed":true,"internalType":"bytes32"},{"name":"account","type":"address","indexed":true,"internalType":"address"},{"name":"sender","type":"address","indexed":true,"internalType":"address"}],"anonymous":false},{"type":"error","name":"AccessControlBadConfirmation","inputs":[]},{"type":"error","name":"AccessControlUnauthorizedAccount","inputs":[{"name":"account","type":"address","internalType":"address"},{"name":"neededRole","type":"bytes32","internalType":"bytes32"}]}],"bytecode":{"object":"0x60c0604052346100795761001961001461013e565b61022d565b61002161007e565b611e8061048082396080518181816104c501528181610f1401528181611116015281816116ab01526118cf015260a05181818161041301528181611029015281816110a1015281816117e2015261185a0152611e8090f35b610084565b60405190565b5f80fd5b601f801991011690565b634e487b7160e01b5f52604160045260245ffd5b906100b090610088565b810190811060018060401b038211176100c857604052565b610092565b906100e06100d961007e565b92836100a6565b565b5f80fd5b60018060a01b031690565b6100fa906100e6565b90565b610106816100f1565b0361010d57565b5f80fd5b9050519061011e826100fd565b565b9060208282031261013957610136915f01610111565b90565b6100e2565b61015c61230080380380610151816100cd565b928339810190610120565b90565b90565b61017661017161017b926100e6565b61015f565b6100e6565b90565b61018790610162565b90565b6101939061017e565b90565b61019f906100f1565b90565b6101ac9051610196565b90565b6101b890610162565b90565b6101c4906101af565b90565b60e01b90565b5f0190565b6101da61007e565b3d5f823e3d90fd5b6101eb90610162565b90565b6101f7906101e2565b90565b90565b90565b5f1b90565b61021961021461021e926101fa565b610200565b6101fd565b90565b61022a5f610205565b90565b6102369061018a565b608052610266602061025061024b60806101a2565b6101bb565b63c3dfdae69061025e61007e565b9384926101c7565b82528180610276600482016101cd565b03915afa80156102d757610291915f916102a9575b506101ee565b60a0526102a661029f610221565b339061036e565b50565b6102ca915060203d81116102d0575b6102c281836100a6565b810190610120565b5f61028b565b503d6102b8565b6101d2565b5f90565b151590565b6102ee906101fd565b90565b906102fb906102e5565b5f5260205260405f2090565b610310906101af565b90565b9061031d90610307565b5f5260205260405f2090565b9061033560ff91610200565b9181191691161790565b610348906102e0565b90565b90565b9061036361035e61036a9261033f565b61034b565b8254610329565b9055565b6103766102dc565b5061038b610385828490610445565b156102e0565b5f14610413576103b260016103ad5f6103a58186906102f1565b018590610313565b61034e565b906103bb610472565b906103f86103f26103ec7f2f8788117e7eff1d82e926ec794901d17c78024a50270940304540a733656f0d956102e5565b92610307565b92610307565b9261040161007e565b8061040b816101cd565b0390a4600190565b50505f90565b5f1c90565b60ff1690565b61043061043591610419565b61041e565b90565b6104429054610424565b90565b61046b915f610460610466936104596102dc565b50826102f1565b01610313565b610438565b90565b5f90565b61047a61046e565b50339056fe60806040526004361015610013575b6108c5565b61001d5f3561011c565b806301ffc9a714610117578063248a9ca3146101125780632a6736ed1461010d5780632d92c3ac146101085780632f2ff15d1461010357806336568abe146100fe57806345b3fe42146100f95780634980e1be146100f457806391d14854146100ef578063a217fddf146100ea578063afcb15a5146100e5578063b5a92ef9146100e0578063bd7f6e2e146100db578063d547741f146100d6578063dc7887a4146100d15763ff1379ef0361000e57610892565b61085d565b610810565b6107db565b61074e565b6106af565b6105bb565b61054a565b610515565b61048e565b6103dd565b6103a9565b610349565b610306565b61023f565b6101a4565b60e01c90565b60405190565b5f80fd5b5f80fd5b63ffffffff60e01b1690565b61014581610130565b0361014c57565b5f80fd5b9050359061015d8261013c565b565b9060208282031261017857610175915f01610150565b90565b61012c565b151590565b61018b9061017d565b9052565b91906101a2905f60208501940190610182565b565b346101d4576101d06101bf6101ba36600461015f565b6108cd565b6101c7610122565b9182918261018f565b0390f35b610128565b90565b6101e5816101d9565b036101ec57565b5f80fd5b905035906101fd826101dc565b565b9060208282031261021857610215915f016101f0565b90565b61012c565b610226906101d9565b9052565b919061023d905f6020850194019061021d565b565b3461026f5761026b61025a6102553660046101ff565b61095c565b610262610122565b9182918261022a565b0390f35b610128565b60018060a01b031690565b61028890610274565b90565b6102948161027f565b0361029b57565b5f80fd5b905035906102ac8261028b565b565b90565b6102ba816102ae565b036102c157565b5f80fd5b905035906102d2826102b1565b565b91906040838203126102fc57806102f06102f9925f860161029f565b936020016102c5565b90565b61012c565b5f0190565b346103355761031f6103193660046102d4565b90610a71565b610327610122565b8061033181610301565b0390f35b610128565b5f91031261034457565b61012c565b346103775761035936600461033a565b610361610e92565b610369610122565b8061037381610301565b0390f35b610128565b91906040838203126103a457806103986103a1925f86016101f0565b9360200161029f565b90565b61012c565b346103d8576103c26103bc36600461037c565b9061139a565b6103ca610122565b806103d481610301565b0390f35b610128565b3461040c576103f66103f036600461037c565b906113a6565b6103fe610122565b8061040881610301565b0390f35b610128565b7f000000000000000000000000000000000000000000000000000000000000000090565b90565b61044c61044761045192610274565b610435565b610274565b90565b61045d90610438565b90565b61046990610454565b90565b61047590610460565b9052565b919061048c905f6020850194019061046c565b565b346104be5761049e36600461033a565b6104ba6104a9610411565b6104b1610122565b91829182610479565b0390f35b610128565b7f000000000000000000000000000000000000000000000000000000000000000090565b6104f090610454565b90565b6104fc906104e7565b9052565b9190610513905f602085019401906104f3565b565b346105455761052536600461033a565b6105416105306104c3565b610538610122565b91829182610500565b0390f35b610128565b3461057b5761057761056661056036600461037c565b9061142b565b61056e610122565b9182918261018f565b0390f35b610128565b90565b5f1b90565b61059c6105976105a192610580565b610583565b6101d9565b90565b6105ad5f610588565b90565b6105b86105a4565b90565b346105eb576105cb36600461033a565b6105e76105d66105b0565b6105de610122565b9182918261022a565b0390f35b610128565b9060208282031261060957610606915f0161029f565b90565b61012c565b61061790610454565b90565b906106249061060e565b5f5260205260405f2090565b1c90565b67ffffffffffffffff1690565b6106519060086106569302610630565b610634565b90565b906106649154610641565b90565b61067d906106786003915f9261061a565b610659565b90565b67ffffffffffffffff1690565b61069690610680565b9052565b91906106ad905f6020850194019061068d565b565b346106df576106db6106ca6106c53660046105f0565b610667565b6106d2610122565b9182918261069a565b0390f35b610128565b61ffff1690565b6106f4816106e4565b036106fb57565b5f80fd5b9050359061070c826106eb565b565b9060208282031261072757610724915f016106ff565b90565b61012c565b610735906102ae565b9052565b919061074c905f6020850194019061072c565b565b3461077e5761077a61076961076436600461070e565b611532565b610771610122565b91829182610739565b0390f35b610128565b9061078d9061060e565b5f5260205260405f2090565b90565b6107ac9060086107b19302610630565b610799565b90565b906107bf915461079c565b90565b6107d8906107d36001915f92610783565b6107b4565b90565b3461080b576108076107f66107f13660046105f0565b6107c2565b6107fe610122565b91829182610739565b0390f35b610128565b3461083f5761082961082336600461037c565b906115b0565b610831610122565b8061083b81610301565b0390f35b610128565b61085a906108556002915f9261061a565b610659565b90565b3461088d576108896108786108733660046105f0565b610844565b610880610122565b9182918261069a565b0390f35b610128565b346108c0576108a236600461033a565b6108aa611646565b6108b2610122565b806108bc81610301565b0390f35b610128565b5f80fd5b5f90565b6108d56108c9565b50806108f06108ea637965db0b60e01b610130565b91610130565b149081156108fd575b5090565b6109079150611b0f565b5f6108f9565b5f90565b61091a906101d9565b90565b9061092790610911565b5f5260205260405f2090565b5f1c90565b90565b61094761094c91610933565b610938565b90565b610959905461093b565b90565b600161097461097a9261096d61090d565b505f61091d565b0161094f565b90565b906109979161099261098d6105a4565b611b35565b610a48565b565b6109a56109aa91610933565b610799565b90565b6109b79054610999565b90565b634e487b7160e01b5f52601160045260245ffd5b6109dd6109e3919392936102ae565b926102ae565b82018092116109ee57565b6109ba565b906109ff5f1991610583565b9181191691161790565b610a1d610a18610a22926102ae565b610435565b6102ae565b90565b90565b90610a3d610a38610a4492610a09565b610a25565b82546109f3565b9055565b610a69610a5a610a6f93926001610783565b91610a64836109ad565b6109ce565b90610a28565b565b90610a7b9161097d565b565b610a91610a8c610a9692610580565b610435565b6102ae565b90565b60209181520190565b5f7f6e6f206c6f636b65642067616d6520746f6b656e000000000000000000000000910152565b610ad66014602092610a99565b610adf81610aa2565b0190565b610af89060208101905f818303910152610ac9565b90565b15610b0257565b610b0a610122565b62461bcd60e51b815280610b2060048201610ae3565b0390fd5b610b30610b3591610933565b610634565b90565b610b429054610b24565b90565b610b59610b54610b5e92610580565b610435565b610680565b90565b90565b610b78610b73610b7d92610b61565b610435565b610680565b90565b610b8c610b9291610680565b91610680565b019067ffffffffffffffff8211610ba557565b6109ba565b610bbe610bb9610bc392610680565b610435565b6102ae565b90565b5f7f636f6f6c646f776e000000000000000000000000000000000000000000000000910152565b610bfa6008602092610a99565b610c0381610bc6565b0190565b610c1c9060208101905f818303910152610bed565b90565b15610c2657565b610c2e610122565b62461bcd60e51b815280610c4460048201610c07565b0390fd5b610c5c610c57610c61926102ae565b610435565b610680565b90565b90610c7767ffffffffffffffff91610583565b9181191691161790565b610c95610c90610c9a92610680565b610435565b610680565b90565b90565b90610cb5610cb0610cbc92610c81565b610c9d565b8254610c64565b9055565b5f80fd5b601f801991011690565b634e487b7160e01b5f52604160045260245ffd5b90610cec90610cc4565b810190811067ffffffffffffffff821117610d0657604052565b610cce565b60e01b90565b90505190610d1e8261028b565b565b90602082820312610d3957610d36915f01610d11565b90565b61012c565b610d46610122565b3d5f823e3d90fd5b610d5790610438565b90565b610d6390610d4e565b90565b610d6f90610454565b90565b610d7b8161017d565b03610d8257565b5f80fd5b90505190610d9382610d72565b565b90505190610da2826106eb565b565b610dad81610680565b03610db457565b5f80fd5b90505190610dc582610da4565b565b608081830312610e0857610ddd825f8301610d86565b92610e05610dee8460208501610d95565b93610dfc8160408601610db8565b93606001610db8565b90565b61012c565b610e169061027f565b9052565b9190610e2d905f60208501940190610e0d565b565b610e3e610e44919392936102ae565b926102ae565b8203918211610e4f57565b6109ba565b610e5d90610454565b90565b5f910312610e6a57565b61012c565b916020610e90929493610e8960408201965f830190610e0d565b019061072c565b565b610ec1610ea9610ea460013390610783565b6109ad565b610ebb610eb55f610a7d565b916102ae565b11610afb565b610ed5610ed06002339061061a565b610b38565b610ee7610ee15f610b45565b91610680565b03611327575b610f0a610ef942610c48565b610f056002339061061a565b610ca0565b610f4e6020610f387f00000000000000000000000000000000000000000000000000000000000000006104e7565b63d4c0021290610f46610122565b938492610d0b565b82528180610f5e60048201610301565b03915afa90811561132257610f88610f83610fb2936080935f916112f4575b50610d5a565b610d66565b632f8eb9cb90610fa73392610f9b610122565b95869485938493610d0b565b835260048301610e1a565b03915afa80156112ef57610fd0915f809290506112bf575b50611532565b80610ff6610ff0610feb610fe660013390610783565b6109ad565b6102ae565b916102ae565b116112a5575b6110248161101e61100f60013390610783565b91611019836109ad565b610e2f565b90610a28565b61104d7f0000000000000000000000000000000000000000000000000000000000000000610460565b639dc29fac61105b30610e54565b8392803b156112a0576110815f809461108c611075610122565b97889687958694610d0b565b845260048401610e6f565b03925af1801561129b5761126f575b506110c57f0000000000000000000000000000000000000000000000000000000000000000610460565b6340c10f19338392803b1561126a576110f15f80946110fc6110e5610122565b97889687958694610d0b565b845260048401610e6f565b03925af1801561126557611239575b50611150602061113a7f00000000000000000000000000000000000000000000000000000000000000006104e7565b63d4c0021290611148610122565b938492610d0b565b8252818061116060048201610301565b03915afa9081156112345761118591611180915f91611206575b50610d5a565b610d66565b9063c3a0ef8990339092803b15611201576111b35f80946111be6111a7610122565b97889687958694610d0b565b845260048401610e6f565b03925af180156111fc576111d0575b50565b6111ef905f3d81116111f5575b6111e78183610ce2565b810190610e60565b5f6111cd565b503d6111dd565b610d3e565b610cc0565b611227915060203d811161122d575b61121f8183610ce2565b810190610d20565b5f61117a565b503d611215565b610d3e565b611258905f3d811161125e575b6112508183610ce2565b810190610e60565b5f61110b565b503d611246565b610d3e565b610cc0565b61128e905f3d8111611294575b6112868183610ce2565b810190610e60565b5f61109b565b503d61127c565b610d3e565b610cc0565b506112ba6112b560013390610783565b6109ad565b610ffc565b6112e0915060803d81116112e8575b6112d88183610ce2565b810190610dc7565b505090610fca565b503d6112ce565b610d3e565b611315915060203d811161131b575b61130d8183610ce2565b810190610d20565b5f610f7d565b503d611303565b610d3e565b61136b4261136461135e6113596113486113436002339061061a565b610b38565b6113536101a4610b64565b90610b80565b610baa565b916102ae565b1015610c1f565b610eed565b9061138b916113866113818261095c565b611b35565b61138d565b565b9061139791611b8e565b50565b906113a491611370565b565b90806113c16113bb6113b6611c3d565b61027f565b9161027f565b036113d2576113cf91611c4a565b50565b5f63334bd91960e11b8152806113ea60048201610301565b0390fd5b906113f89061060e565b5f5260205260405f2090565b60ff1690565b61141661141b91610933565b611404565b90565b611428905461140a565b90565b611451915f61144661144c9361143f6108c9565b508261091d565b016113ee565b61141e565b90565b5f90565b90565b68ffffffffffffffffff1690565b61147d61147861148292611458565b610435565b61145b565b90565b61149961149461149e926106e4565b610435565b61145b565b90565b6114ad6114b39161145b565b9161145b565b02906114be8261145b565b9182036114c757565b6109ba565b90565b6114e36114de6114e8926114cc565b610435565b61145b565b90565b6114f76114fd9161145b565b9161145b565b019068ffffffffffffffffff821161151157565b6109ba565b61152a61152561152f9261145b565b610435565b6102ae565b90565b61157e61158391611541611454565b506115796115736722b1c8c1227a00009261156e61156868015af1d78b58c4000092611485565b91611469565b6114a1565b916114cf565b6114eb565b611516565b90565b906115a19161159c6115978261095c565b611b35565b6115a3565b565b906115ad91611c4a565b50565b906115ba91611586565b565b6115cb6115d1919392936102ae565b926102ae565b916115dd8382026102ae565b9281840414901517156115ec57565b6109ba565b90565b61160861160361160d926115f1565b610435565b6102ae565b90565b634e487b7160e01b5f52601260045260245ffd5b611630611636916102ae565b916102ae565b908115611641570490565b611610565b61167561165d61165860013390610783565b6109ad565b61166f6116695f610a7d565b916102ae565b11610afb565b6116896116846003339061061a565b610b38565b61169b6116955f610b45565b91610680565b03611ac6575b6116e560206116cf7f00000000000000000000000000000000000000000000000000000000000000006104e7565b63d4c00212906116dd610122565b938492610d0b565b825281806116f560048201610301565b03915afa908115611ac15761171f61171a611749936080935f91611a93575b50610d5a565b610d66565b632f8eb9cb9061173e3392611732610122565b95869485938493610d0b565b835260048301610e1a565b03915afa8015611a8e5761176e61178791611798935f80929050611a5e575b50611d86565b61178261177d60013390610783565b6109ad565b6115bc565b6117926127106115f4565b90611624565b6117c0816117ba6117ab60013390610783565b916117b5836109ad565b610e2f565b90610a28565b6117dd6117cc42610c48565b6117d86003339061061a565b610ca0565b6118067f0000000000000000000000000000000000000000000000000000000000000000610460565b639dc29fac61181430610e54565b8392803b15611a595761183a5f809461184561182e610122565b97889687958694610d0b565b845260048401610e6f565b03925af18015611a5457611a28575b5061187e7f0000000000000000000000000000000000000000000000000000000000000000610460565b6340c10f19338392803b15611a23576118aa5f80946118b561189e610122565b97889687958694610d0b565b845260048401610e6f565b03925af18015611a1e576119f2575b5061190960206118f37f00000000000000000000000000000000000000000000000000000000000000006104e7565b63d4c0021290611901610122565b938492610d0b565b8252818061191960048201610301565b03915afa9081156119ed5761193e91611939915f916119bf575b50610d5a565b610d66565b9063c3a0ef8990339092803b156119ba5761196c5f8094611977611960610122565b97889687958694610d0b565b845260048401610e6f565b03925af180156119b557611989575b50565b6119a8905f3d81116119ae575b6119a08183610ce2565b810190610e60565b5f611986565b503d611996565b610d3e565b610cc0565b6119e0915060203d81116119e6575b6119d88183610ce2565b810190610d20565b5f611933565b503d6119ce565b610d3e565b611a11905f3d8111611a17575b611a098183610ce2565b810190610e60565b5f6118c4565b503d6119ff565b610d3e565b610cc0565b611a47905f3d8111611a4d575b611a3f8183610ce2565b810190610e60565b5f611854565b503d611a35565b610d3e565b610cc0565b611a7f915060803d8111611a87575b611a778183610ce2565b810190610dc7565b505090611768565b503d611a6d565b610d3e565b611ab4915060203d8111611aba575b611aac8183610ce2565b810190610d20565b5f611714565b503d611aa2565b610d3e565b611b0a42611b03611afd611af8611ae7611ae26003339061061a565b610b38565b611af26101a4610b64565b90610b80565b610baa565b916102ae565b1015610c1f565b6116a1565b611b176108c9565b50611b31611b2b6301ffc9a760e01b610130565b91610130565b1490565b611b4790611b41611c3d565b90611e0f565b565b90611b5560ff91610583565b9181191691161790565b611b689061017d565b90565b90565b90611b83611b7e611b8a92611b5f565b611b6b565b8254611b49565b9055565b611b966108c9565b50611bab611ba582849061142b565b1561017d565b5f14611c3357611bd26001611bcd5f611bc581869061091d565b0185906113ee565b611b6e565b90611bdb611c3d565b90611c18611c12611c0c7f2f8788117e7eff1d82e926ec794901d17c78024a50270940304540a733656f0d95610911565b9261060e565b9261060e565b92611c21610122565b80611c2b81610301565b0390a4600190565b50505f90565b5f90565b611c45611c39565b503390565b611c526108c9565b50611c5e81839061142b565b5f14611ce557611c845f611c7f5f611c7781869061091d565b0185906113ee565b611b6e565b90611c8d611c3d565b90611cca611cc4611cbe7ff6391f5c32d9c69d2a47ea670b442974b53935d1edc7fd64eb21e047a839171b95610911565b9261060e565b9261060e565b92611cd3610122565b80611cdd81610301565b0390a4600190565b50505f90565b90565b611d02611cfd611d0792611ceb565b610435565b6106e4565b90565b90565b611d21611d1c611d2692611d0a565b610435565b6102ae565b90565b90565b611d40611d3b611d4592611d29565b610435565b6106e4565b90565b90565b611d5f611d5a611d6492611d48565b610435565b6102ae565b90565b90565b611d7e611d79611d8392611d67565b610435565b6102ae565b90565b611d8e611454565b5080611da3611d9d600f611cee565b916106e4565b1015611ddd57611dbc611db6600a611d2c565b916106e4565b1015611dcf57611dcc6064611d6a565b90565b611dda6103e8611d4b565b90565b50611de96105dc611d0d565b90565b916020611e0d929493611e0660408201965f830190610e0d565b019061021d565b565b90611e24611e1e83839061142b565b1561017d565b611e2c575050565b611e465f92839263e2517d3f60e01b845260048401611dec565b0390fdfea2646970667358221220a318eeca3e1fca9e43770d8af9ac666baaabeebdb9018c738dccda799b53427564736f6c634300081e0033","linkReferences":{}},"methodIdentifiers":{"DEFAULT_ADMIN_ROLE()":"a217fddf","R()":"4980e1be","Y()":"45b3fe42","getRoleAdmin(bytes32)":"248a9ca3","getUnlockCost(uint16)":"b5a92ef9","grantRole(bytes32,address)":"2f2ff15d","hasRole(bytes32,address)":"91d14854","lastUnlockTime(address)":"dc7887a4","lastUnlockTimeHarvest(address)":"afcb15a5","lockGameToken(address,uint256)":"2a6736ed","lockedGameToken(address)":"bd7f6e2e","renounceRole(bytes32,address)":"36568abe","revokeRole(bytes32,address)":"d547741f","supportsInterface(bytes4)":"01ffc9a7","unlockWeeklyHarvest()":"ff1379ef","unlockWeeklyWage()":"2d92c3ac"},"id":71}