{"abi":[{"type":"constructor","inputs":[{"name":"regAddr","type":"address","internalType":"address"}],"stateMutability":"nonpayable"},{"type":"function","name":"DEFAULT_ADMIN_ROLE","inputs":[],"outputs":[{"name":"","type":"bytes32","internalType":"bytes32"}],"stateMutability":"view"},{"type":"function","name":"ITEMS","inputs":[],"outputs":[{"name":"","type":"address","internalType":"contract IGameItems"}],"stateMutability":"view"},{"type":"function","name":"R","inputs":[],"outputs":[{"name":"","type":"address","internalType":"contract IGameRegistry"}],"stateMutability":"view"},{"type":"function","name":"X_VAULT","inputs":[],"outputs":[{"name":"","type":"address","internalType":"address"}],"stateMutability":"view"},{"type":"function","name":"Y","inputs":[],"outputs":[{"name":"","type":"address","internalType":"contract IGameToken"}],"stateMutability":"view"},{"type":"function","name":"buySeedPack","inputs":[{"name":"tier","type":"uint8","internalType":"uint8"},{"name":"count","type":"uint256","internalType":"uint256"}],"outputs":[{"name":"reqId","type":"uint256","internalType":"uint256"}],"stateMutability":"nonpayable"},{"type":"function","name":"feeBpsToVault","inputs":[],"outputs":[{"name":"","type":"uint16","internalType":"uint16"}],"stateMutability":"view"},{"type":"function","name":"getAllPendingRequests","inputs":[{"name":"player","type":"address","internalType":"address"}],"outputs":[{"name":"requestIds","type":"uint256[]","internalType":"uint256[]"},{"name":"tiers","type":"uint8[]","internalType":"uint8[]"},{"name":"counts","type":"uint256[]","internalType":"uint256[]"}],"stateMutability":"view"},{"type":"function","name":"getPendingRequest","inputs":[{"name":"player","type":"address","internalType":"address"}],"outputs":[{"name":"requestId","type":"uint256","internalType":"uint256"},{"name":"tier","type":"uint8","internalType":"uint8"},{"name":"count","type":"uint256","internalType":"uint256"}],"stateMutability":"view"},{"type":"function","name":"getRoleAdmin","inputs":[{"name":"role","type":"bytes32","internalType":"bytes32"}],"outputs":[{"name":"","type":"bytes32","internalType":"bytes32"}],"stateMutability":"view"},{"type":"function","name":"grantRole","inputs":[{"name":"role","type":"bytes32","internalType":"bytes32"},{"name":"account","type":"address","internalType":"address"}],"outputs":[],"stateMutability":"nonpayable"},{"type":"function","name":"hasPendingRequests","inputs":[{"name":"player","type":"address","internalType":"address"}],"outputs":[{"name":"","type":"bool","internalType":"bool"}],"stateMutability":"view"},{"type":"function","name":"hasRole","inputs":[{"name":"role","type":"bytes32","internalType":"bytes32"},{"name":"account","type":"address","internalType":"address"}],"outputs":[{"name":"","type":"bool","internalType":"bool"}],"stateMutability":"view"},{"type":"function","name":"packPrice","inputs":[{"name":"","type":"uint8","internalType":"uint8"}],"outputs":[{"name":"","type":"uint256","internalType":"uint256"}],"stateMutability":"view"},{"type":"function","name":"randomNumberCallback","inputs":[{"name":"requestId","type":"uint256","internalType":"uint256"},{"name":"randomNumber","type":"uint256","internalType":"uint256"}],"outputs":[],"stateMutability":"nonpayable"},{"type":"function","name":"rarityPpm","inputs":[{"name":"","type":"uint256","internalType":"uint256"}],"outputs":[{"name":"","type":"uint32","internalType":"uint32"}],"stateMutability":"view"},{"type":"function","name":"renounceRole","inputs":[{"name":"role","type":"bytes32","internalType":"bytes32"},{"name":"callerConfirmation","type":"address","internalType":"address"}],"outputs":[],"stateMutability":"nonpayable"},{"type":"function","name":"revokeRole","inputs":[{"name":"role","type":"bytes32","internalType":"bytes32"},{"name":"account","type":"address","internalType":"address"}],"outputs":[],"stateMutability":"nonpayable"},{"type":"function","name":"setFeeBpsToVault","inputs":[{"name":"bps","type":"uint16","internalType":"uint16"}],"outputs":[],"stateMutability":"nonpayable"},{"type":"function","name":"setPackPrice","inputs":[{"name":"tier","type":"uint8","internalType":"uint8"},{"name":"price","type":"uint256","internalType":"uint256"}],"outputs":[],"stateMutability":"nonpayable"},{"type":"function","name":"setVrngSystem","inputs":[{"name":"vrngSystem","type":"address","internalType":"address"}],"outputs":[],"stateMutability":"nonpayable"},{"type":"function","name":"supportsInterface","inputs":[{"name":"interfaceId","type":"bytes4","internalType":"bytes4"}],"outputs":[{"name":"","type":"bool","internalType":"bool"}],"stateMutability":"view"},{"type":"function","name":"vrng","inputs":[],"outputs":[{"name":"","type":"address","internalType":"contract IVRNGSystem"}],"stateMutability":"view"},{"type":"event","name":"RandomNumberFulfilled","inputs":[{"name":"requestId","type":"uint256","indexed":true,"internalType":"uint256"},{"name":"normalizedRandomNumber","type":"uint256","indexed":false,"internalType":"uint256"}],"anonymous":false},{"type":"event","name":"RandomNumberRequested","inputs":[{"name":"requestId","type":"uint256","indexed":true,"internalType":"uint256"}],"anonymous":false},{"type":"event","name":"RoleAdminChanged","inputs":[{"name":"role","type":"bytes32","indexed":true,"internalType":"bytes32"},{"name":"previousAdminRole","type":"bytes32","indexed":true,"internalType":"bytes32"},{"name":"newAdminRole","type":"bytes32","indexed":true,"internalType":"bytes32"}],"anonymous":false},{"type":"event","name":"RoleGranted","inputs":[{"name":"role","type":"bytes32","indexed":true,"internalType":"bytes32"},{"name":"account","type":"address","indexed":true,"internalType":"address"},{"name":"sender","type":"address","indexed":true,"internalType":"address"}],"anonymous":false},{"type":"event","name":"RoleRevoked","inputs":[{"name":"role","type":"bytes32","indexed":true,"internalType":"bytes32"},{"name":"account","type":"address","indexed":true,"internalType":"address"},{"name":"sender","type":"address","indexed":true,"internalType":"address"}],"anonymous":false},{"type":"event","name":"SeedPack","inputs":[{"name":"player","type":"address","indexed":true,"internalType":"address"},{"name":"tier","type":"uint8","indexed":false,"internalType":"uint8"},{"name":"requestId","type":"uint256","indexed":false,"internalType":"uint256"}],"anonymous":false},{"type":"event","name":"SeedsRevealed","inputs":[{"name":"player","type":"address","indexed":true,"internalType":"address"},{"name":"requestId","type":"uint256","indexed":false,"internalType":"uint256"},{"name":"seedIds","type":"uint256[]","indexed":false,"internalType":"uint256[]"},{"name":"tier","type":"uint8","indexed":false,"internalType":"uint8"},{"name":"count","type":"uint256","indexed":false,"internalType":"uint256"}],"anonymous":false},{"type":"error","name":"AccessControlBadConfirmation","inputs":[]},{"type":"error","name":"AccessControlUnauthorizedAccount","inputs":[{"name":"account","type":"address","internalType":"address"},{"name":"neededRole","type":"bytes32","internalType":"bytes32"}]},{"type":"error","name":"VRNGConsumer__InvalidFulfillment","inputs":[]},{"type":"error","name":"VRNGConsumer__InvalidRequestId","inputs":[]},{"type":"error","name":"VRNGConsumer__NotInitialized","inputs":[]},{"type":"error","name":"VRNGConsumer__OnlyVRNGSystem","inputs":[]}],"bytecode":{"object":"0x610140604052346100845761001a610015610149565b6108aa565b610022610089565b613b39610fc9823960805181611b00015260a051816106e0015260c0518181816105de0152612290015260e051818181610d8f0152612ad40152610100518181816104b8015261219601526101205181818161066501526124000152613b3990f35b61008f565b60405190565b5f80fd5b601f801991011690565b634e487b7160e01b5f52604160045260245ffd5b906100bb90610093565b810190811060018060401b038211176100d357604052565b61009d565b906100eb6100e4610089565b92836100b1565b565b5f80fd5b60018060a01b031690565b610105906100f1565b90565b610111816100fc565b0361011857565b5f80fd5b9050519061012982610108565b565b9060208282031261014457610141915f0161011c565b90565b6100ed565b610167614b028038038061015c816100d8565b92833981019061012b565b90565b5f1b90565b9061017c61ffff9161016a565b9181191691161790565b90565b61ffff1690565b90565b6101a76101a26101ac92610186565b610190565b610189565b90565b90565b906101c76101c26101ce92610193565b6101af565b825461016f565b9055565b60018060401b0381116101e55760200290565b61009d565b6101f66101fb916101d2565b6100d8565b90565b90565b63ffffffff1690565b61021e610219610223926101fe565b610190565b610201565b90565b61023262042bf861020a565b90565b9061023f90610201565b9052565b90565b61025a61025561025f92610243565b610190565b610201565b90565b61026e6206ad60610246565b90565b90565b61028861028361028d92610271565b610190565b610201565b90565b61029c620356b0610274565b90565b90565b6102b66102b16102bb9261029f565b610190565b610201565b90565b6102c961f4886102a2565b90565b90565b6102e36102de6102e8926102cc565b610190565b610201565b90565b6102f6611db06102cf565b90565b50600590565b90565b60089060018203010490565b90565b1b90565b9190600861033091029161032a5f1984610311565b92610311565b9181191691161790565b61034e610349610353926102ff565b610190565b6102ff565b90565b90565b919061036f61036a6103779361033a565b610356565b908354610315565b9055565b5f90565b6103919161038b61037b565b91610359565b565b5b81811061039f575050565b806103ac5f60019361037f565b01610394565b1c90565b906103c9905f19906020036008026103b2565b8154169055565b9190918282106103e0575b505050565b600460086103f061041895610302565b6104026103fc86610302565b9461030e565b93840193019306025f8111610420575b50610393565b5f80806103db565b61042d90600183036103b6565b5f610412565b906801000000000000000081116104595781610451610457936102f9565b906103d0565b565b61009d565b50600590565b61046e9051610201565b90565b90565b9190600861049291029161048c63ffffffff84610311565b92610311565b9181191691161790565b90565b906104a98161045e565b9060018060401b03821161058c576104cd6104d3916104c88486610433565b610471565b9261030e565b60088204915f5b83811061054357506008830290035f81116104f6575b50505050565b925f935f5b8181106105105750505001555f8080806104f0565b909194602061053760019261052c6105278a610464565b61049c565b908560040290610474565b960191019190916104fb565b5f5f5b6008811061055d57509060019181850155016104da565b9590602061058360019261057861057386610464565b61049c565b908a60040290610474565b92019601610546565b61009d565b9061059b9161049f565b565b6105b16105ac6105b6926100f1565b610190565b6100f1565b90565b6105c29061059d565b90565b6105ce906105b9565b90565b90565b90565b6105eb6105e66105f0926105d1565b61016a565b6105d4565b90565b6105fc5f6105d7565b90565b6106089061059d565b90565b610614906105ff565b90565b60e01b90565b610626816105d4565b0361062d57565b5f80fd5b9050519061063e8261061d565b565b9060208282031261065957610656915f01610631565b90565b6100ed565b5f0190565b61066b610089565b3d5f823e3d90fd5b61067c9061059d565b90565b61068890610673565b90565b6106949061059d565b90565b6106a09061068b565b90565b90565b6106ba6106b56106bf926106a3565b610190565b6102ff565b90565b6106d3670de0b6b3a76400006106a6565b90565b90565b60ff1690565b6106f36106ee6106f8926106d6565b610190565b6106d9565b90565b90610705906106df565b5f5260205260405f2090565b9061071d5f199161016a565b9181191691161790565b9061073c6107376107439261033a565b610356565b8254610711565b9055565b90565b61075e61075961076392610747565b610190565b6102ff565b90565b6107786801158e460913d0000061074a565b90565b90565b61079261078d6107979261077b565b610190565b6106d9565b90565b906107a49061077e565b5f5260205260405f2090565b90565b6107c76107c26107cc926107b0565b610190565b6102ff565b90565b6107e168056bc75e2d631000006107b3565b90565b90565b6107fb6107f6610800926107e4565b610190565b6106d9565b90565b9061080d906107e7565b5f5260205260405f2090565b90565b61083061082b61083592610819565b610190565b6102ff565b90565b61084a680d8d726b7177a8000061081c565b90565b90565b61086461085f6108699261084d565b610190565b6106d9565b90565b9061087690610850565b5f5260205260405f2090565b61089661089161089b926105d1565b610190565b6100f1565b90565b6108a790610882565b90565b61093e906108b6610c83565b6108c2603260016101b2565b6109396108cf60056101ea565b6108e26108da610226565b5f8301610235565b6108f66108ed610262565b60208301610235565b61090a610901610290565b60408301610235565b61091e6109156102be565b60608301610235565b6109326109296102eb565b60808301610235565b6003610591565b6105c5565b8060c05261095461094d6105f3565b3390610e12565b5061097960206109638361060b565b63a6b520c090610971610089565b938492610617565b825281806109896004820161065e565b03915afa8015610c7e576109a6915f91610c50575b503390610e12565b506109cb60206109b58361060b565b63d5076093906109c3610089565b938492610617565b825281806109db6004820161065e565b03915afa8015610c4b576109f6915f91610c1d575b5061067f565b60e052610a1d6020610a078361060b565b63c3dfdae690610a15610089565b938492610617565b82528180610a2d6004820161065e565b03915afa8015610c1857610a48915f91610bea575b50610697565b61010052610a706020610a5a8361060b565b631ec1cc1790610a68610089565b938492610617565b82528180610a806004820161065e565b03915afa908115610be557610b2f92602092610b19925f91610bb8575b5061012052610abf610aad6106c2565b610aba60026001906106fb565b610727565b610ada610aca610766565b610ad560028061079a565b610727565b610af7610ae56107cf565b610af26002600390610803565b610727565b610b14610b02610838565b610b0f600260049061086c565b610727565b61060b565b63341881c390610b27610089565b938492610617565b82528180610b3f6004820161065e565b03915afa908115610bb3575f91610b85575b5080610b6d610b67610b625f61089e565b6100fc565b916100fc565b03610b76575b50565b610b7f90610f1f565b5f610b73565b610ba6915060203d8111610bac575b610b9e81836100b1565b81019061012b565b5f610b51565b503d610b94565b610663565b610bd89150843d8111610bde575b610bd081836100b1565b81019061012b565b5f610a9d565b503d610bc6565b610663565b610c0b915060203d8111610c11575b610c0381836100b1565b81019061012b565b5f610a42565b503d610bf9565b610663565b610c3e915060203d8111610c44575b610c3681836100b1565b81019061012b565b5f6109f0565b503d610c2c565b610663565b610c71915060203d8111610c77575b610c6981836100b1565b810190610640565b5f61099e565b503d610c5f565b610663565b610c8b610c8d565b565b610c95610c97565b565b610c9f610ca1565b565b610ca9610cab565b565b610cb3610cb5565b565b610cbf6001610cf6565b565b634e487b7160e01b5f52602160045260245ffd5b60031115610cdf57565b610cc1565b90610cee82610cd5565b565b90565b90565b80610d09610d035f610ce4565b91610ce4565b145f14610d215750610d1b6001610cf3565b6080525b565b80610d35610d2f6001610ce4565b91610ce4565b145f14610d505750610d476002610cf3565b6080525b610d1f565b610d63610d5d6002610ce4565b91610ce4565b14610d6e575b610d4b565b610d786003610cf0565b608052610d69565b5f90565b151590565b610d92906105d4565b90565b90610d9f90610d89565b5f5260205260405f2090565b610db4906105ff565b90565b90610dc190610dab565b5f5260205260405f2090565b90610dd960ff9161016a565b9181191691161790565b610dec90610d84565b90565b90565b90610e07610e02610e0e92610de3565b610def565b8254610dcd565b9055565b610e1a610d80565b50610e2f610e29828490610f6a565b15610d84565b5f14610eb757610e566001610e515f610e49818690610d95565b018590610db7565b610df2565b90610e5f610f97565b90610e9c610e96610e907f2f8788117e7eff1d82e926ec794901d17c78024a50270940304540a733656f0d95610d89565b92610dab565b92610dab565b92610ea5610089565b80610eaf8161065e565b0390a4600190565b50505f90565b610ec69061059d565b90565b610ed290610ebd565b90565b90610ee660018060a01b039161016a565b9181191691161790565b610ef990610ebd565b90565b90565b90610f14610f0f610f1b92610ef0565b610efc565b8254610ed5565b9055565b610f3c905f610f35610f2f610fa4565b92610ec9565b9101610eff565b565b5f1c90565b60ff1690565b610f55610f5a91610f3e565b610f43565b90565b610f679054610f49565b90565b610f90915f610f85610f8b93610f7e610d80565b5082610d95565b01610db7565b610f5d565b90565b5f90565b610f9f610f93565b503390565b7ffc4de942100e62e9eb61034c75124e3689e7605ae081e19c59907d5c442ea7009056fe60806040526004361015610013575b610e4a565b61001d5f3561018c565b806301ffc9a7146101875780630e453c1214610182578063248a9ca31461017d5780632f107f03146101785780632f2ff15d1461017357806336568abe1461016e57806345b3fe421461016957806348e18741146101645780634980e1be1461015f5780634f0b6cde1461015a5780636213841414610155578063710f5ef1146101505780637cf03fab1461014b578063817697b1146101465780638c730a5a146101415780638f561acc1461013c57806391d1485414610137578063a217fddf14610132578063a507018d1461012d578063a8f33bb914610128578063d547741f14610123578063e2bf56f31461011e5763fd355f630361000e57610e14565b610ddf565b610d59565b610d24565b610cef565b610bca565b610b59565b610b25565b610ac4565b610a3c565b6109c5565b610845565b610730565b6106a9565b61062e565b6105a9565b610533565b610482565b61044e565b6103ee565b61035c565b6102c1565b610214565b60e01c90565b60405190565b5f80fd5b5f80fd5b63ffffffff60e01b1690565b6101b5816101a0565b036101bc57565b5f80fd5b905035906101cd826101ac565b565b906020828203126101e8576101e5915f016101c0565b90565b61019c565b151590565b6101fb906101ed565b9052565b9190610212905f602085019401906101f2565b565b346102445761024061022f61022a3660046101cf565b611090565b610237610192565b918291826101ff565b0390f35b610198565b5f91031261025357565b61019c565b1c90565b61ffff1690565b6102739060086102789302610258565b61025c565b90565b906102869154610263565b90565b61029560015f9061027b565b90565b61ffff1690565b6102a890610298565b9052565b91906102bf905f6020850194019061029f565b565b346102f1576102d1366004610249565b6102ed6102dc610289565b6102e4610192565b918291826102ac565b0390f35b610198565b90565b610302816102f6565b0361030957565b5f80fd5b9050359061031a826102f9565b565b9060208282031261033557610332915f0161030d565b90565b61019c565b610343906102f6565b9052565b919061035a905f6020850194019061033a565b565b3461038c5761038861037761037236600461031c565b61111a565b61037f610192565b91829182610347565b0390f35b610198565b60018060a01b031690565b6103a590610391565b90565b6103b18161039c565b036103b857565b5f80fd5b905035906103c9826103a8565b565b906020828203126103e4576103e1915f016103bc565b90565b61019c565b5f0190565b3461041c576104066104013660046103cb565b611161565b61040e610192565b80610418816103e9565b0390f35b610198565b9190604083820312610449578061043d610446925f860161030d565b936020016103bc565b90565b61019c565b3461047d57610467610461366004610421565b90611196565b61046f610192565b80610479816103e9565b0390f35b610198565b346104b15761049b610495366004610421565b906111a2565b6104a3610192565b806104ad816103e9565b0390f35b610198565b7f000000000000000000000000000000000000000000000000000000000000000090565b90565b6104f16104ec6104f692610391565b6104da565b610391565b90565b610502906104dd565b90565b61050e906104f9565b90565b61051a90610505565b9052565b9190610531905f60208501940190610511565b565b3461056357610543366004610249565b61055f61054e6104b6565b610556610192565b9182918261051e565b0390f35b610198565b61057181610298565b0361057857565b5f80fd5b9050359061058982610568565b565b906020828203126105a4576105a1915f0161057c565b90565b61019c565b346105d7576105c16105bc36600461058b565b611268565b6105c9610192565b806105d3816103e9565b0390f35b610198565b7f000000000000000000000000000000000000000000000000000000000000000090565b610609906104f9565b90565b61061590610600565b9052565b919061062c905f6020850194019061060c565b565b3461065e5761063e366004610249565b61065a6106496105dc565b610651610192565b91829182610619565b0390f35b610198565b7f000000000000000000000000000000000000000000000000000000000000000090565b6106909061039c565b9052565b91906106a7905f60208501940190610687565b565b346106d9576106b9366004610249565b6106d56106c4610663565b6106cc610192565b91829182610694565b0390f35b610198565b7f000000000000000000000000000000000000000000000000000000000000000090565b61070b906104f9565b90565b61071790610702565b9052565b919061072e905f6020850194019061070e565b565b3461076057610740366004610249565b61075c61074b6106de565b610753610192565b9182918261071b565b0390f35b610198565b60ff1690565b61077481610765565b0361077b57565b5f80fd5b9050359061078c8261076b565b565b906020828203126107a7576107a4915f0161077f565b90565b61019c565b6107c06107bb6107c592610765565b6104da565b610765565b90565b906107d2906107ac565b5f5260205260405f2090565b90565b6107f19060086107f69302610258565b6107de565b90565b9061080491546107e1565b90565b61081d906108186002915f926107c8565b6107f9565b90565b90565b61082c90610820565b9052565b9190610843905f60208501940190610823565b565b346108755761087161086061085b36600461078e565b610807565b610868610192565b91829182610830565b0390f35b610198565b5190565b60209181520190565b60200190565b61089690610820565b9052565b906108a78160209361088d565b0190565b60200190565b906108ce6108c86108c18461087a565b809361087e565b92610887565b905f5b8181106108de5750505090565b9091926108f76108f1600192865161089a565b946108ab565b91019190916108d1565b5190565b60209181520190565b60200190565b61091d90610765565b9052565b9061092e81602093610914565b0190565b60200190565b9061095561094f61094884610901565b8093610905565b9261090e565b905f5b8181106109655750505090565b90919261097e6109786001928651610921565b94610932565b9101919091610958565b916109b4906109a66109c2959360608601908682035f8801526108b1565b908482036020860152610938565b9160408184039101526108b1565b90565b346109f8576109f46109e06109db3660046103cb565b6115d2565b6109eb939193610192565b93849384610988565b0390f35b610198565b610a0690610765565b9052565b604090610a33610a3a9496959396610a2960608401985f850190610823565b60208301906109fd565b0190610823565b565b34610a6f57610a6b610a57610a523660046103cb565b611759565b610a62939193610192565b93849384610a0a565b0390f35b610198565b610a7d81610820565b03610a8457565b5f80fd5b90503590610a9582610a74565b565b9190604083820312610abf5780610ab3610abc925f860161077f565b93602001610a88565b90565b61019c565b34610af357610add610ad7366004610a97565b90611885565b610ae5610192565b80610aef816103e9565b0390f35b610198565b9190604083820312610b205780610b14610b1d925f8601610a88565b93602001610a88565b90565b61019c565b34610b5457610b3e610b38366004610af8565b90611a80565b610b46610192565b80610b50816103e9565b0390f35b610198565b34610b8a57610b86610b75610b6f366004610421565b90611be7565b610b7d610192565b918291826101ff565b0390f35b610198565b90565b5f1b90565b610bab610ba6610bb092610b8f565b610b92565b6102f6565b90565b610bbc5f610b97565b90565b610bc7610bb3565b90565b34610bfa57610bda366004610249565b610bf6610be5610bbf565b610bed610192565b91829182610347565b0390f35b610198565b90602082820312610c1857610c15915f01610a88565b90565b61019c565b634e487b7160e01b5f52603260045260245ffd5b50600590565b90565b919091610c4681610c31565b831015610c64576008610c5a600492610c37565b8185040193060290565b610c1d565b63ffffffff1690565b610c82906008610c879302610258565b610c69565b90565b90610c959154610c72565b90565b6003610ca381610c31565b821015610cc057610cbd91610cb791610c3a565b90610c8a565b90565b5f80fd5b63ffffffff1690565b610cd690610cc4565b9052565b9190610ced905f60208501940190610ccd565b565b34610d1f57610d1b610d0a610d05366004610bff565b610c98565b610d12610192565b91829182610cda565b0390f35b610198565b34610d5457610d50610d3f610d3a3660046103cb565b611c10565b610d47610192565b918291826101ff565b0390f35b610198565b34610d8857610d72610d6c366004610421565b90611c6c565b610d7a610192565b80610d84816103e9565b0390f35b610198565b7f000000000000000000000000000000000000000000000000000000000000000090565b610dba906104f9565b90565b610dc690610db1565b9052565b9190610ddd905f60208501940190610dbd565b565b34610e0f57610def366004610249565b610e0b610dfa610d8d565b610e02610192565b91829182610dca565b0390f35b610198565b34610e4557610e41610e30610e2a366004610a97565b906120f9565b610e38610192565b91829182610830565b0390f35b610198565b5f80fd5b5f90565b90565b610e69610e64610e6e92610e52565b6104da565b610820565b90565b634e487b7160e01b5f52601260045260245ffd5b610e91610e9791610820565b91610820565b908115610ea2570690565b610e71565b90610eb29103610820565b90565b90565b610ec4610ec9916102f6565b610eb5565b9052565b90565b610edc610ee191610820565b610ecd565b9052565b602081610ef7610eff93839695610eb8565b018092610ed0565b0190565b601f801991011690565b634e487b7160e01b5f52604160045260245ffd5b90610f2b90610f03565b810190811067ffffffffffffffff821117610f4557604052565b610f0d565b60200190565b5190565b5f1c90565b610f6d610f68610f7292610820565b6104da565b610820565b90565b610f81610f8691610f54565b610f59565b90565b610fdf610fb8610ff793610f9b610e4e565b50610fb24391610fac610100610e55565b90610e85565b90610ea7565b40610fd0610fc4610192565b93849260208401610ee5565b60208201810382520382610f21565b610ff1610feb82610f50565b91610f4a565b20610f75565b90565b60208161100c61101493839695610ed0565b018092610ed0565b0190565b61104e61106692611027610e4e565b5061103f611033610192565b93849260208401610ffa565b60208201810382520382610f21565b61106061105a82610f50565b91610f4a565b20610f75565b90565b906110749101610820565b90565b61108991611083610e4e565b50611069565b90565b5f90565b61109861108c565b50806110b36110ad637965db0b60e01b6101a0565b916101a0565b149081156110c0575b5090565b6110ca9150612501565b5f6110bc565b5f90565b6110dd906102f6565b90565b906110ea906110d4565b5f5260205260405f2090565b90565b61110561110a91610f54565b6110f6565b90565b61111790546110f9565b90565b60016111326111389261112b6110d0565b505f6110e0565b0161110d565b90565b6111549061114f61114a610bb3565b612527565b611156565b565b61115f90612582565b565b61116a9061113b565b565b906111879161118261117d8261111a565b612527565b611189565b565b90611193916125d0565b50565b906111a09161116c565b565b90806111bd6111b76111b261267f565b61039c565b9161039c565b036111ce576111cb9161268c565b50565b5f63334bd91960e11b8152806111e6600482016103e9565b0390fd5b611203906111fe6111f9610bb3565b612527565b61125b565b565b9061121261ffff91610b92565b9181191691161790565b61123061122b61123592610298565b6104da565b610298565b90565b90565b9061125061124b6112579261121c565b611238565b8254611205565b9055565b61126690600161123b565b565b611271906111ea565b565b606090565b606090565b611286906104f9565b90565b906112939061127d565b5f5260205260405f2090565b5490565b60209181520190565b5f5260205f2090565b6112c16112c691610f54565b6107de565b90565b6112d390546112b5565b90565b60010190565b906112f96112f36112ec8461129f565b80936112a3565b926112ac565b905f5b8181106113095750505090565b90919261132961132360019261131e876112c9565b61089a565b946112d6565b91019190916112fc565b9061133d916112dc565b90565b9061136061135992611350610192565b93848092611333565b0383610f21565b565b61136b90611340565b90565b61138261137d61138792610b8f565b6104da565b610820565b90565b9061139d611396610192565b9283610f21565b565b67ffffffffffffffff81116113b75760208091020190565b610f0d565b906113ce6113c98361139f565b61138a565b918252565b369037565b906113fd6113e5836113bc565b926020806113f3869361139f565b92019103906113d3565b565b67ffffffffffffffff81116114175760208091020190565b610f0d565b9061142e611429836113ff565b61138a565b918252565b369037565b9061145d6114458361141c565b9260208061145386936113ff565b9201910390611433565b565b600161146b9101610820565b90565b906114788261087a565b811015611489576020809102010190565b610c1d565b6114989051610820565b90565b906114a590610f59565b5f5260205260405f2090565b60018060a01b031690565b6114c86114cd91610f54565b6114b1565b90565b6114da90546114bc565b90565b906114e79061039c565b9052565b6114f590546112b5565b90565b9061150290610820565b9052565b60ff1690565b61151861151d91610f54565b611506565b90565b61152a905461150c565b90565b9061153790610765565b9052565b611545606061138a565b90565b9061159761158e600261155961153b565b946115706115685f83016114d0565b5f88016114dd565b61158861157f600183016114eb565b602088016114f8565b01611520565b6040840161152d565b565b6115a290611548565b90565b6115af9051610765565b90565b906115bc82610901565b8110156115cd576020809102010190565b610c1d565b6115fb611600916115e1611273565b506115ea611278565b506115f3611273565b506005611289565b611362565b6116098161087a565b908161161d6116175f61136e565b91610820565b146116fd5761162b826113d8565b9061163583611438565b9061163f846113d8565b946116495f61136e565b5b8061165d61165788610820565b91610820565b10156116ef576116ea906116e56116d3602061168261167d88869061146e565b61148e565b6116ac6116996116946004849061149b565b611599565b916116a78c9188909261146e565b6114f8565b6116cd6116bb604083016115a5565b6116c88b918890926115b2565b61152d565b0161148e565b6116e08a9184909261146e565b6114f8565b61145f565b61164a565b509291935050919291929190565b505061171061170b5f61136e565b6113d8565b61172161171c5f61136e565b611438565b9161173361172e5f61136e565b6113d8565b91929190565b5f90565b61175161174c61175692610b8f565b6104da565b610765565b90565b61178261178791611768610e4e565b50611771611739565b5061177a610e4e565b506005611289565b611362565b6117908161087a565b6117a261179c5f61136e565b91610820565b146117f7576117bd6117c2916117b75f61136e565b9061146e565b61148e565b906117d76117d26004849061149b565b611599565b91906117f160206117ea604086016115a5565b940161148e565b91929190565b505f5f9161181761181161180b5f9461136e565b9461173d565b9261136e565b90565b906118349161182f61182a610bb3565b612527565b61186f565b565b906118425f1991610b92565b9181191691161790565b90565b9061186461185f61186b92610f59565b61184c565b8254611836565b9055565b61187e611883929160026107c8565b61184f565b565b9061188f9161181a565b565b60018060a01b031690565b6118a86118ad91610f54565b611891565b90565b6118ba905461189c565b90565b156118c457565b5f630cd1c96b60e01b8152806118dc600482016103e9565b0390fd5b906118ea90610f59565b5f5260205260405f2090565b60ff1690565b61190861190d91610f54565b6118f6565b90565b61191a90546118fc565b90565b634e487b7160e01b5f52602160045260245ffd5b6003111561193b57565b61191d565b9061194a82611931565b565b9061195690611940565b9052565b611964604061138a565b90565b9061199e611995600161197861195a565b9461198f6119875f8301611910565b5f880161194c565b016114eb565b602084016114f8565b565b6119a990611967565b90565b6119b69051611940565b90565b156119c057565b5f63069c328d60e01b8152806119d8600482016103e9565b0390fd5b6119e6604061138a565b90565b634e487b7160e01b5f525f60045260245ffd5b90611a0860ff91610b92565b9181191691161790565b611a1b90611940565b90565b90565b90611a36611a31611a3d92611a12565b611a1e565b82546119fc565b9055565b90611a6c60206001611a7294611a645f8201611a5e5f88016119ac565b90611a21565b01920161148e565b9061184f565b565b90611a7e91611a41565b565b90611ba891611b5e611b27611a9361272d565b93611ac233611abc611ab6611ab1611aac5f8b016118b0565b610702565b61039c565b9161039c565b146118bd565b611afe611ae55f611adf611ada60018a0189906118e0565b6119a0565b016119ac565b611af8611af26001611940565b91611940565b146119b9565b7f0000000000000000000000000000000000000000000000000000000000000000908491613abc565b92611b596001600292611b5187611b48611b3f6119dc565b965f880161194c565b602086016114f8565b0184906118e0565b611a74565b808290611ba0611b8e7f8d0b85217819203ea5eebe89818986fc8f6db4913ede059bade4b8569caebbc992610f59565b92611b97610192565b91829182610830565b0390a26129a3565b565b90611bb49061127d565b5f5260205260405f2090565b60ff1690565b611bd2611bd791610f54565b611bc0565b90565b611be49054611bc6565b90565b611c0d915f611c02611c0893611bfb61108c565b50826110e0565b01611baa565b611bda565b90565b611c27611c2c91611c1f61108c565b506005611289565b61129f565b611c3e611c385f61136e565b91610820565b1190565b90611c5d91611c58611c538261111a565b612527565b611c5f565b565b90611c699161268c565b50565b90611c7691611c42565b565b90565b611c8f611c8a611c9492611c78565b6104da565b610765565b90565b90565b611cae611ca9611cb392611c97565b6104da565b610765565b90565b60209181520190565b5f7f7469657200000000000000000000000000000000000000000000000000000000910152565b611cf36004602092611cb6565b611cfc81611cbf565b0190565b611d159060208101905f818303910152611ce6565b90565b15611d1f57565b611d27610192565b62461bcd60e51b815280611d3d60048201611d00565b0390fd5b5f7f636f756e74000000000000000000000000000000000000000000000000000000910152565b611d756005602092611cb6565b611d7e81611d41565b0190565b611d979060208101905f818303910152611d68565b90565b15611da157565b611da9610192565b62461bcd60e51b815280611dbf60048201611d82565b0390fd5b634e487b7160e01b5f52601160045260245ffd5b611de6611dec91939293610820565b92610820565b91611df8838202610820565b928184041490151715611e0757565b611dc3565b611e18611e1d91610f54565b61025c565b90565b611e2a9054611e0c565b90565b611e41611e3c611e4692610298565b6104da565b610820565b90565b90565b611e60611e5b611e6592611e49565b6104da565b610820565b90565b611e74611e7a91610820565b91610820565b908115611e85570490565b610e71565b5f80fd5b60e01b90565b5f910312611e9e57565b61019c565b916020611ec4929493611ebd60408201965f830190610687565b0190610823565b565b611ece610192565b3d5f823e3d90fd5b611edf906104dd565b90565b611eeb90611ed6565b90565b611ef7906104f9565b90565b611f04606061138a565b90565b611f11905161039c565b90565b90611f2560018060a01b0391610b92565b9181191691161790565b90565b90611f47611f42611f4e9261127d565b611f2f565b8254611f14565b9055565b90565b90611f6a611f65611f71926107ac565b611f52565b82546119fc565b9055565b90611fb960406002611fbf94611f985f8201611f925f8801611f07565b90611f32565b611fb160018201611fab6020880161148e565b9061184f565b0192016115a5565b90611f55565b565b90611fcb91611f75565b565b90565b5f5260205f2090565b5490565b611fe681611fd9565b82101561200057611ff8600191611fd0565b910201905f90565b610c1d565b1b90565b9190600861202491029161201e5f1984612005565b92612005565b9181191691161790565b919061204461203f61204c93610f59565b61184c565b908354612009565b9055565b9081549168010000000000000000831015612080578261207891600161207e95018155611fdd565b9061202e565b565b610f0d565b90505190612092826103a8565b565b906020828203126120ad576120aa915f01612085565b90565b61019c565b6120bb906104dd565b90565b6120c7906120b2565b90565b6120d3906104f9565b90565b9160206120f79294936120f060408201965f8301906109fd565b0190610823565b565b612101610e4e565b50806121166121106001611c7b565b91610765565b1015806124e0575b61212790611d18565b6121438261213d6121375f61136e565b91610820565b11611d9a565b61216161215a612155600284906107c8565b6114eb565b8390611dd7565b6121916121808261217a6121756001611e20565b611e2d565b90611dd7565b61218b612710611e4c565b90611e68565b6121ba7f0000000000000000000000000000000000000000000000000000000000000000610505565b639dc29fac338492803b156124db576121e65f80946121f16121da610192565b97889687958694611e8e565b845260048401611ea3565b03925af180156124d6576124aa575b508061221461220e5f61136e565b91610820565b116123f8575b50612268612226612cf2565b93612257339161224e869161224561223c611efa565b955f87016114dd565b602085016114f8565b6040830161152d565b6122636004869061149b565b611fc1565b61228661227f61227a60053390611289565b611fcd565b8490612050565b6122ca60206122b47f0000000000000000000000000000000000000000000000000000000000000000610600565b63d4c00212906122c2610192565b938492611e8e565b825281806122da600482016103e9565b03915afa9081156123f3576122ff916122fa915f916123c5575b506120be565b6120ca565b9063c3a0ef8990339092803b156123c05761232d5f8094612338612321610192565b97889687958694611e8e565b845260048401611ea3565b03925af180156123bb5761238f575b5033826123747fe41361c7aa152adc1fa1287418d88b71506b1edb24ae8e3bdcb5350c1a2250d29261127d565b92612389612380610192565b928392836120d6565b0390a290565b6123ae905f3d81116123b4575b6123a68183610f21565b810190611e94565b5f612347565b503d61239c565b611ec6565b611e8a565b6123e6915060203d81116123ec575b6123de8183610f21565b810190612094565b5f6122f4565b503d6123d4565b611ec6565b6124296124247f0000000000000000000000000000000000000000000000000000000000000000611ee2565b611eee565b9063299dc09f90823b156124a557612460926124555f8094612449610192565b96879586948593611e8e565b835260048301610830565b03925af180156124a057612474575b61221a565b612493905f3d8111612499575b61248b8183610f21565b810190611e94565b5f61246f565b503d612481565b611ec6565b611e8a565b6124c9905f3d81116124cf575b6124c18183610f21565b810190611e94565b5f612200565b503d6124b7565b611ec6565b611e8a565b50612127816124f86124f26004611c9a565b91610765565b1115905061211e565b61250961108c565b5061252361251d6301ffc9a760e01b6101a0565b916101a0565b1490565b6125399061253361267f565b90612d32565b565b612544906104dd565b90565b6125509061253b565b90565b61255c9061253b565b90565b90565b9061257761257261257e92612553565b61255f565b8254611f14565b9055565b61259f905f61259861259261272d565b92612547565b9101612562565b565b6125aa906101ed565b90565b90565b906125c56125c06125cc926125a1565b6125ad565b82546119fc565b9055565b6125d861108c565b506125ed6125e7828490611be7565b156101ed565b5f1461267557612614600161260f5f6126078186906110e0565b018590611baa565b6125b0565b9061261d61267f565b9061265a61265461264e7f2f8788117e7eff1d82e926ec794901d17c78024a50270940304540a733656f0d956110d4565b9261127d565b9261127d565b92612663610192565b8061266d816103e9565b0390a4600190565b50505f90565b5f90565b61268761267b565b503390565b61269461108c565b506126a0818390611be7565b5f14612727576126c65f6126c15f6126b98186906110e0565b018590611baa565b6125b0565b906126cf61267f565b9061270c6127066127007ff6391f5c32d9c69d2a47ea670b442974b53935d1edc7fd64eb21e047a839171b956110d4565b9261127d565b9261127d565b92612715610192565b8061271f816103e9565b0390a4600190565b50505f90565b7ffc4de942100e62e9eb61034c75124e3689e7605ae081e19c59907d5c442ea70090565b61276561276061276a92610b8f565b6104da565b610391565b90565b61277690612751565b90565b5f7f496e76616c696420726571756573740000000000000000000000000000000000910152565b6127ad600f602092611cb6565b6127b681612779565b0190565b6127cf9060208101905f8183039101526127a0565b90565b156127d957565b6127e1610192565b62461bcd60e51b8152806127f7600482016127ba565b0390fd5b61280490610820565b5f1981146128125760010190565b611dc3565b91602061283892949361283160408201965f830190610823565b0190610823565b565b90565b61285161284c6128569261283a565b6104da565b610820565b90565b61286d61286861287292611c78565b6104da565b610820565b90565b61287e90612859565b9052565b6040906128ab6128b294969593966128a160608401985f850190610687565b6020830190610823565b0190612875565b565b6128ed6128e26060936128f4969897956128d560808601925f870190610823565b84820360208601526108b1565b9660408301906109fd565b0190610823565b565b61290891612902610e4e565b9161202e565b565b60025f91828082015561292083600183016128f6565b0155565b905f03612936576129349061290a565b565b6119e9565b61294a61295091939293610820565b92610820565b820391821161295b57565b611dc3565b634e487b7160e01b5f52603160045260245ffd5b61297d81611fd9565b801561299e57600190039061299b6129958383611fdd565b906128f6565b55565b612960565b90916129b96129b46004849061149b565b611599565b906129e96129c85f8401611f07565b6129e26129dc6129d75f61276d565b61039c565b9161039c565b14156127d2565b6129fd6129f86020840161148e565b6113d8565b93612a075f61136e565b91612a115f61136e565b5b80612a30612a2a612a256020890161148e565b610820565b91610820565b1015612b9457612ab8612aa6612aa1612a8f86612a77612a4f8a6127fb565b9991612a68612a5c610192565b93849260208401612817565b60208201810382520382610f21565b612a89612a8382610f50565b91610f4a565b20610f75565b612a9b620f424061283d565b90610e85565b612df9565b612ab2604088016115a5565b90613432565b90612acf82612aca8a9184909261146e565b6114f8565b612af87f0000000000000000000000000000000000000000000000000000000000000000610db1565b9163156e29f690612b0a5f8901611f07565b9093600192813b15612b8f575f612b3491612b3f8296612b28610192565b998a9788968795611e8e565b855260048501612882565b03925af1918215612b8a57612b5992612b5e575b5061145f565b612a12565b612b7d905f3d8111612b83575b612b758183610f21565b810190611e94565b5f612b53565b503d612b6b565b611ec6565b611e8a565b5094612c319250612c36939150612bac5f8301611f07565b8591612bba604085016115a5565b92612c06612bca6020870161148e565b612bf47fd3423fb77c3c36523d2cf24a496aa4a97d7b1deb92d8507b2c19990f61183b4f9561127d565b95612bfd610192565b948594856128b4565b0390a2612c1e5f612c196004879061149b565b612924565b612c2b5f60059201611f07565b90611289565b611fcd565b612c3f5f61136e565b5b80612c5b612c55612c5085611fd9565b610820565b91610820565b1015612cea57612c75612c6f838390611fdd565b906107f9565b612c87612c8185610820565b91610820565b14612c9a57612c959061145f565b612c40565b612ce79250612ce290612cdc612cd5612ccf85612cc9612cb988611fd9565b612cc36001612859565b9061293b565b90611fdd565b906107f9565b9184611fdd565b9061202e565b612974565b5b565b505050612ce8565b612cfa610e4e565b50612d0c612d075f61136e565b613932565b90565b916020612d30929493612d2960408201965f830190610687565b019061033a565b565b90612d47612d41838390611be7565b156101ed565b612d4f575050565b612d695f92839263e2517d3f60e01b845260048401612d0f565b0390fd5b612d81612d7c612d8692610b8f565b6104da565b610cc4565b90565b6001612d959101610765565b90565b90565b612daf612daa612db492612d98565b6104da565b610765565b90565b612dc3612dc991610cc4565b91610cc4565b019063ffffffff8211612dd857565b611dc3565b612df1612dec612df692610cc4565b6104da565b610820565b90565b612e01611739565b50612e0b5f612d6d565b90612e155f61173d565b915b82612e2b612e256005612d9b565b91610765565b1015612e7e57612e5090612e4a612e4460038690610c3a565b90610c8a565b90612db7565b9181612e64612e5e85612ddd565b91610820565b10612e7857612e7290612d89565b91612e17565b91505090565b505050612e8a5f61173d565b90565b90565b612ea4612e9f612ea992612e8d565b6104da565b610765565b90565b90565b612ec3612ebe612ec892612eac565b6104da565b610765565b90565b90565b612ee2612edd612ee792612ecb565b6104da565b610820565b90565b612ef7600160fa1b612ece565b90565b612f02612eea565b612f0c6001612859565b1790565b612f24612f1f612f2992612e8d565b6104da565b610820565b90565b612f34612eea565b612f3e6002612f10565b1790565b612f56612f51612f5b92612eac565b6104da565b610820565b90565b612f66612eea565b612f706003612f42565b1790565b612f88612f83612f8d92611c97565b6104da565b610820565b90565b612f98612eea565b612fa26004612f74565b1790565b612fba612fb5612fbf92612d98565b6104da565b610820565b90565b612fca612eea565b612fd46005612fa6565b1790565b90565b612fef612fea612ff492612fd8565b6104da565b610820565b90565b612fff612eea565b6130096006612fdb565b1790565b61302161301c61302692612fd8565b6104da565b610765565b90565b90565b61304061303b61304592613029565b6104da565b610820565b90565b613050612eea565b61305a600761302c565b1790565b61307261306d61307792613029565b6104da565b610765565b90565b90565b61309161308c6130969261307a565b6104da565b610820565b90565b6130a1612eea565b6130ab600861307d565b1790565b6130c36130be6130c89261307a565b6104da565b610765565b90565b90565b6130e26130dd6130e7926130cb565b6104da565b610820565b90565b6130f2612eea565b6130fc60096130ce565b1790565b61311461310f613119926130cb565b6104da565b610765565b90565b90565b61313361312e6131389261311c565b6104da565b610820565b90565b613143612eea565b61314d600a61311f565b1790565b90565b61316861316361316d92613151565b6104da565b610820565b90565b613178612eea565b613182600b613154565b1790565b90565b61319d6131986131a292613186565b6104da565b610820565b90565b6131b2600360f81b613189565b90565b6131bd6131a5565b6131c76001612859565b1790565b6131d36131a5565b6131dd6002612f10565b1790565b6131e96131a5565b6131f36003612f42565b1790565b6131ff6131a5565b6132096004612f74565b1790565b6132156131a5565b61321f6005612fa6565b1790565b61322b6131a5565b6132356006612fdb565b1790565b6132416131a5565b61324b600761302c565b1790565b6132576131a5565b613261600861307d565b1790565b61326d6131a5565b61327760096130ce565b1790565b6132836131a5565b61328d600a61311f565b1790565b6132a56132a06132aa9261311c565b6104da565b610765565b90565b6132b56131a5565b6132bf600b613154565b1790565b90565b6132da6132d56132df926132c3565b6104da565b610820565b90565b6132ea6131a5565b6132f4600c6132c6565b1790565b90565b61330f61330a613314926132f8565b6104da565b610820565b90565b613324600160f91b6132fb565b90565b61332f613317565b6133396001612859565b1790565b613345613317565b61334f6002612f10565b1790565b61335b613317565b6133656003612f42565b1790565b613371613317565b61337b6004612f74565b1790565b613387613317565b6133916005612fa6565b1790565b90565b6133ac6133a76133b192613395565b6104da565b610820565b90565b6133c1600160f81b613398565b90565b6133cc6133b4565b6133d66001612859565b1790565b6133e26133b4565b6133ec6002612f10565b1790565b6133f86133b4565b6134026003612f42565b1790565b61340e6133b4565b6134186004612f74565b1790565b6134246133b4565b61342e6005612fa6565b1790565b9061343b610e4e565b508061345061344a6001611c7b565b91610765565b145f146134f457508061346b6134655f61173d565b91610765565b146134e8578061348461347e6001611c7b565b91610765565b146134dc578061349d6134976002612e90565b91610765565b146134d0576134b56134af6003612eaf565b91610765565b146134c5576134c261341c565b90565b6134cd613406565b90565b506134d96133f0565b90565b506134e56133da565b90565b506134f16133c4565b90565b806135086135026002612e90565b91610765565b145f146135ac57508061352361351d5f61173d565b91610765565b146135a0578061353c6135366001611c7b565b91610765565b14613594578061355561354f6002612e90565b91610765565b146135885761356d6135676003612eaf565b91610765565b1461357d5761357a61337f565b90565b613585613369565b90565b50613591613353565b90565b5061359d61333d565b90565b506135a9613327565b90565b6135bf6135b96003612eaf565b91610765565b145f1461376557806135d96135d35f61173d565b91610765565b1461375957806135f26135ec6001611c7b565b91610765565b1461374d578061360b6136056002612e90565b91610765565b14613741578061362461361e6003612eaf565b91610765565b14613735578061363d6136376004611c9a565b91610765565b1461372957806136566136506005612d9b565b91610765565b1461371d578061366f613669600661300d565b91610765565b146137115780613688613682600761305e565b91610765565b1461370557806136a161369b60086130af565b91610765565b146136f957806136ba6136b46009613100565b91610765565b146136ed576136d26136cc600a613291565b91610765565b146136e2576136df6132e2565b90565b6136ea6132ad565b90565b506136f661327b565b90565b50613702613265565b90565b5061370e61324f565b90565b5061371a613239565b90565b50613726613223565b90565b5061373261320d565b90565b5061373e6131f7565b90565b5061374a6131e1565b90565b506137566131cb565b90565b506137626131b5565b90565b806137786137725f61173d565b91610765565b146138d3578061379161378b6001611c7b565b91610765565b146138c757806137aa6137a46002612e90565b91610765565b146138bb57806137c36137bd6003612eaf565b91610765565b146138af57806137dc6137d66004611c9a565b91610765565b146138a357806137f56137ef6005612d9b565b91610765565b14613897578061380e613808600661300d565b91610765565b1461388b5780613827613821600761305e565b91610765565b1461387f578061384061383a60086130af565b91610765565b14613873576138586138526009613100565b91610765565b1461386857613865613170565b90565b61387061313b565b90565b5061387c6130ea565b90565b50613888613099565b90565b50613894613048565b90565b506138a0612ff7565b90565b506138ac612fc2565b90565b506138b8612f90565b90565b506138c4612f5e565b90565b506138d0612f2c565b90565b506138dc612efa565b90565b905051906138ec82610a74565b565b9060208282031261390757613904915f016138df565b90565b61019c565b90565b1561391657565b5f63526d8be560e11b81528061392e600482016103e9565b0390fd5b61393a610e4e565b5061394361272d565b906139576139525f84016118b0565b610702565b61397161396b6139665f61276d565b61039c565b9161039c565b14613a8c5760206139b79161398f61398a5f86016118b0565b610702565b6139ac5f63e39144726139a0610192565b96879586948593611e8e565b835260048301610830565b03925af1908115613a87576139e06001613a15936139e5935f91613a59575b50940184906118e0565b61390c565b613a0b6139f35f8301611910565b613a056139ff5f611940565b91611940565b1461390f565b5f60019101611a21565b80613a407f5a82a565b8cc97bc62f2041e057e918f6b3b7b4185104d7d4a52ed5c711e723291610f59565b90613a49610192565b80613a53816103e9565b0390a290565b613a7a915060203d8111613a80575b613a728183610f21565b8101906138ee565b5f6139d6565b503d613a68565b611ec6565b5f63d73bfe6760e01b815280613aa4600482016103e9565b0390fd5b634e487b7160e01b5f52605160045260245ffd5b91909180600314613af35780600214613ae357600103613aa857613adf91611077565b905b565b50613aed91611018565b90613ae1565b50613afd91610f89565b90613ae156fea264697066735822122086e76689a19d00f8d09e3b29bac092d14e014ae6e8ace730a8c0266d8639b81064736f6c634300081e0033","linkReferences":{}},"methodIdentifiers":{"DEFAULT_ADMIN_ROLE()":"a217fddf","ITEMS()":"e2bf56f3","R()":"4980e1be","X_VAULT()":"4f0b6cde","Y()":"45b3fe42","buySeedPack(uint8,uint256)":"fd355f63","feeBpsToVault()":"0e453c12","getAllPendingRequests(address)":"7cf03fab","getPendingRequest(address)":"817697b1","getRoleAdmin(bytes32)":"248a9ca3","grantRole(bytes32,address)":"2f2ff15d","hasPendingRequests(address)":"a8f33bb9","hasRole(bytes32,address)":"91d14854","packPrice(uint8)":"710f5ef1","randomNumberCallback(uint256,uint256)":"8f561acc","rarityPpm(uint256)":"a507018d","renounceRole(bytes32,address)":"36568abe","revokeRole(bytes32,address)":"d547741f","setFeeBpsToVault(uint16)":"48e18741","setPackPrice(uint8,uint256)":"8c730a5a","setVrngSystem(address)":"2f107f03","supportsInterface(bytes4)":"01ffc9a7","vrng()":"62138414"},"id":72}